:020000040800F2
:10000000E86E00209D020008DD7300089D6700086F
:10001000D9730008C90C00083D92000800000000D8
:10002000000000000000000000000000817D0008CA
:10003000091000080000000061740008A57D000898
:10004000B70200084D740008B7020008B7020008A4
:10005000B7020008B7020008B7020008B70200089C
:10006000B7020008B7020008B7020008B70200088C
:10007000010E0008B7020008110E0008210E00084A
:10008000B7020008B7020008B7020008B70200086C
:10009000CD0C0008B7020008B7020008B70200083C
:1000A000B7020008B7020008B7020008B70200084C
:1000B000897F0008B7020008997F0008B70200088E
:1000C000B7020008B7020008B7020008B70200082C
:1000D000B7020008258E0008418E00085D8E0008DA
:1000E000B7020008B7020008B7020008B70200080C
:1000F000B7020008B7020008B7020008B7020008FC
:10010000B7020008FD750008B7020008B702000832
:10011000B7020008B7020008A97F0008B70200086C
:10012000B7020008310E0008B7020008410E0008AF
:10013000B7020008B7020008B7020008B7020008BB
:10014000DD0C0008B7020008B7020008B70200087B
:10015000510E0008610E0008B7020008798E0008F1
:10016000B7020008B7020008B7020008B70200088B
:10017000B7020008B7020008B7020008000000003C
:10018000B7020008B702000839860008B702000865
:10019000B7020008B7020008B7020008B70200085B
:1001A0000000000000000000B702000800F002F8A4
:1001B00000F065F80AA090E8000C82448344AAF19C
:1001C0000107DA4501D100F05AF8AFF2090EBAE89A
:1001D0000F0013F0010F18BFFB1A43F0010318477B
:1001E000F46A0100146B01000A444FF0000C10F88F
:1001F000013B13F0070408BF10F8014B1D1108BFA5
:1002000010F8015B641E05D010F8016B641E01F844
:10021000016BF9D113F0080F1EBF10F8014BAD1C94
:100220000C1B09D16D1E58BF01F801CBFAD505E0B2
:1002300014F8016B01F8016B6D1EF9D59142D6D30C
:10024000704700000023002400250026103A28BF34
:1002500078C1FBD8520728BF30C148BF0B60704738
:100260001FB515F04EFC9DE8030000F0D9FA00F030
:10027000A7F91FBD10B5002000F020FB10BD00F055
:100280004AFB1146FFF7ECFF0FF030FF00F082FB56
:1002900003B4FFF7EFFF03BC00F098FA094880476A
:1002A00009480047FEE7FEE7FEE7FEE7FEE7FEE758
:1002B000FEE7FEE7FEE7FEE704480549054A064B70
:1002C00070470000A17E0008AD010008E85C002036
:1002D000E86E0020E85E0020E85E00209FED1A1A1C
:1002E000F5EE000A40EE010ABDEEE00AF5EEC00AA6
:1002F00010EE100AF1EE10FA38BF401E00EE100AA0
:100300001349F7EE001AB8EEC00A30EEC00ADFED6E
:100310000F0A20EE200AFCEEC00A10EE900AC0F38D
:10032000080000EE900A01EB8000F8EE600A90ED04
:10033000011A70EE600A90ED000A71EEE01A21EEEB
:10034000800A00EE810A704783F9223E00000044D3
:10035000A05E0108B5EEC00AF1EE10FA07D2DFED9B
:100360001E0AB4EEE00AF1EE10FAA8BF7047DFED06
:100370001B0AB5EEC00A60EE200ABDEEE01A11EECF
:10038000100AF1EE10FA38BF401E00EE100A1549AF
:10039000F7EE001AB8EEC00A30EEC00ADFED100A20
:1003A00060EE200ABCEEE00A10EE100AC0F308006E
:1003B00000EE100A01EB8000B8EE400A90ED011A41
:1003C00070EEC00A90ED000A71EEE01A21EE800A8C
:1003D00000EE810A70470000CD024CB483F9223E42
:1003E00000000044A05E010853EA020C00F069809E
:1003F0002DE9F04B4FF00006002B1FBFB3FA83F539
:1004000003FA05F424FA05F65E4012BF1643B2FA69
:1004100082F502FA05F4C5F120051EBF22FA05FC9B
:1004200044EA0C04203556EA044C4FEA144418BF41
:10043000641C4FF000084FF00009904271EB030C70
:1004400039D3002919BFB1FA81F701FA07F6B0FADA
:1004500080F700FA07F6C7F120071EBF20FA07FC55
:1004600046EA0C062037B6FBF4FCA7EB0507103F65
:1004700007F01F0BCBF120062CFA06F60CFA0BFB4B
:1004800044BFB3460026202FA4BF5E464FF0000BAA
:100490005BEA060C08BF4FF0010B19EB0B0948EBA8
:1004A0000608ABFB027C06FB02CC0BFB03CCC01B9B
:1004B00071EB0C01C1E70B46024641464846BDE8D8
:1004C000F08B13B5084318BF4FF0FF300146AFF370
:1004D0000080BDE81C4070470B460146184600F0FE
:1004E000EDB8032A40F2308010F0030C00F01580C4
:1004F00011F8013BBCF1020F624498BF11F801CB27
:1005000000F8013B38BF11F8013BA2F1040298BF8B
:1005100000F801CB38BF00F8013B11F0030300F0F5
:10052000E480083AC0F0088051F8043B083A51F8DA
:1005300004CBA0E80810F5E7121D5CBF51F8043B9E
:1005400040F8043BAFF30080D20724BF11F8013B11
:1005500011F801CB48BF11F8012B24BF00F8013B73
:1005600000F801CB48BF00F8012B70474FF00002A4
:1005700000B5134694469646203922BFA0E80C5099
:10058000A0E80C50B1F12001BFF4F7AF090728BF74
:10059000A0E80C5048BF0CC05DF804EB890028BFF0
:1005A00040F8042B08BF704748BF20F8022B11F019
:1005B000804F18BF00F8012B704770477047704795
:1005C00070B5064C7C44064D7D4404E0204601682D
:1005D00008448047241DAC42F8D170BD2C6701004F
:1005E0003467010070B5064600F0F6F8056806F1BC
:1005F0000B0020F00704B4429CBF002070BD2B46C6
:100600006A68BAB11068A04210D304F108018842A8
:100610003CBF5068586007D3516810194160116899
:10062000091B016058601460101D70BD13465268AC
:10063000002AE7D12146284600F0DEF80028DED166
:1006400070BD70B50446051F00F0C6F80068002CA8
:1006500014BF446870BD002C18BFAC423CBF20469C
:100660006468F8D301680A18AA4218BF456003D12C
:100670002A6805461144016028684119A1421CBF3F
:100680006C6070BD6168696021680844286070BD55
:1006900010B500F0A9F8006810BD10B5044600F0D0
:1006A000A3F8046010BD10B5002000F028F9FFF792
:1006B000E1FDBDE81040012000F088B82DE9F041CF
:1006C000074615460E461020FFF78CFF04000AD09F
:1006D0006760C4E9026500F083F801682160046086
:1006E0000020BDE8F0810120FBE710B5203AC0F002
:1006F0000B80B1E81850A0E81850B1E81850A0E8F5
:100700001850203ABFF4F5AF5FEA027C24BFB1E88D
:100710001850A0E8185044BF18C918C0BDE81040D0
:100720005FEA827C24BF51F8043B40F8043B08BFD9
:100730007047D20728BF31F8023B48BF11F8012BA0
:1007400028BF20F8023B48BF00F8012B704700008B
:1007500030B44FF0013C50F8042B51F8043BCCFA74
:1007600052F4D51A20D1FCB950F8042B51F8043BAF
:10077000CCFA52F4D51A17D1B4B950F8042B51F869
:10078000043BCCFA52F4D51A0ED16CB950F8042BB4
:1007900051F8043BCCFA52F4D51A05D1002CDAD02A
:1007A00030BC4FF00000704729BAB1FA81F111F066
:1007B0001801D1F120008440F2D1CA40CB4012F0A0
:1007C000FF0213F0FF0330BCD01A70470149182014
:1007D000ABBEFEE72600020000487047480100203B
:1007E0000048704778010020004870474001002011
:1007F000704770477047704738B504460A46002076
:100800006946AFF30080002808BF38BD0246009952
:10081000204600F0A5F8012038BD012000F0E7B81F
:10082000F8B5AFF30080054600200C46102000BF4D
:100830000646A819A0420DD9324669460020AFF3FA
:100840000080070008BF00F0D2F80098A04218BF4F
:100850000546C419FFF7C0FF05600746F01D20F0EC
:1008600007004619284600F00AF8B44208BFF8BD50
:10087000A21B31463868BDE8F84000F071B800218D
:100880000160C0E901107047102070471FB584B0A7
:1008900000200A9C06AB04AA02A90094AFF30080D2
:1008A00018B1DDE9020108B010BD0348204000F096
:1008B00097F800200146F6E70000207C2DE9F04182
:1008C0000646FFF78DFF8046454613E016B1E06807
:1008D000B0420ED120682860D4E90101D8F8007038
:1008E00088472046FFF7ADFED8F80000B842EBD1AC
:1008F00000E025462C68002CE8D1BDE8F08110B559
:1009000000F056F8BDE8104000F04DB800487047C0
:100910004001002070477546FFF7F8FFAE4605001E
:100920006946534620F00700854618B020B5FFF70A
:10093000C3FCBDE820404FF000064FF000074FF029
:1009400000084FF0000BAC46ACE8C009ACE8C009A9
:10095000ACE8C009ACE8C00921F007018D4670473A
:10096000034640688C46002818BF88423CBF0346B7
:100970004068F8D318681844884207D00CF1030087
:1009800020F00700001D411A521A0146081D0A6096
:10099000FFF757BE10B50446AFF300802046BDE810
:1009A0001040FFF775BC002801D0FFF70FBF70475C
:1009B00010B5002102A000F021F8012010BD0000B8
:1009C000534947414252543A2041626E6F726D6101
:1009D0006C207465726D696E6174696F6E000000E1
:1009E00010B500F025F8BDE81040FFF7DCBF10B5EA
:1009F00000F074F8BDE81040FFF7D5BF70B50546AC
:100A00000C460A2000E06D1C00F090F835B1287803
:100A10000028F8D102E0641C00F088F814B12078B6
:100A20000028F8D1BDE870400A2000F07FB800002F
:100A300010B5022803D0410103D50DA112E000201A
:100A400010BD010101D50FA10CE0C10001D511A11C
:100A500008E0810001D512A104E0400001D513A1F6
:100A600000E0002115A0FFF7C9FF012010BD000024
:100A7000496E76616C6964204F7065726174696F4C
:100A80006E000000446976696465204279205A65E9
:100A9000726F00004F766572666C6F770000000021
:100AA000556E646572666C6F77000000496E6578FC
:100AB00061637420526573756C7400005349474636
:100AC00050453A2041726974686D657469632065A8
:100AD0007863657074696F6E3A20000010B5012864
:100AE00005D0002103A0FFF789FF012010BD09A157
:100AF000F8E7000053494752544D454D3A204F7591
:100B000074206F662068656170206D656D6F727905
:100B1000000000003A2048656170206D656D6F72BD
:100B20007920636F727275707465640008B56946E8
:100B30008DF800000320ABBE08BD000082B001901C
:100B400042F20030C4F2010000900099486820F49D
:100B500040304860019842680099486810434860F6
:100B600001980168486820F4807048600198016825
:100B70000269486840EA02204860019801684868B4
:100B800020F040704860019801688268486810430E
:100B9000486001980168886820F4006088600198C6
:100BA0000168C2688868104388600198806A0121E2
:100BB000C0F60071884219D0FFE701980168886883
:100BC00020F07060886001980168826A886810432C
:100BD000886001980168886820F04050886001981A
:100BE0000168C26A8868104388600CE00198016857
:100BF000886820F07060886001980168886820F03B
:100C000040508860FFE701980168886820F0020082
:100C100088600198027E0168886840EA4200886026
:100C2000019890F82000C8B1FFE701980168486872
:100C300040F40060486001980168486820F4604012
:100C4000486001980168426A4EF20000CFF6FF70DA
:100C500000EB423248681043486006E001980168A2
:100C6000486820F400604860FFE701980168C86A9E
:100C700020F47000C86201980168C2690020CFF6B4
:100C8000F07000EB0252C86A1043C8620198016814
:100C9000886820F400708860019890F8302001681E
:100CA000886840EA4220886001980168886820F4DA
:100CB00080608860019801684269886840EA822003
:100CC000886002B070470000FFE7FEE780B541F2A0
:100CD0007430C2F2000000F015FE80BD80B541F214
:100CE0009C30C2F2000000F00DFE80BD80B582B0E5
:100CF00001900091019801F053FA0198022100F04F
:100D000051FB0198006846F20041C4F2000188429C
:100D100007D1FFE7009841F6B441C2F20001086034
:100D200010E00198006846F60001C4F20001884214
:100D300007D1FFE7009841F6B841C2F20001086010
:100D4000FFE7FFE702B080BD80B586B00490ADF844
:100D50000E100292ADF80630BDF80E0040F22041B0
:100D6000C2F200010860BDF80E00486000208860F3
:100D7000C860BDF8060008610498029A6B4600F04E
:100D80003BFB20B1FFE700208DF8170004E0FFE7F0
:100D900001208DF81700FFE79DF8170006B080BD11
:100DA00080B58CB00B90012009900890002007902E
:100DB0000390049001900290059006900B980068B3
:100DC00046F20041C4F20001884205D1FFE70B98CA
:100DD00001A900F0C9FB11E00B98006846F600017C
:100DE000C4F20001884208D1FFE70E200A90069065
:100DF0000B9801A900F0B8FBFFE7FFE70CB080BD3E
:100E000080B541F2E440C2F2000001F0C3FA80BDB7
:100E100080B541F22440C2F2000001F0BBFA80BD6F
:100E200080B541F24450C2F2000001F0B3FA80BD37
:100E300080B541F2A450C2F2000001F0ABFA80BDCF
:100E400080B541F2C430C2F2000001F0A3FA80BDC7
:100E500080B541F28440C2F2000001F09BFA80BDEF
:100E600080B541F20460C2F2000001F093FA80BD47
:100E700082B001900198007810384AF6AB21CAF68A
:100E8000AA21A0FB011000090090009946F6B800C5
:100E9000C0F60100405C0199C8650098042807D39A
:100EA000FFE701990868042262F30900886506E0FB
:100EB0000199086840F2FF3290438865FFE7019886
:100EC000806D02B07047000086B0059000208DF85C
:100ED00013000598806A03900598806910BBFFE7AE
:100EE0000398029003281BD80299DFE801F0020D55
:100EF0000218059890F82F00C00720B1FFE70120E5
:100F00008DF81300FFE70CE00598C06AB0F1C07FD0
:100F100004D1FFE701208DF81300FFE701E000E0B6
:100F2000FFE745E005988069B0F5005F25D1FFE750
:100F30000398019003281ED80199DFE801F002060A
:100F4000021101208DF8130016E0059890F82F008B
:100F5000C00720B1FFE701208DF81300FFE70BE089
:100F60000598C06AB0F1C07F04D1FFE701208DF879
:100F70001300FFE700E0FFE719E003980090032863
:100F800004D3FFE70098032804D00EE001208DF879
:100F900013000BE0059890F82F00C00720B1FFE781
:100FA00001208DF81300FFE700E0FFE7FFE7FFE710
:100FB0009DF8130006B0704784B00390029101922F
:100FC000009303980168086820F480200860009866
:100FD00003990968486003988068402809D1FFE7B1
:100FE0000198039909688860029803990968C860A4
:100FF00008E00298039909688860019803990968D4
:10100000C860FFE704B070477047000081B0EFF39D
:10101000108072B60090FFE7FEE7000041F2242046
:10102000C2F2000000680068406A41F22021C2F26A
:1010300000010968C1EB01410844704785B0039085
:10104000029100200190FFE7039890F83C000128EE
:1010500004D1FFE702208DF8130007E10399012076
:1010600081F83C00FFE7FFE7029800680A281CD3DC
:10107000FFE70298008800EB4000A0F11E01072066
:1010800000FA01F203980168C8689043C8600299A9
:101090008868098801EB41011E3900FA01F20398C2
:1010A0000168C8681043C86018E00298008800EB27
:1010B0004001072000FA01F2039801680869904393
:1010C000086102998868098801EB410100FA01F280
:1010D00003980168086910430861FFE702984068B7
:1010E00006281BD8FFE70298406800EB8000411FEC
:1010F0001F2000FA01F203980168486B904348638F
:1011000002990888496801EB8101053900FA01F26A
:1011100003980168486B104348633DE002984068BB
:101120000C281CD8FFE70298406800EB8000A0F173
:1011300023011F2000FA01F203980168086B904315
:10114000086302990888496801EB8101233900FA94
:1011500001F203980168086B104308631BE00298D2
:10116000406800EB8000A0F141011F2000FA01F26D
:1011700003980168C86A9043C86202990888496860
:1011800001EB8101413900FA01F203980168C86A54
:101190001043C862FFE7FFE742F20030C4F20100EB
:1011A00000900398006842F20001C4F201018842F5
:1011B00010D1FFE70298006812280BD1FFE70099D1
:1011C000486820F4000048600099486840F48000B6
:1011D0004860FFE70398006842F20001C4F2010191
:1011E000884239D1FFE7029800681221C1F200015C
:1011F000884205D0FFE70298006811282CD1FFE74C
:101200000099486820F4800048600099486840F4DC
:1012100000004860029800681221C1F20001884273
:1012200019D1FFE740F20010C2F2000000684DF64D
:101230008361C4F21B31A0FB0110800C00EB800025
:1012400040000190FFE7019820B1FFE701980138C5
:101250000190F8E7FFE7FFE7FFE70399002081F837
:101260003C00FFE700208DF81300FFE79DF8130016
:1012700005B0704780B584B0029000208DF807005B
:10128000029820B9FFE701208DF80F0042E0029894
:10129000806A0121C0F60071884201D0FFE7FFE7B4
:1012A0000298006C50B9FFE7029800F037F80299F5
:1012B00000204864029981F83C00FFE70298006C26
:1012C000C006002817D4FFE70298006C40F0020027
:1012D00020F48850029908640298FFF72FFC0299C5
:1012E000002048640298006C40F0010020F00200E9
:1012F0000299086403E001208DF80700FFE7FFE78B
:101300000299002081F83C00FFE79DF807008DF866
:101310000F00FFE79DF80F0004B080BD80B588B0D6
:101320000790002006900590049003900290079883
:10133000006842F20001C4F2010188422FD1FFE7A8
:10134000FFE70020019043F64400C4F20200016868
:1013500041F480710160006800F480700190019890
:10136000FFE7FFE70020009043F63000C4F20200E0
:10137000016841F001010160006800F00100009087
:101380000098FFE740200290032003900020049083
:101390000020C4F2020002A901F0C8FAFFE708B079
:1013A00080BD000084B002900191029890F8200066
:1013B0008DF803009DF80300012805D0FFE79DF894
:1013C000030002280AD1FFE7019A029801684869E0
:1013D0001043486100208DF80F0008E00299486A28
:1013E00040F48020486201208DF80F00FFE79DF84F
:1013F0000F0004B07047000088B006900591049279
:101400000393069890F820008DF80700069800686E
:10141000806800900598806808B9FFE700E0FFE762
:101420009DF80700012806D0FFE79DF80700022875
:1014300040F08D80FFE79DF80300400700280CD4A2
:10144000FFE79DF803000007002806D4FFE79DF89A
:101450000300C006002871D5FFE70098C0F30160C3
:1014600002900298032809D3FFE70699486A40F4DE
:101470000000486201208DF81F0071E002990120F0
:101480008840039908600598806868B9FFE7059867
:101490000168C06840EA415006990968029A01EB68
:1014A0000211C1F880010EE005994A688868C96890
:1014B00040EAC200084306990968029A01EB02114A
:1014C000C1F88001FFE70598006906990968029A4A
:1014D00001EB0211C1F884010598007D01280CD1AF
:1014E000FFE706980068029900EB0111D1F884012A
:1014F00040F48070C1F88401FFE7049840680699C1
:101500000968029A01EB0211C1F88C010498006885
:1015100006990968029A01EB0211C1F88801069840
:101520000068029900EB0111D1F8800140F0010040
:10153000C1F8800100208DF81F0011E00699486A6B
:1015400040F40010486201208DF81F0008E0069961
:10155000486A40F48020486201208DF81F00FFE7B0
:101560009DF81F0008B0704786B00490039104985E
:1015700000680190049890F820008DF803009DF811
:101580000300012806D0FFE79DF80300022840F081
:10159000B080FFE746F20040C4F2000001900199DC
:1015A000D1F8000240F00100C1F800020199D1F821
:1015B000000220F47C50C1F800020398426A0199AD
:1015C000D1F8000240EA0220C1F800020398406905
:1015D00000F01F01012088400290029A0199D1F881
:1015E0001C029043C1F81C020398C069F0B9FFE7E0
:1015F000029A0199D1F80C029043C1F80C02039AA7
:101600009088D168526940EA0140019901EBC2011A
:10161000C1F84002039A10889168526940EA01407B
:10162000019901EBC201C1F84402FFE70398C069C8
:1016300001281ED1FFE7029A0199D1F80C0210434C
:10164000C1F80C02039A90881168526940EA01407F
:10165000019901EBC201C1F84002039A9089916897
:10166000526940EA0140019901EBC201C1F844020C
:10167000FFE70398806940B9FFE7029A0199D1F822
:1016800004029043C1F8040207E0029A0199D1F8DC
:1016900004021043C1F80402FFE70398006940B94F
:1016A000FFE7029A0199D1F814029043C1F814029D
:1016B00007E0029A0199D1F814021043C1F814020C
:1016C000FFE70398006A012808D1FFE7029A019911
:1016D000D1F81C021043C1F81C02FFE70199D1F8B0
:1016E000000220F00100C1F8000200208DF8170070
:1016F00008E00499486A40F48020486201208DF88F
:101700001700FFE79DF8170006B0704781B0009002
:1017100001B0704786B0049003910292019304983F
:1017200090F820008DF803009DF80300012806D0F2
:10173000FFE79DF80300022840F0D780FFE70398F9
:1017400080B9FFE704980068C068800748B9FFE7E0
:101750000499486A40F40010486201208DF817008F
:10176000CCE00FE0049800680069800748B9FFE703
:101770000499486A40F40010486201208DF817006F
:10178000BCE0FFE704980068039900EB0110D0F873
:10179000B00100F00400029988600298806858B98E
:1017A000FFE704980068039900EB0110D0F8B0013E
:1017B000400D029908600AE004980068039900EB64
:1017C0000110D0F8B001C00802994860FFE7049802
:1017D0000068039900EB0110D0F8B00100F002009E
:1017E0000299C86004980068039900EB0110D0F8D2
:1017F000B40100F00F000299086104980068039991
:1018000000EB0110D0F8B40180B2000A029988619F
:1018100004980068039900EB0110D0F8B401000CA3
:101820000299486104980068039900EB0110D0F810
:10183000B8010199087004980068039900EB011041
:10184000D0F8B801000A019948700498006803991B
:1018500000EB0110D0F8B801000C019988700498D1
:101860000068039900EB0110D0F8B801000E01994F
:10187000C87004980068039900EB0110D0F8BC010F
:101880000199087104980068039900EB0110D0F8E1
:10189000BC01000A0199487104980068039900EBA3
:1018A0000110D0F8BC01000C0199887104980068FF
:1018B000039900EB0110D0F8BC01000E0199C8712A
:1018C000039838B9FFE704980168C86840F0200021
:1018D000C86006E004980168086940F020000861CB
:1018E000FFE700208DF8170008E00499486A40F4EB
:1018F0008020486201208DF81700FFE79DF817004F
:1019000006B0704780B58AB0099000200890099809
:101910000068406907900998006840680690099837
:1019200000688068059009980068C068049009986C
:1019300000680069039009980068806902909DF82A
:101940001C00C007002800F09480FFE79DF81400F9
:10195000C00758B3FFE709980168012088609DF827
:1019600014008007002804D5FFE7099800F062FC06
:101970001BE09DF814004007002805D5FFE70898F4
:1019800040F4006008900FE09DF814000007002864
:1019900005D5FFE7089840F48050089003E00998C7
:1019A00000F044FCFFE7FFE7FFE7FFE79DF81500C5
:1019B000C00760B3FFE7099801684FF48070886042
:1019C0009DF815008007002804D5FFE7099800F06E
:1019D00039FC1BE09DF815004007002805D5FFE7FE
:1019E000089840F4005008900FE09DF8150000079B
:1019F000002805D5FFE7089840F48040089003E0F0
:101A0000099800F01BFCFFE7FFE7FFE7FFE79DF801
:101A10001600C00760B3FFE7099801684FF48030F3
:101A200088609DF816008007002804D5FFE7099814
:101A300000F010FC1BE09DF816004007002805D5BB
:101A4000FFE7089840F4004008900FE09DF816006A
:101A50000007002805D5FFE7089840F4803008907B
:101A600003E0099800F0F2FBFFE7FFE7FFE7FFE77D
:101A7000FFE79DF81C000007002810D5FFE79DF840
:101A80001000C006002809D5FFE7089840F4007050
:101A90000890099801681020C860FFE7FFE79DF8EB
:101AA0001C00400700280FD5FFE79DF81000000735
:101AB000002808D5FFE7099801680820C860099840
:101AC00000F0CEFAFFE7FFE79DF81C008007002832
:101AD0000BD5FFE709980068C068800720B1FFE7D1
:101AE000099800F0C1FAFFE7FFE79DF81C004006E7
:101AF000002810D5FFE79DF80C00C006002809D586
:101B0000FFE7089840F48060089009980168102069
:101B10000861FFE7FFE79DF81C00800600280FD54D
:101B2000FFE79DF80C000007002808D5FFE709989B
:101B3000016808200861099800F0E0FAFFE7FFE774
:101B40009DF81C00C00600280BD5FFE70998006827
:101B50000069800720B1FFE7099800F0D3FAFFE79A
:101B6000FFE79DF81E00800700280FD5FFE79DF8CE
:101B70001800C006002808D5FFE709980168102062
:101B80004860099800F008FBFFE7FFE79DF81E009A
:101B9000C00778B1FFE79DF818000007002808D5B6
:101BA000FFE70998016808204860099800F056FB93
:101BB000FFE7FFE79DF81D000006002840F18D803B
:101BC000FFE79DF818004007002840F18180FFE7FB
:101BD0009DF81D00C00750B1FFE79DF80800C00741
:101BE00028B1FFE7089840F001000890FFE79DF852
:101BF0001D00800700280BD5FFE79DF8080080072F
:101C0000002805D5FFE7089840F002000890FFE79C
:101C10009DF81D00400700280BD5FFE79DF8080040
:101C20004007002805D5FFE7089840F00400089019
:101C3000FFE79DF81D000007002848D5FFE79DF845
:101C4000080010F0700F42D0FFE7029800F070001B
:101C500001460191102814D0FFE70198202815D0E3
:101C6000FFE70198302816D0FFE70198402817D0E9
:101C7000FFE70198502818D0FFE70198602819D095
:101C80001DE0089840F00800089019E0089840F01E
:101C90001000089014E0089840F0200008900FE031
:101CA000089840F0400008900AE0089840F0800052
:101CB000089005E0089840F48070089000E0FFE785
:101CC00009980168886920F070008861FFE7FFE7E4
:101CD0000998016804204860FFE7089848B1FFE7C9
:101CE000089A0999486A104348620998FFF70EFD5F
:101CF000FFE70AB080BD000080B584B00290029872
:101D000020B9FFE701208DF80F00E0E0029890F87D
:101D1000200020B9FFE7029800F0DEF8FFE7029804
:101D20000168086840F00100086001F03BF801908C
:101D3000FFE7029800684068C007A8B9FFE701F014
:101D400031F80199401A0B280DD3FFE70299486A30
:101D500040F4003048620299052081F820000120FB
:101D60008DF80F00B3E0E4E702980168086820F0FE
:101D70000200086001F016F80190FFE70298006881
:101D800040688007002815D5FFE701F00BF801999E
:101D9000401A0B280DD3FFE70299486A40F400303F
:101DA00048620299052081F8200001208DF80F007B
:101DB0008DE0E3E70298007E012807D1FFE7029853
:101DC0000168086840F08000086006E00298016839
:101DD000086820F080000860FFE70298407E012834
:101DE00007D1FFE702980168086840F040000860EA
:101DF00006E002980168086820F040000860FFE7EC
:101E00000298807E012807D1FFE7029801680868E0
:101E100040F02000086006E002980168086820F0A1
:101E200020000860FFE70298C07E012807D1FFE785
:101E300002980168086820F01000086006E0029827
:101E40000168086840F010000860FFE70298007F12
:101E5000012807D1FFE702980168086840F00800F0
:101E6000086006E002980168086820F00800086031
:101E7000FFE70298407F012807D1FFE70298016839
:101E8000086840F00400086006E0029801680868ED
:101E900020F004000860FFE7029B19685A68986800
:101EA000D3F80CC040EA0C00D3F810C040EA0C0094
:101EB0005B691843013A1043C861029900204862E7
:101EC000029A012182F820108DF80F00FFE79DF89B
:101ED0000F0004B080BD000080B590B00F900020CE
:101EE0000E900D900C900B900A900F98006846F29F
:101EF0000041C4F20001884249D1FFE741F20420C9
:101F0000C2F200000168013101600068012812D1AD
:101F1000FFE7FFE70020099043F64000C4F202000B
:101F2000016841F000710160006800F000700990E4
:101F30000998FFE7FFE7FFE70020089043F630002D
:101F4000C4F20200016841F008010160006800F07D
:101F5000080008900898FFE703200A9002210B91DF
:101F6000002103910C910D9009200E9040F6004045
:101F7000C4F202000AA900F0D9FC039A14200490CC
:101F8000062100F0EFFF049800F0E2FF65E00F98F3
:101F9000006846F60001C4F2000188425CD1FFE708
:101FA000FFE70020079043F64000C4F202000168FA
:101FB00041F080610160006800F080600790079840
:101FC000FFE741F20420C2F2000001680131016024
:101FD0000068012812D1FFE7FFE70020069043F6D2
:101FE0004000C4F20200016841F000710160006825
:101FF00000F0007006900698FFE7FFE7FFE700207B
:10200000059043F63000C4F20200016841F002017D
:102010000160006800F0020005900598FFE74FF4AA
:1020200040500A9002200B90002001900C90032059
:102030000D9009200E9040F20040C4F202000AA95F
:1020400000F074FC019A40200290062100F08AFF03
:10205000029800F07DFFFFE7FFE710B080BD0000B1
:1020600081B0009001B0704780B582B001900198B6
:10207000006846F20041C4F20001884219D1FFE72E
:10208000019841F2B413C2F2000303F10C020021E3
:10209000FFF740FB012801D1FFE7FFE741F6B4401D
:1020A000C2F20000016841F2B410C2F20000884799
:1020B00022E00198006846F60001C4F2000188425F
:1020C00019D1FFE7019841F2B413C2F2000303F102
:1020D0000C020021FFF71EFB012801D1FFE7FFE7FB
:1020E00041F6B840C2F20000016841F2B410C2F2F9
:1020F00000008847FFE7FFE702B080BD81B0009095
:1021000001B0704780B582B001900198006846F236
:102110000041C4F20001884219D1FFE7019841F261
:10212000DC13C2F2000303F10C020121FFF7F2FA03
:10213000012801D1FFE7FFE741F6B440C2F20000F9
:10214000016841F2DC10C2F20000884722E00198E9
:10215000006846F60001C4F20001884219D1FFE789
:10216000019841F2DC13C2F2000303F10C020121D9
:10217000FFF7D0FA012801D1FFE7FFE741F6B840A9
:10218000C2F20000016841F2DC10C2F20000884790
:10219000FFE7FFE702B080BD81B0009001B070475B
:1021A00080B584B00290029890F8200001282FD1C9
:1021B000FFE70299022081F8200002980168086870
:1021C00020F00100086000F0EDFD0190FFE70298AB
:1021D00000684068C007A8B1FFE700F0E3FD01997F
:1021E000401A0B280DD3FFE70299486A40F40030EB
:1021F00048620299052081F8200001208DF80F0027
:102200000FE0E4E70299002048628DF80F0008E033
:102210000299486A40F40020486201208DF80F00BE
:10222000FFE79DF80F0004B080BD000081B0009072
:1022300001B0704781B0009001B0704781B000904C
:1022400001B0704781B0009001B0704781B000903C
:1022500001B0704781B0009001B0704781B000902C
:1022600001B0704780B584B002900298806D0190F3
:1022700000F098FD0090029890F8350002280DD0EB
:10228000FFE7029980204865FFE70299002081F866
:102290003400FFE701208DF80F0055E00298016837
:1022A000086820F01600086002980168486920F06C
:1022B000800048610298006C20B9FFE70298806CAA
:1022C00038B1FFE702980168086820F0080008604C
:1022D000FFE702980168086820F001000860FFE746
:1022E000029800680068C007C8B1FFE700F05AFD17
:1022F0000099401A062811D3FFE70299202048656B
:102300000299032081F83500FFE70299002081F847
:102310003400FFE703208DF80F0015E0E0E7029896
:10232000C16D3F208840019988600299012081F8A1
:102330003500FFE70299002081F83400FFE7FFE74E
:1023400000208DF80F00FFE79DF80F0004B080BD5E
:1023500082B00090009890F83500022807D0FFE77F
:1023600000998020486501208DF807000EE0009953
:10237000052081F8350000980168086820F0010008
:102380000860FFE700208DF80700FFE79DF80700D1
:1023900002B0704780B586B005900020039040F2EF
:1023A0000010C2F20000006848F2B511C1F64E31CB
:1023B000A0FB0110800A02900598806D01900198A1
:1023C0000068049004980599C96DC840000700286A
:1023D0001AD5FFE70598006800684007002812D565
:1023E000FFE705980168086820F004000860059878
:1023F000C16D08208840019988600599486D40F0BA
:1024000001004865FFE7FFE704980599C96DC840DA
:10241000C007A0B1FFE705980068406900060028E2
:102420000CD5FFE70598C16D0120884001998860AF
:102430000599486D40F002004865FFE7FFE7049802
:102440000599C96DC8404007002814D5FFE70598D5
:1024500000680068800700280CD5FFE70598C16D6B
:1024600004208840019988600599486D40F0040077
:102470004865FFE7FFE704980599C96DC840C006A5
:10248000002847D5FFE70598006800680007002886
:102490003FD5FFE70598C16D1020884001998860FD
:1024A000059800680068400300281AD5FFE70598E2
:1024B000006800680003002809D4FFE70598006C55
:1024C00020B1FFE70598016C8847FFE708E0059811
:1024D000806C20B1FFE70598816C8847FFE7FFE734
:1024E00016E0059800680068C005002807D4FFE7DB
:1024F00005980168086820F008000860FFE7059863
:10250000006C20B1FFE70598016C8847FFE7FFE703
:10251000FFE7FFE704980599C96DC84080060028C9
:1025200040F18D80FFE7059800680068C00600282C
:1025300040F18480FFE70598C16D20208840019913
:102540008860059890F83500052834D1FFE7059894
:102550000168086820F0160008600598016848695D
:1025600020F0800048610598006C20B9FFE70598CD
:10257000806C38B1FFE705980168086820F0080012
:102580000860FFE70598C16D3F2088400199886089
:102590000599012081F83500FFE70599002081F8B1
:1025A0003400FFE70598006D20B1FFE70598016D45
:1025B0008847FFE77BE00598006800684003002833
:1025C0001AD5FFE70598006800680003002809D4C1
:1025D000FFE70598406C20B1FFE70598416C8847FC
:1025E000FFE708E00598C06B20B1FFE70598C16BD5
:1025F0008847FFE7FFE720E0059800680068C0050E
:10260000002811D4FFE705980168086820F0100041
:1026100008600599012081F83500FFE70599002041
:1026200081F83400FFE7FFE70598C06B20B1FFE7B2
:102630000598C16B8847FFE7FFE7FFE7FFE70598CD
:10264000406DA0B3FFE70598406DC00730B3FFE7CA
:102650000599052081F8350005980168086820F083
:1026600001000860FFE70398013003900299884257
:1026700001D9FFE707E0FFE7059800680068C00799
:102680000028F0D1FFE70599012081F83500FFE728
:102690000599002081F83400FFE7FFE70598C06C3A
:1026A00020B1FFE70598C16C8847FFE7FFE706B058
:1026B00080BD000080B586B004900020039000F03B
:1026C00071FB0290049820B9FFE701208DF81700F4
:1026D000A3E00498406A08B1FFE7FFE704990220ED
:1026E00081F83500FFE70499002081F83400FFE706
:1026F00004980168086820F001000860FFE704986A
:1027000000680068C00790B1FFE700F04BFB02993A
:10271000401A06280AD3FFE7049920204865049947
:10272000032081F835008DF8170076E0E7E704987C
:10273000006800680390039848F23F01CFF210014F
:1027400008400390049900914868D1F808C0CB680C
:102750000A6940EA0C00184310434A6910438A6929
:102760001043CA691043096A014303980843039060
:102770000498406A042808D1FFE70499C86A096BE5
:102780000143039808430390FFE7039804990968FD
:1027900008600498006840690390039820F00700DF
:1027A00003900498416A0398084303900498406A90
:1027B00004281AD1FFE70498816A0398084303901C
:1027C0000498C06A80B1FFE70498FEF77DFB50B122
:1027D000FFE70499402048650499012081F83500FD
:1027E0008DF8170019E0FFE7FFE7039804990968DF
:1027F00048610498FEF73CFB01900498C16D3F20AE
:10280000884001998860049900204865049A012154
:1028100082F835108DF81700FFE79DF8170006B015
:1028200080BD000080B588B00690059104920393A6
:1028300000208DF80B000698806D0190FFE7069848
:1028400090F83400012804D1FFE702208DF81F0022
:1028500045E00699012081F83400FFE7FFE706987C
:1028600090F8350001282BD1FFE70699022081F866
:10287000350006990020486506980599049A039B3F
:10288000FEF79AFB0698C16D3F2088400199886049
:1028900006980168086840F0160008600698006C09
:1028A00038B1FFE706980168086840F00800086042
:1028B000FFE706980168086840F00100086009E039
:1028C000FFE70699002081F83400FFE702208DF829
:1028D0000B00FFE79DF80B008DF81F00FFE79DF848
:1028E0001F0008B080BD000080B584B0039000F0E8
:1028F00059FA0290039801900198013048B1FFE71E
:1029000040F23510C2F200000178019808440190AD
:10291000FFE7FFE700F046FA0299401A0199884262
:1029200001D2FFE7F6E704B080BD000090B00F9041
:102930000E9100200C900B900A900D90FFE70D98DF
:102940000F2800F2E881FFE70D99012088400C90E4
:102950000E9800680C9908400B900B980C998842CF
:1029600040F0D481FFE70E98406800F00300012892
:1029700007D0FFE70E98406800F0030002282FD12F
:10298000FFE70F9880680A900D984100032000FA35
:1029900001F10A9888430A900E98C0680D99490081
:1029A00000FA01F10A9808430A900A980F99886082
:1029B0000F9840680A900D99012000FA01F10A98D9
:1029C00088430A900E984068C0F300100D9900FAF1
:1029D00001F10A9808430A900A980F994860FFE7A6
:1029E0000E98406800F00300032818D0FFE70F9806
:1029F000C0680A900D984100032000FA01F10A987E
:102A000088430A900E9880680D99490000FA01F1F8
:102A10000A9808430A900A980F99C860FFE70E9831
:102A2000406800F00300022826D1FFE70F980D99B7
:102A30006FF0030202EA51010844006A0A900D98FF
:102A400000F0070081000F2000FA01F10A98884386
:102A50000A900E9800690D9901F00701890000FAAB
:102A600001F10A9808430A900A980F990D9B02EA0F
:102A7000530211440862FFE70F9800680A900D980E
:102A80004100032000FA01F10A9888430A900E9849
:102A9000406800F003000D99490000FA01F10A981E
:102AA00008430A900A980F9908600E988079800769
:102AB000002800F02A81FFE7FFE70020099043F695
:102AC0004400C4F20200016841F4804101600068E2
:102AD00000F4804009900998FFE70D9820F003006A
:102AE00043F60801C4F2010140580A900D9800F025
:102AF000030081000F2000FA01F10A9888430A9030
:102B00000F980021C4F20201884203D1FFE70020A0
:102B100008907AE00F9840F20041C4F20201884226
:102B200003D1FFE7012007906CE00F9840F6000109
:102B3000C4F20201884203D1FFE7022006905EE062
:102B40000F9840F60041C4F20201884203D1FFE72A
:102B50000320059050E00F9841F20001C4F20201F9
:102B6000884203D1FFE70420049042E00F9841F22D
:102B70000041C4F20201884203D1FFE7052003901F
:102B800034E00F9841F60001C4F20201884203D1FB
:102B9000FFE70620029026E00F9841F60041C4F2BC
:102BA0000201884203D1FFE70720019018E00F9847
:102BB00042F20001C4F20201884203D1FFE708207B
:102BC00000900AE00F9942F20042C4F202020A2089
:102BD000914208BF09200090FFE700980190FFE7AD
:102BE00001980290FFE702980390FFE70398049092
:102BF000FFE704980590FFE705980690FFE7069821
:102C00000790FFE707980890FFE70898C0B20D9972
:102C100001F00301890000FA01F10A9808430A90C3
:102C20000A980D9921F0030143F60802C4F201024B
:102C3000885043F60840C4F2010000680A900B99DE
:102C40000A9888430A900E988079C006002805D516
:102C5000FFE70B990A9808430A90FFE70A9843F6A2
:102C60000841C4F20101086043F60C40C4F20100BF
:102C700000680A900B990A9888430A900E98807908
:102C80008006002805D5FFE70B990A9808430A90AB
:102C9000FFE70A9843F60C41C4F20101086043F6CD
:102CA0000440C4F2010000680A900B990A98884316
:102CB0000A900E9880798007002805D5FFE70B99C8
:102CC0000A9808430A90FFE70A9843F60441C4F2C1
:102CD0000101086043F60040C4F2010000680A9058
:102CE0000B990A9888430A900E988079C00728B1FA
:102CF000FFE70B990A9808430A90FFE70A9843F602
:102D00000041C4F201010860FFE7FFE7FFE70D980B
:102D100001300D9013E610B07047000082B00190B2
:102D2000ADF8021001980069BDF80210084204D005
:102D3000FFE701208DF8010003E000208DF801007D
:102D4000FFE79DF8010002B07047000083B00290D9
:102D5000ADF80610029840690090009ABDF8060090
:102D600002EA0001904340EA01400299886103B001
:102D70007047000082B00190ADF802108DF801207C
:102D80009DF8010028B1FFE7BDF8020001998861B4
:102D900005E0BDF80200000401998861FFE702B078
:102DA0007047000045F6E010C2F20000006870476E
:102DB00040F23510C2F20000027845F6E011C2F28E
:102DC00000010868104408607047000080B582B0B8
:102DD00043F60041C4F20201086840F40070086044
:102DE000086840F480600860086840F480700860FB
:102DF000032000F0D1F80020019000F005F800F069
:102E00007BF8019802B080BD80B58CB00B9000209B
:102E100004900390FFE70020009043F64000C4F2C6
:102E20000200016841F010010160006800F010002C
:102E300000900098FFE706A802A900F019FC099885
:102E40000490049820B9FFE700F042FC059004E0EC
:102E500000F03EFC40000590FFE705984DF68361C9
:102E6000C4F21B31A0FB01014FF0FF3000EB914099
:102E7000039041F63010C2F2000041F20001C4F2AA
:102E80000001016040F2E731C16003994160002117
:102E900001618160816101F0B5FF8DF807009DF847
:102EA000070028BBFFE741F63010C2F2000002F035
:102EB00031F98DF807009DF80700C0B9FFE736200B
:102EC00000F046F80B980F280CD8FFE70B99362036
:102ED000002200F047F80B9840F23811C2F20001CE
:102EE000086003E001208DF80700FFE7FFE7FFE738
:102EF0009DF807000CB080BD80B582B0FFE70020D0
:102F0000019043F64400C4F20200016841F480419C
:102F10000160006800F4804001900198FFE7FFE73E
:102F20000020009043F64000C4F20200016841F026
:102F300080510160006800F0805000900098FFE729
:102F40006FF001000F21002200F00CF802B080BDEC
:102F500080B582B08DF807009DF907000CF038FFAE
:102F600002B080BD80B586B08DF817000491039241
:102F7000002002900CF044FF02909DF91700019090
:102F800002980499039A04F02BFA014601980CF078
:102F90003FFF06B080BD000080B582B0019001986F
:102FA0000CF058FF02B080BD0CF072FF80B582B00B
:102FB00001200190019880F31388FFF7F5FF02B01C
:102FC00080BD000080B543F61440C4F201000068E3
:102FD000C00300280AD5FFE7FFF7E8FF43F61441D6
:102FE000C4F201014FF480300860FFE780BD0000AB
:102FF00080B586B004900020039002900498007879
:10300000C00770B9FFE70498006800F002000228CA
:1030100007D0FFE7049800784006002840F18F8031
:10302000FFE76821C4F2472100200860FFF7BAFEDD
:103030000390FFE743F60000C4F20200006800F0CE
:1030400000610020B0EBD16F0CD0FFE7FFF7AAFEC4
:103050000399401A032804D3FFE703208DF81700D3
:10306000D0E1E7E704980078C00760B1FFE7049972
:1030700048688968800140EA017043F68401C4F21F
:1030800002010860FFE704980078800700281FD538
:10309000FFE743F68401C4F202010868C0F302703E
:1030A0000290049A5068D268800140EA0260029A55
:1030B00040EA0270086043F68C01C4F2020108681D
:1030C00020F01F00049AD269013A10430860FFE71C
:1030D00004980078400600280FD5FFE7049A50684E
:1030E0009168D268800140EA026040EA017043F6CC
:1030F0008401C4F202010860FFE76821C4F247219D
:1031000001200860FFF74EFE0390FFE743F6000042
:10311000C4F20200006800F000610020B0EBD16F43
:103120000CD1FFE7FFF73EFE0399401A032804D3B2
:10313000FFE703208DF8170064E1E7E7FFE7049855
:10314000006800F00400042807D0FFE70498007826
:103150000007002840F19080FFE77021C4F247216A
:1031600000200860FFF71EFE0390FFE743F6000013
:10317000C4F20200006800F000510020B0EB517F63
:103180000CD0FFE7FFF70EFE0399401A032804D383
:10319000FFE703208DF8170034E1E7E70498007893
:1031A0004007002822D5FFE743F68801C4F2020158
:1031B0000868C0F302700290049A10695269800195
:1031C00040EA0260029A40EA0270086043F68C010D
:1031D000C4F20201086820F4F850049A136A6FF0F0
:1031E000FF0202EB032210430860FFE70498007817
:1031F000000700281ED5FFE743F68801C4F202014C
:103200000868C0F303600290049A10699269800113
:10321000029B40EA036040EA0270086043F68C01BA
:10322000C4F20201086820F44030049A526A104344
:103230000860FFE77021C4F2472101200860FFF712
:10324000B1FD0390FFE743F60000C4F202000068FE
:1032500000F000510020B0EB517F0CD1FFE7FFF7E9
:10326000A1FD0399401A032804D3FFE703208DF83A
:103270001700C7E0E7E7FFE704980078800600281A
:1032800040F1AD80FFE7FFE70020019043F64000EA
:10329000C4F20200016841F080510160006800F052
:1032A000805001900198FFE747F20001C4F200014D
:1032B000086840F480700860FFF774FD0390FFE732
:1032C00047F20000C4F200000068C00500280CD4DA
:1032D000FFE7FFF767FD0399401A032804D3FFE7D0
:1032E00003208DF817008DE0EAE743F67000C4F282
:1032F0000200006800F440700290029800283ED05E
:10330000FFE702980499896A01F44071884236D037
:10331000FFE743F67000C4F20200016821F4407137
:10332000029140F64062C4F247220121116000215F
:103330001160029901600068C007F8B1FFE7FFF76C
:1033400031FD0390FFE743F67000C4F2020000680D
:1033500000F002010020B0EB510F0ED1FFE7FFF7A4
:1033600021FD0399401A41F28931884204D3FFE7D5
:1033700003208DF8170045E0E5E7FFE7FFE7FFE7EB
:103380000498806A00F44070B0F5407F11D1FFE7E7
:1033900043F60801C4F20201086820F4F810049A08
:1033A000926A4FF6FF43C0F6FF731A40104308605D
:1033B00008E043F60801C4F20201086820F4F8109E
:1033C0000860FFE70498826A6FF31F3243F67001CA
:1033D000C4F20201086810430860FFE7FFE70498A1
:1033E0000078C006002809D5FFE7049890F82C0063
:1033F00041F2E011C4F247210860FFE700208DF898
:103400001700FFE79DF8170006B080BD80B584B0B7
:1034100002900191029820B9FFE701208DF80F007A
:1034200021E1019843F60041C4F20201096801F06C
:103430000F01884212D9FFE7019943F60040C4F218
:1034400002000170006800F00F000199884204D06A
:10345000FFE701208DF80F0005E1FFE702980078F3
:10346000800700282AD5FFE7029800784007002847
:1034700009D5FFE743F60801C4F20201086840F4E9
:10348000E0500860FFE7029800780007002809D59F
:10349000FFE743F60801C4F20201086840F4604007
:1034A0000860FFE743F60801C4F20201086820F053
:1034B000F000029A926810430860FFE702980078D3
:1034C000C00700286ED0FFE702984068012811D19C
:1034D000FFE743F60000C4F20200006800F4003188
:1034E0000020B0EB514F04D1FFE701208DF80F0011
:1034F000B9E02CE002984068022805D0FFE7029866
:103500004068032811D1FFE743F60000C4F202002F
:10351000006800F000710020B0EB516F04D1FFE7AC
:1035200001208DF80F009EE010E043F60000C4F289
:103530000200006800F002010020B0EB510F04D13E
:10354000FFE701208DF80F008DE0FFE7FFE743F66E
:103550000801C4F20201086820F00300029A5268D0
:1035600010430860FFF71EFC0090FFE743F60800D9
:10357000C4F20200006800F00C0002994968B0EB48
:10358000810F0ED0FFE7FFF70DFC0099401A41F2C2
:103590008931884204D3FFE703208DF80F0062E0F1
:1035A000E4E7FFE7019843F60041C4F2020109682D
:1035B00001F00F01884212D2FFE7019943F6004063
:1035C000C4F202000170006800F00F000199884207
:1035D00004D0FFE701208DF80F0044E0FFE70298D8
:1035E0000078400700280CD5FFE743F60801C4F235
:1035F0000201086820F4E050029AD2681043086083
:10360000FFE702980078000700280DD5FFE743F692
:103610000801C4F20201086820F46040029A1269AD
:1036200040EAC2000860FFE700F076F843F60801C0
:10363000C4F202010968C9B20A0946F6A001C0F63F
:103640000101895CC84040F20011C2F2000108602B
:1036500040F23810C2F200000068FFF7D5FB0020EE
:103660008DF80F00FFE79DF80F0004B080BD00004B
:1036700082B00190009101990F20086043F6080084
:10368000C4F20200016801F00301019A516001686F
:1036900001F0F001019A9160016801F4E051019A92
:1036A000D160006800F46040C0080199086143F6E9
:1036B0000040C4F20200006800F00F0000990860AA
:1036C00002B0704740F20010C2F20000006870477C
:1036D00080B5FFF7F7FF43F60801C4F2020109685D
:1036E000C1F3822246F6B001C0F60101895CC840F0
:1036F00080BD000080B5FFF7E5FF43F60801C4F286
:103700000201096889B24A0B46F6B001C0F6010110
:10371000895CC84080BD000080B586B0002005905F
:1037200004900390029043F60800C4F2020000687F
:1037300000F00C000146019140B1FFE70198042818
:103740000AD0FFE7019808280CD04FE042F2004071
:10375000C0F2F40002904FE041F60030C0F2B70032
:10376000029049E043F60400C4F20200016801F04F
:103770003F01059100684002002813D5FFE743F69A
:103780000400C4F202000068C0F3881041F6003162
:10379000C0F2B701A0FB0101059A0023FCF724FE4B
:1037A000049012E043F60400C4F202000068C0F383
:1037B000881042F20041C0F2F401A0FB0101059A19
:1037C0000023FCF711FE0490FFE743F60400C4F267
:1037D0000200006800F44031022000EBD130039079
:1037E00004980399B0FBF1F0029005E042F200402A
:1037F000C0F2F4000290FFE7029806B080BD00001E
:1038000080B586B00490049820B9FFE701208DF8B8
:10381000170050E304980078C007002800F0A58046
:10382000FFE743F60800C4F20200006800F00C0055
:10383000042813D0FFE743F60800C4F20200006832
:1038400000F00C0008281ED1FFE743F60400C4F284
:10385000020000684002002815D5FFE743F600008B
:10386000C4F20200006800F400310020B0EB514FB8
:1038700008D0FFE70498406820B9FFE701208DF8E1
:10388000170018E370E0FFE704984068B0F5803F48
:1038900009D1FFE743F60001C4F20201086840F4D1
:1038A0008030086020E004984068B0F5A02F0DD16A
:1038B000FFE743F60001C4F20201086840F48020EB
:1038C0000860086840F4803008600CE043F60001AE
:1038D000C4F20201086820F480300860086820F40F
:1038E00080200860FFE7FFE7FFE704984068E8B141
:1038F000FFE7FFF757FA0390FFE743F60000C4F233
:103900000200006800F400310020B0EB514F0CD1F0
:10391000FFE7FFF747FA0399401A652804D3FFE74A
:1039200003208DF81700C6E2E7E71CE0FFF73AFA3C
:103930000390FFE743F60000C4F20200006800F4C1
:1039400000310020B0EB514F0CD0FFE7FFF72AFA0F
:103950000399401A652804D3FFE703208DF8170068
:10396000A9E2E7E7FFE7FFE7FFE7049800788007B1
:10397000002840F19680FFE743F60800C4F20200F9
:10398000006810F00C0F13D0FFE743F60800C4F2F4
:103990000200006800F00C0008282CD1FFE743F675
:1039A0000400C4F2020000684002002823D4FFE7AC
:1039B00043F60000C4F20200006800F0020100209B
:1039C000B0EB510F09D0FFE70498C068012804D07C
:1039D000FFE701208DF817006DE243F60001C4F205
:1039E0000201086820F0F800049A126940EAC20057
:1039F0000860FFE754E00498C06870B3FFE7002157
:103A0000C4F2472101200860FFF7CCF90390FFE7DB
:103A100043F60000C4F20200006800F0020100203A
:103A2000B0EB510F0CD1FFE7FFF7BCF90399401A37
:103A3000032804D3FFE703208DF817003BE2E7E7F4
:103A400043F60001C4F20201086820F0F800049A6D
:103A5000126940EAC200086021E00021C4F2472157
:103A600000200860FFF79EF90390FFE743F600008F
:103A7000C4F20200006800F002010020B0EB510F18
:103A80000CD0FFE7FFF78EF90399401A032804D3FF
:103A9000FFE703208DF817000DE2E7E7FFE7FFE7F8
:103AA000FFE704980078000700284BD5FFE704984B
:103AB000406918B3FFE740F68061C4F24721012056
:103AC0000860FFF76FF90390FFE743F67400C4F254
:103AD0000200006800F002010020B0EB510F0CD191
:103AE000FFE7FFF75FF90399401A032804D3FFE7C4
:103AF00003208DF81700DEE1E7E722E040F6806161
:103B0000C4F2472100200860FFF74CF90390FFE75B
:103B100043F67400C4F20200006800F002010020C5
:103B2000B0EB510F0CD0FFE7FFF73CF90399401AB7
:103B3000032804D3FFE703208DF81700BBE1E7E774
:103B4000FFE7FFE7049800784007002840F1CE80A7
:103B5000FFE700208DF8070043F64000C4F20200A2
:103B60000068C000002815D4FFE7FFE700200090A0
:103B700043F64000C4F20200016841F08051016048
:103B8000006800F0805000900098FFE701208DF859
:103B90000700FFE747F20000C4F200000068C0051C
:103BA000002822D4FFE747F20001C4F200010868B0
:103BB00040F480700860FFF7F5F80390FFE747F2E4
:103BC0000000C4F200000068C00500280CD4FFE724
:103BD000FFF7E8F80399401A032804D3FFE703200E
:103BE0008DF8170067E1EAE7FFE7FFE704988068D0
:103BF000012809D1FFE743F67001C4F20201086809
:103C000040F0010008601FE00498806805280DD18D
:103C1000FFE743F67001C4F20201086840F00400B7
:103C20000860086840F0010008600CE043F670018D
:103C3000C4F20201086820F001000860086820F062
:103C400004000860FFE7FFE7FFE704988068F8B129
:103C5000FFE7FFF7A7F80390FFE743F67000C4F211
:103C60000200006800F002010020B0EB510F0ED1FD
:103C7000FFE7FFF797F80399401A41F2893188422C
:103C800004D3FFE703208DF8170014E1E5E71EE0F9
:103C9000FFF788F80390FFE743F67000C4F20200D4
:103CA000006800F002010020B0EB510F0ED0FFE7DA
:103CB000FFF778F80399401A41F28931884204D31A
:103CC000FFE703208DF81700F5E0E5E7FFE79DF833
:103CD0000700012809D1FFE743F64001C4F20201C1
:103CE000086820F080500860FFE7FFE704988069CB
:103CF000002800F0DC80FFE743F60800C4F2020071
:103D0000006800F00C00082800F08580FFE70498A8
:103D1000806902285CD1FFE76021C4F247210020BE
:103D20000860FFF73FF80390FFE743F60000C4F296
:103D30000200006800F000710020B0EB516F0CD061
:103D4000FFE7FFF72FF80399401A032804D3FFE792
:103D500003208DF81700AEE0E7E70499C869D1F8B1
:103D600020C04B6A8A6A40EA0C0040EA8310D20302
:103D70004FF6FF739A43A2F580321043C96A40EAB6
:103D8000016043F60401C4F2020108606021C4F23C
:103D9000472101200860FFF705F80390FFE743F68D
:103DA0000000C4F20200006800F000710020B0EBD7
:103DB000516F0CD1FFE7FEF7F5FF0399401A032876
:103DC00004D3FFE703208DF8170074E0E7E721E054
:103DD0006021C4F2472100200860FEF7E3FF039052
:103DE000FFE743F60000C4F20200006800F0007133
:103DF0000020B0EB516F0CD0FFE7FEF7D3FF039923
:103E0000401A032804D3FFE703208DF8170052E07F
:103E1000E7E7FFE74AE004988069012804D1FFE75B
:103E200001208DF8170046E043F60400C4F20200BA
:103E30000068029004988069012831D0FFE7029859
:103E400000F480000499C969884229D1FFE70298EB
:103E500000F03F000499096A884221D1FFE70298E7
:103E600047F6C07108400499496AB0EB811F17D129
:103E7000FFE7029800F440300499896AC9034FF6BD
:103E8000FF729143A1F58031884209D1FFE7029882
:103E900000F070600499C96AB0EB016F04D0FFE7CD
:103EA00001208DF8170006E0FFE7FFE7FFE700209D
:103EB0008DF81700FFE79DF8170006B080BD0000E1
:103EC00080B582B00090009820B9FFE701208DF8FE
:103ED00007001CE00098407938B9FFE700990020FE
:103EE0000871009800F018F8FFE700990220487167
:103EF00000980168086840F00400086000990120FB
:103F000048710099002088608DF80700FFE79DF850
:103F1000070002B080BD000082B0019001980068E7
:103F200040F60001C5F20601884212D1FFE7FFE723
:103F30000020009043F63400C4F20200016841F012
:103F400040010160006800F0400000900098FFE729
:103F5000FFE702B07047000080B584B002900120F6
:103F60008DF80700029820B9FFE701208DF80F00B7
:103F700063E00298407F38B9FFE702990020087794
:103F8000029800F05FF8FFE7029902204877FFE708
:103F900002980168CA20486202980168532048626A
:103FA000FFE7029803F0B0FA8DF807009DF80700CC
:103FB00020BBFFE70298016888684FF6BF72CFF612
:103FC0008F7210408860029A1168506813695269B4
:103FD0001843024388681043886002980168C068EB
:103FE0000861029801688268086940EA0240086135
:103FF000029803F0CBFA8DF80700FFE79DF8070061
:1040000080B9FFE702980168086C20F480200864FA
:10401000029801688269086C1043086402990120C3
:104020004877FFE7FFE702980168FF204862FFE753
:104030009DF807008DF80F00FFE79DF80F0004B012
:1040400080BD000080B58EB00D9001A83021FCF736
:104050008DFA0D98006842F60001C4F20001884212
:1040600014D1FFE7202001904FF400700B9001A8BD
:10407000FEF7BEFF18B1FFE7FCF7C8FFFFE740F609
:104080003C61C4F2472101200860FFE70EB080BD0B
:1040900080B588B006900591049200200390FFE758
:1040A0000698007F012804D1FFE702208DF81F0049
:1040B0007DE0069901200877FFE7FFE706990220D7
:1040C0004877049868B9FFE705984078C00600284B
:1040D00007D5FFE70599487800F0EF000A304870EF
:1040E000FFE70498E0B9FFE70598C07803F0EAF924
:1040F000000400900598407803F0E4F90146009828
:1041000040EA012001900598807803F0DBF9014630
:10411000019808440599097840EA413003900CE081
:104120000598017843788278C078000440EA03203B
:10413000104440EA41300390FFE7FFE7069801682A
:10414000CA2048620698016853204862FFE7069833
:1041500003F0DAF98DF80B009DF80B0078B9FFE752
:1041600003984FF63F71C0F2FF01084006990968B5
:104170004860069803F00AFA8DF80B00FFE79DF8F7
:104180000B0020B9FFE7069901204877FFE7FFE71A
:1041900006980168FF204862FFE7FFE706990020C4
:1041A0000877FFE79DF80B008DF81F00FFE79DF8EB
:1041B0001F0008B080BD000080B588B00690059152
:1041C000049200200390FFE70698007F012804D1A5
:1041D000FFE702208DF81F0095E00699012008777F
:1041E000FFE7FFE7069902204877049840BBFFE706
:1041F0000698006880684006002801D5FFE703E0C4
:1042000005990020C870FFE70598007803F05AF977
:10421000000400900598407803F054F90146009896
:1042200040EA012001900598807803F04BF901469F
:10423000019808440599C97840EA8150039018E034
:104240000698006880684006002801D5FFE703E073
:1042500005990020C870FFE7059908784B788A789F
:10426000C978000440EA0320104440EA81500390DA
:10427000FFE7FFE706980168CA20486206980168D0
:1042800053204862FFE7069803F03EF98DF80B00D3
:104290009DF80B00F8B9FFE7039847F67F71C0F26D
:1042A0007F010840069909680860069801688868D7
:1042B00020F4802088600599C868096940EA0102F5
:1042C00006980168886810438860069803F05EF9D4
:1042D0008DF80B00FFE79DF80B0020B9FFE706996A
:1042E00001204877FFE7FFE706980168FF20486252
:1042F000FFE7FFE7069900200877FFE79DF80B002E
:104300008DF81F00FFE79DF81F0008B080BD00007A
:1043100080B584B002900020019002980168C868BE
:1043200020F0A000C860FEF73DFD0190FFE7029875
:104330000068C068800600280DD4FFE7FEF732FD54
:104340000199401AB0F57A7F04D9FFE703208DF870
:104350000F0004E0EBE700208DF80F00FFE79DF869
:104360000F0004B080BD000081B0009001B0704724
:1043700081B0009001B0704780B584B003900020F8
:1043800000900398694603F091FB0190019830B1C9
:10439000FFE7019A0399886B10438863FFE7009851
:1043A000C0F343200290029804B080BD80B584B071
:1043B00003900398006B019003980068406B81B2F2
:1043C0000020B0EBD13F0AD0FFE79DF804000007C2
:1043D000002804D5FFE7039803F01AFB87E1039850
:1043E0000068406B00F480710020B0EB112F00F0EA
:1043F0009280FFE7039801684FF480708863039808
:104400000168C86B4CF23A329043C8630398016864
:10441000C86A20F00100C8629DF804000007002867
:104420003ED5FFE79DF804008007002806D4FFE78B
:104430009DF804008006002812D5FFE70398006865
:1044400003F038F90290029848B1FFE7029A039905
:10445000886B104388630398FFF78AFFFFE7FFE745
:104460000398016840F23A5088630399012081F86B
:1044700034000399002008639DF80400C00730B998
:10448000FFE79DF804008007002804D5FFE70398A4
:1044900000F030F903E0039800F030F9FFE739E06D
:1044A0009DF804000006002832D5FFE79DF80400BF
:1044B0008006002812D5FFE70398006803F0FAF899
:1044C0000290029848B1FFE7029A0399886B104363
:1044D00088630398FFF74CFFFFE7FFE79DF80400B0
:1044E000C007A0B9FFE79DF80400800700280ED49C
:1044F000FFE703980168C86A20F00800C8620399C2
:10450000012081F83400039800F0F8F8FFE700E09C
:10451000FFE7FFE7EAE003980068406B00F48041A2
:104520000020B0EB913F0AD0FFE79DF804000007A0
:10453000002804D5FFE7039803F0E0FAD5E00398DC
:104540000068406B40F23A21084200F0CC80FFE75F
:1045500003980068406B00F002010020B0EB510F9F
:1045600006D0FFE70399886B40F002008863FFE7FD
:1045700003980068406B00F008010020B0EBD10FF9
:1045800006D0FFE70399886B40F008008863FFE7D7
:1045900003980068406B00F020010020B0EB511F31
:1045A00006D0FFE70399886B40F020008863FFE79F
:1045B00003980068406B00F010010020B0EB111F61
:1045C00006D0FFE70399886B40F010008863FFE78F
:1045D00003980068406B00F400710020B0EB512F8D
:1045E00006D0FFE70399886B40F008008863FFE777
:1045F0000398016840F23A70886303980168C86BB9
:1046000040F23A329043C8630398006803F052F8CE
:1046100002460399886B104388639DF804000007E5
:1046200000280BD5FFE70399012081F83400039996
:10463000002008630398FFF79BFE53E09DF80400F9
:10464000000600284CD5FFE79DF80400C0060028AE
:1046500006D4FFE79DF804008006002813D5FFE785
:104660000398C16B47F6A510C0F6000008650398D3
:10467000C06BFDF76DFE28B1FFE70398C06B03F038
:1046800091F9FFE72BE09DF80400C00730B9FFE780
:104690009DF804008007002813D5FFE70398016CFC
:1046A00047F63910C0F6000008650398006CFDF766
:1046B0004FFE28B1FFE70398006C03F03DF9FFE7D8
:1046C0000CE0039900208863039A012182F83410DA
:1046D000039908630398FFF747FEFFE7FFE700E051
:1046E000FFE7FFE700E0FFE7FFE7FFE7FFE704B0D2
:1046F00080BD000081B0009001B0704781B0009093
:1047000001B0704780B584B00290029820B9FFE7ED
:1047100001208DF80F0071E00298406A60B9FFE750
:1047200002984068B0F5827F01D1FFE703E002996B
:104730000020C861FFE705E00299002008610299A6
:104740004861FFE7029900208862029890F85100C2
:1047500040B9FFE70299002081F85000029800F06C
:1047600051F8FFE70299022081F851000298016890
:10477000086820F040000860029A019211685068B1
:10478000D2F808C0D36800F482700CF4044C604482
:1047900003F400631844136903F0020318445369D7
:1047A00003F001031844936903F400731844D369B8
:1047B00003F038031844136A03F080031843926A25
:1047C00002F4005210430860029A508B00F004007B
:1047D0001168526A02F010021044486002980168A1
:1047E000C86920F40060C861029900204865029AF7
:1047F000012182F851108DF80F00FFE79DF80F009E
:1048000004B080BD80B590B00F9000200E900D9048
:104810000C900B900A900F98006843F20001C4F2CC
:10482000010188425ED1FFE7FFE70020099043F6CF
:104830004400C4F20200016841F480510160006844
:1048400000F4805009900998FFE7FFE700200890E6
:1048500043F63000C4F20200016841F00201016039
:10486000006800F0020008900898FFE7FFE70020CA
:10487000079043F63000C4F20200016841F00101E4
:104880000160006800F0010007900798FFE718201A
:104890000A90022000900B90002001900C900320C1
:1048A00002900D90052003900E9040F20040C4F25B
:1048B00002000AA90491FEF739F8DDF800C0019B57
:1048C000029A039804994FF0800ECDF828E0CDF8B5
:1048D0002CC00C930D920E900020C4F20200FEF743
:1048E00025F83EE00F98006845F20001C4F201018E
:1048F000884235D1FFE7FFE70020069043F64400E9
:10490000C4F20200016841F480110160006800F403
:10491000801006900698FFE7FFE70020059043F619
:104920003000C4F20200016841F02001016000681B
:1049300000F0200005900598FFE74FF460700A90A2
:1049400002200B9000200C9003200D9005200E906B
:1049500041F20040C4F202000AA9FDF7E7FFFFE7B9
:10496000FFE710B080BD000080B58EB0DDF840C01C
:104970000C900B910A92ADF8263001200590002092
:104980008DF81300FFE70C9890F85000012804D12F
:10499000FFE702208DF8370095E10C99012081F89E
:1049A0005000FFE7FFE7FEF7FDF906900C9890F83E
:1049B00051008DF81F000C9840680890BDF8260043
:1049C000ADF824009DF81F00012812D0FFE70898D9
:1049D000B0F5827F09D1FFE70C98806828B9FFE71E
:1049E0009DF81F00042804D0FFE702208DF8130073
:1049F0005AE10B9838B1FFE70A9820B1FFE7BDF8FC
:104A0000260020B9FFE701208DF813004CE10C9837
:104A100090F85100042805D0FFE70C99052081F893
:104A20005100FFE70C99002048650A990C9A9163A0
:104A3000BDF826100C9AD187BDF826100C9A9187E4
:104A40000B990C9A1163BDF826100C9AD186BDF80B
:104A500026100C9A91860C9908640C9948640C985D
:104A60000068006800F04000402807D0FFE70C987D
:104A70000168086840F040000860FFE70C98C068D3
:104A8000B0F5006F76D1FFE70C98406828B1FFE7DA
:104A9000BDF8240001280ED1FFE70C980168006BD7
:104AA0000088C8600C99086B023008630C99C88EA6
:104AB0000138C886FFE7FFE70C98C18E01200290FD
:104AC00039B9FFE70C98C08F002818BF0120029069
:104AD000FFE70298C00700284BD0FFE70C9800685A
:104AE00080688007002818D5FFE70C98C08EA0B119
:104AF000FFE70598012810D1FFE70C980168006BCB
:104B00000088C8600C99086B023008630C99C88E45
:104B10000138C88600200590FFE70C98006880687F
:104B2000C007A8B1FFE70C98C08F88B1FFE70C98C9
:104B30000068C0680C99896B08800C99886B0230FA
:104B400088630C99C88F0138C88701200590FFE75A
:104B5000FEF728F90699401A1099884208D3FFE712
:104B60001098013020B1FFE703208DF813009BE07F
:104B7000A2E778E00C98406828B1FFE7BDF8240070
:104B800001280ED1FFE70C980168006B00780873CC
:104B90000C99086B013008630C99C88E0138C886DF
:104BA000FFE7FFE70C98C18E0120019039B9FFE7BC
:104BB0000C98C08F002818BF01200190FFE70198D2
:104BC000C00700284ED0FFE70C9800688068800777
:104BD000002818D5FFE70C98C08EA0B1FFE7059814
:104BE000012810D1FFE70C980168006B007808736A
:104BF0000C99086B013008630C99C88E0138C8867F
:104C000000200590FFE70C9800688068C007A8B1F5
:104C1000FFE70C98C08F88B1FFE70C980068C06868
:104C20000C99896B08700C99886B013088630C991A
:104C3000C88F0138C88701200590FFE7FEF7B2F85A
:104C40000699401A1099884204D3FFE71098013062
:104C500018B9FFE7109820B9FFE703208DF813007B
:104C600022E09FE7FFE70C981099069A02F09AFF5E
:104C700038B1FFE701208DF813000C99202048651A
:104C800012E00C98806870B9FFE7FFE700200390FE
:104C90000C980068C06803900C98006880680390C6
:104CA0000398FFE7FFE7FFE70C99012081F8510027
:104CB000FFE70C99002081F85000FFE79DF81300F2
:104CC0008DF83700FFE79DF837000EB080BD00007B
:104CD00081B0009001B0704781B0009001B0704782
:104CE00085B003900291FFE7039890F83C000128FB
:104CF00004D1FFE702208DF813007EE00399012024
:104D000081F83C00FFE7FFE70399022081F83D00AE
:104D100003980068406801900398006880680090DC
:104D2000019820F0700001900298016801980843F2
:104D30000190019803990968486003980068002170
:104D4000C4F2010188423CD0FFE703980068B0F14B
:104D5000804F36D0FFE70398006840F20041C4F26C
:104D6000000188422DD0FFE70398006840F600015B
:104D7000C4F20001884224D0FFE70398006840F69F
:104D80000041C4F2000188421BD0FFE7039800688D
:104D900040F20041C4F20101884212D0FFE70398BB
:104DA000006844F20001C4F20101884209D0FFE723
:104DB0000398006841F60001C4F2000188420ED158
:104DC000FFE7009820F0800000900298416800986A
:104DD000084300900098039909688860FFE70399E9
:104DE000012081F83D00FFE70399002081F83C0095
:104DF000FFE700208DF81300FFE79DF8130005B0D2
:104E00007047000080B582B00090009820B9FFE79D
:104E100001208DF807003FE0009890F83D0040B970
:104E2000FFE70099002081F83C00009800F038F876
:104E3000FFE70099022081F83D00009951F8040B2A
:104E400003F0BAF80099012081F84600FFE70099C5
:104E5000012081F83E00009981F83F00009981F817
:104E60004000009981F84100FFE7FFE70099012029
:104E700081F84200009981F84300009981F84400CC
:104E8000009981F84500FFE70099012081F83D0075
:104E900000208DF80700FFE79DF8070002B080BDF5
:104EA00080B58AB0099009980068B0F1804F1BD195
:104EB000FFE7FFE70020089043F64000C4F202003D
:104EC000016841F001010160006800F001000890F4
:104ED0000898FFE71C20029005210022FEF742F807
:104EE0000298FEF735F89CE00998006840F200410E
:104EF000C4F20001884212D1FFE7FFE700200790CB
:104F000043F64000C4F20200016841F00201016072
:104F1000006800F0020007900798FFE780E009981A
:104F2000006840F60001C4F20001884223D1FFE787
:104F3000FFE70020069043F64000C4F2020001683B
:104F400041F004010160006800F00400069006983A
:104F5000FFE71E20019005210022FEF703F80198CB
:104F6000FDF7F6FF41F6A000C2F2000001686FF005
:104F70000100086153E00998006840F60041C4F25E
:104F80000001884212D1FFE7FFE70020059043F6B9
:104F90004000C4F20200016841F0080101600068AD
:104FA00000F0080005900598FFE737E009980068D1
:104FB00044F20001C4F20101884212D1FFE7FFE789
:104FC0000020049043F64400C4F20200016841F45A
:104FD00080310160006800F4803004900498FFE79D
:104FE0001BE00998006841F60001C4F20001884204
:104FF00012D1FFE7FFE70020039043F64000C4F220
:105000000200016841F040010160006800F04000CA
:1050100003900398FFE7FFE7FFE7FFE7FFE7FFE7FE
:10502000FFE70AB080BD000083B00190019890F8BE
:105030003D00012804D0FFE701208DF80B0064E05B
:105040000199022081F83D00019800680021C4F216
:10505000010188423CD0FFE701980068B0F1804F21
:1050600036D0FFE70198006840F20041C4F2000129
:1050700088422DD0FFE70198006840F60001C4F295
:105080000001884224D0FFE70198006840F6004103
:10509000C4F2000188421BD0FFE70198006840F28B
:1050A0000041C4F20101884212D0FFE70198006874
:1050B00044F20001C4F20101884209D0FFE70198DF
:1050C000006841F60001C4F20001884212D1FFE7F6
:1050D00001980068806800F007000090009806289A
:1050E00007D0FFE701980168086840F001000860F8
:1050F000FFE706E001980168086840F001000860D9
:10510000FFE700208DF80B00FFE79DF80B0003B0D0
:105110007047000083B00190019890F83D0001288D
:1051200004D0FFE701208DF80B006AE0019902200E
:1051300081F83D0001980168C86840F00100C8602E
:10514000019800680021C4F2010188423CD0FFE7C9
:1051500001980068B0F1804F36D0FFE701980068F1
:1051600040F20041C4F2000188422DD0FFE70198CF
:10517000006840F60001C4F20001884224D0FFE735
:105180000198006840F60041C4F2000188421BD03B
:10519000FFE70198006840F20041C4F20101884233
:1051A00012D0FFE70198006844F20001C4F2010147
:1051B000884209D0FFE70198006841F60001C4F277
:1051C0000001884212D1FFE701980068806800F072
:1051D000070000900098062807D0FFE701980168B3
:1051E000086840F001000860FFE706E001980168E8
:1051F000086840F001000860FFE700208DF80B0010
:10520000FFE79DF80B0003B07047000080B586B043
:105210000490039100208DF80B00FFE7049890F8AC
:105220003C00012804D1FFE702208DF81700ABE015
:105230000499012081F83C00FFE7FFE70499022070
:1052400081F83D000498006880680190019820F082
:1052500077000190019820F47F4001900198049913
:1052600009688860039800680090002872D0FFE702
:10527000009810286ED0FFE7009820286AD0FFE73A
:105280000098302866D0FFE70098402855D0FFE707
:105290000098502837D0FFE70098602840D0FFE7FB
:1052A000009870280BD0FFE70098B0F5805F05D01C
:1052B000FFE70098B0F5005F16D052E055E0049883
:1052C0000068039B5A689968DB6802F05FFF0498E6
:1052D000006880680190019840F077000190019883
:1052E00004990968886040E004980068039B5A6844
:1052F0009968DB6802F04AFF04980168886840F406
:105300008040886031E004980068039A5168D26850
:1053100003F028F904980068502102F051FF24E0BE
:1053200004980068039A5168D26803F043F904981E
:105330000068602102F044FF17E004980068039AB7
:105340005168D26803F00EF904980068402102F019
:1053500037FF0AE0049800680399096802F030FFFB
:1053600003E001208DF80B00FFE70499012081F88C
:105370003D00FFE70499002081F83C00FFE79DF81D
:105380000B008DF81700FFE79DF8170006B080BDF1
:1053900081B0009001B0704780B582B00190019853
:1053A0000068006900F002010020B0EB510F28D026
:1053B000FFE701980068C06800F002010020B0EB30
:1053C000510F1DD0FFE7019801686FF002000861DE
:1053D000019901200877019800688069800720B151
:1053E000FFE70198FFF7D4FF06E0019800F0A0F96D
:1053F000019800F095FAFFE7019900200877FFE790
:10540000FFE701980068006900F004010020B0EB9C
:10541000910F29D0FFE701980068C06800F00401EF
:105420000020B0EB910F1ED0FFE7019801686FF0EC
:1054300004000861019902200877019800688069DA
:1054400010F4407F04D0FFE70198FFF7A1FF06E0CA
:10545000019800F06DF9019800F062FAFFE70199F8
:1054600000200877FFE7FFE701980068006900F077
:1054700008010020B0EBD10F28D0FFE701980068A9
:10548000C06800F008010020B0EBD10F1DD0FFE78D
:10549000019801686FF008000861019904200877FD
:1054A00001980068C069800720B1FFE70198FFF705
:1054B0006FFF06E0019800F03BF9019800F030FA28
:1054C000FFE7019900200877FFE7FFE701980068F0
:1054D000006900F010010020B0EB111F29D0FFE798
:1054E00001980068C06800F010010020B0EB111FA7
:1054F0001ED0FFE7019801686FF010000861019964
:105500000820087701980068C06910F4407F04D033
:10551000FFE70198FFF73CFF06E0019800F008F96B
:10552000019800F0FDF9FFE7019900200877FFE7F7
:10553000FFE7019800680069C00780B1FFE70198A4
:105540000068C068C00748B1FFE7019801686FF0C4
:1055500001000861019800F0CDFAFFE7FFE701982C
:1055600000680069C1B20020B0EBD11F13D0FFE783
:1055700001980068C068C1B20020B0EBD11F09D00B
:10558000FFE7019801686FF0800008610198FFF75C
:105590009FFBFFE7FFE701980068006900F040010A
:1055A0000020B0EB911F14D0FFE701980068C0689D
:1055B00000F040010020B0EB911F09D0FFE70198F7
:1055C00001686FF040000861019800F0B1FAFFE750
:1055D000FFE701980068006900F020010020B0EBAF
:1055E000511F14D0FFE701980068C06800F0200147
:1055F0000020B0EB511F09D0FFE7019801686FF060
:10560000200008610198FFF767FBFFE7FFE702B0A2
:1056100080BD000080B58AB00990002008900790F6
:105620000690059004900998006840F20041C4F289
:105630000001884221D1FFE7FFE70020039043F6F5
:105640003000C4F20200016841F00201016000680C
:1056500000F0020003900398FFE72020049002204E
:105660000590002106910791089040F20040C4F295
:10567000020004A9FDF75AF957E00998006840F6BE
:105680000041C4F20001884222D1FFE7FFE7002079
:10569000029043F63000C4F20200016841F080013C
:1056A0000160006800F0800002900298FFE74FF46C
:1056B000E050049002200590002106910791089087
:1056C00041F60040C4F2020004A9FDF72FF92BE0D7
:1056D0000998006841F60001C4F20001884222D115
:1056E000FFE7FFE70020019043F63000C4F202001C
:1056F000016841F080010160006800F080000190C5
:105700000198FFE7402004900220059000200690B9
:1057100007900920089041F60040C4F2020004A955
:10572000FDF704F9FFE7FFE7FFE70AB080BD0000DF
:1057300081B0009001B0704780B586B004900391AD
:10574000029200208DF80700FFE7049890F83C00D3
:10575000012804D1FFE702208DF8170089E00499A1
:10576000012081F83C00FFE7FFE7029800900C2839
:1057700000F270800099DFE801F0076D6D6D206D1B
:105780006D6D3A6D6D6D530004980068039902F0D9
:105790002DFD04980168886940F00800886104982C
:1057A0000168886920F00400886103980269049800
:1057B000016888691043886150E004980068039983
:1057C00002F08AFD04980168886940F400608861ED
:1057D00004980168886920F48060886103980269F0
:1057E00004980168886940EA0220886136E00498DC
:1057F0000068039902F0EAFD04980168C86940F066
:105800000800C86104980168C86920F00400C861F4
:105810000398026904980168C8691043C8611DE0D3
:1058200004980068039902F04BFE04980168C86967
:1058300040F40060C86104980168C86920F4806081
:10584000C8610398026904980168C86940EA0220A7
:10585000C86103E001208DF80700FFE7FFE7049926
:10586000002081F83C00FFE79DF807008DF8170045
:10587000FFE79DF8170006B080BD000080B582B03C
:105880000090009820B9FFE701208DF807003FE065
:10589000009890F83D0040B9FFE70099002081F89A
:1058A0003C00009800F038F8FFE70099022081F8EA
:1058B0003D00009951F8040B02F07EFB0099012095
:1058C00081F84600FFE70099012081F83E00009929
:1058D00081F83F00009981F84000009981F841006B
:1058E000FFE7FFE70099012081F84200009981F865
:1058F0004300009981F84400009981F84500FFE7D2
:105900000099012081F83D0000208DF80700FFE795
:105910009DF8070002B080BD81B0009001B07047D3
:1059200081B0009001B0704780B58CB00A900991A9
:10593000099828B9FFE70A9890F83E0007901CE004
:105940000998042805D1FFE70A9890F83F000690CF
:1059500010E00998082805D1FFE70A9890F8400060
:10596000059004E00A9890F841000590FFE705983B
:105970000690FFE706980790FFE70798012804D0F4
:10598000FFE701208DF82F00AFE0099828B9FFE765
:105990000A99022081F83E001EE00998042806D1E9
:1059A000FFE70A99022081F83F00049012E009986D
:1059B000082806D1FFE70A99022081F840000390E9
:1059C00005E00A99022081F841000390FFE703985F
:1059D0000490FFE70498FFE70A98006809990122FC
:1059E000019202F0B7FB01980A9909680022C4F2FB
:1059F0000102914202900CD0FFE70A9800684FF62E
:105A00000041CBF6FE710844B0FA80F040090290E4
:105A1000FFE70298C00738B1FFE70A980168486CB1
:105A200040F400404864FFE70A9800680021C4F28F
:105A3000010188423CD0FFE70A980068B0F1804F2E
:105A400036D0FFE70A98006840F20041C4F2000136
:105A500088422DD0FFE70A98006840F60001C4F2A2
:105A60000001884224D0FFE70A98006840F6004110
:105A7000C4F2000188421BD0FFE70A98006840F298
:105A80000041C4F20101884212D0FFE70A98006881
:105A900044F20001C4F20101884209D0FFE70A98EC
:105AA000006841F60001C4F20001884212D1FFE70C
:105AB0000A980068806800F0070008900898062897
:105AC00007D0FFE70A980168086840F00100086005
:105AD000FFE706E00A980168086840F001000860E6
