:020000040800F2
:10000000006600202D020008C96F00086552000834
:10001000C56F0008C50C00082D8600080000000010
:10002000000000000000000000000000B17D00089A
:10003000E91000080000000031700008E97D0008A8
:100040004702000821700008470200084702000824
:100050004702000847020008ED10000847020008A8
:1000600047020008F91000080511000847020008BF
:10007000C10D0008470200084702000847020008B7
:10008000470200084702000847020008470200082C
:1000900047020008C90C00084702000811110008B7
:1000A000470200084702000847020008470200080C
:1000B000617F000847020008470200084702000865
:1000C00047020008470200084702000847020008EC
:1000D00047020008A184000847020008BD84000808
:1000E00047020008470200084702000847020008CC
:1000F00047020008470200084702000847020008BC
:1001000047020008470200084702000847020008AB
:100110004702000847020008717F000847020008F4
:10012000D10D000899100008A9100008B9100008A6
:10013000470200084702000847020008470200087B
:10014000D90C0008470200084702000847020008CF
:1001500047020008C9100008D9100008D984000817
:10016000470200084702000847020008470200084B
:10017000470200084702000847020008000000008C
:10018000470200084702000800F002F800F03EF8BD
:100190000AA090E8000C82448344AAF10107DA45E2
:1001A00001D100F033F8AFF2090EBAE80F0013F0F6
:1001B000010F18BFFB1A43F001031847B0290100D3
:1001C000D0290100103A24BF78C878C1FAD8520764
:1001D00024BF30C830C144BF04680C6070470000C1
:1001E0000023002400250026103A28BF78C1FBD840
:1001F000520728BF30C148BF0B6070471FB511F0D0
:10020000E6FB00F005FA1FBD10B510BD00F0F5FAD1
:100210001146FFF7F3FF0DF0C7FE00F013FB03B428
:10022000FFF7F2FF03BC00F0B5FA00000948804771
:1002300009480047FEE7FEE7FEE7FEE7FEE7FEE7C8
:10024000FEE7FEE7FEE7FEE704480549054A064BE0
:1002500070470000197E0008890100080060002036
:100260000066002000620020006200209FED1A1A44
:10027000F5EE000A40EE010ABDEEE00AF5EEC00A16
:1002800010EE100AF1EE10FA38BF401E00EE100A10
:100290001349F7EE001AB8EEC00A30EEC00ADFEDDF
:1002A0000F0A20EE200AFCEEC00A10EE900AC0F3FE
:1002B000080000EE900A01EB8000F8EE600A90ED75
:1002C000011A70EE600A90ED000A71EEE01A21EE5C
:1002D000800A00EE810A704783F9223E0000004444
:1002E0005C1C0108B5EEC00AF1EE10FA07D2DFED92
:1002F0001E0AB4EEE00AF1EE10FAA8BF7047DFED77
:100300001B0AB5EEC00A60EE200ABDEEE01A11EE3F
:10031000100AF1EE10FA38BF401E00EE100A15491F
:10032000F7EE001AB8EEC00A30EEC00ADFED100A90
:1003300060EE200ABCEEE00A10EE100AC0F30800DE
:1003400000EE100A01EB8000B8EE400A90ED011AB1
:1003500070EEC00A90ED000A71EEE01A21EE800AFC
:1003600000EE810A70470000CD024CB483F9223EB2
:10037000000000445C1C010853EA020C00F0698094
:100380002DE9F04B4FF00006002B1FBFB3FA83F5A9
:1003900003FA05F424FA05F65E4012BF1643B2FADA
:1003A00082F502FA05F4C5F120051EBF22FA05FC0C
:1003B00044EA0C04203556EA044C4FEA144418BFB2
:1003C000641C4FF000084FF00009904271EB030CE1
:1003D00039D3002919BFB1FA81F701FA07F6B0FA4B
:1003E00080F700FA07F6C7F120071EBF20FA07FCC6
:1003F00046EA0C062037B6FBF4FCA7EB0507103FD6
:1004000007F01F0BCBF120062CFA06F60CFA0BFBBB
:1004100044BFB3460026202FA4BF5E464FF0000B1A
:100420005BEA060C08BF4FF0010B19EB0B0948EB18
:100430000608ABFB027C06FB02CC0BFB03CCC01B0B
:1004400071EB0C01C1E70B46024641464846BDE848
:10045000F08B13B5084318BF4FF0FF300146AFF3E0
:100460000080BDE81C40704710B5431C02E010F846
:10047000011B71B18107FAD14FF0013202C88C1A09
:100480008C4314EAC211F9D0C01A0A0603D0C01E68
:1004900010BDC01A10BD0A0401D0801E10BD090293
:1004A000FCD0401E10BD032A40F2308010F0030C37
:1004B00000F0158011F8013BBCF1020F624498BFB7
:1004C00011F801CB00F8013B38BF11F8013BA2F154
:1004D000040298BF00F801CB38BF00F8013B11F0CF
:1004E000030300F0E480083AC0F0088051F8043BB0
:1004F000083A51F804CBA0E80810F5E7121D5CBFDC
:1005000051F8043B40F8043BAFF30080D20724BF0E
:1005100011F8013B11F801CB48BF11F8012B24BFA2
:1005200000F8013B00F801CB48BF00F8012B7047F1
:10053000431A28BF9A4240F2BA801044114410F086
:10054000030F1EBF11F8013D521E00F8013D10F0CF
:10055000030F7FF4F6AF103AC0F00A8010B531E90E
:10056000185020E91850103ABFF4F9AFBDE8104018
:10057000530724BF31E9081020E9081044BF51F89F
:10058000043D40F8043D12F0030F08BF7047D20746
:1005900028BF31F8023D48BF11F8012C28BF20F8D0
:1005A000023D48BF00F8012C704702F0FF0343EA08
:1005B000032242EA024200F002B84FF0000200B506
:1005C000134694469646203922BFA0E80C50A0E876
:1005D0000C50B1F12001BFF4F7AF090728BFA0E824
:1005E0000C5048BF0CC05DF804EB890028BF40F8F0
:1005F000042B08BF704748BF20F8022B11F0804F32
:1006000018BF00F8012B7047704770477047000013
:1006100070B5064C7C44064D7D4404E020460168DC
:1006200008448047241DAC42F8D170BD74250100F8
:100630007425010070B50446051F00F0B1F800688C
:10064000002C14BF446870BD002C18BFAC423CBFE6
:1006500020466468F8D301680A18AA4218BF4560AA
:1006600003D12A6805461144016028684119A14256
:100670001CBF6C6070BD61686960216808442860B7
:1006800070BD10B500F090F8006810BD10B50446BC
:1006900000F08AF8046010BD10B5002000F0A0F84A
:1006A000FFF7B2FDBDE81040012000F073B810B5AF
:1006B000203AC0F00B80B1E81850A0E81850B1E81B
:1006C0001850A0E81850203ABFF4F5AF5FEA027C5A
:1006D00024BFB1E81850A0E8185044BF18C918C08A
:1006E000BDE810405FEA827C24BF51F8043B40F82B
:1006F000043B08BF7047D20728BF31F8023B48BF10
:1007000011F8012B28BF20F8023B48BF00F8012B4D
:10071000704700000000000030B44FF0013C50F87A
:10072000042B51F8043BCCFA52F4D51A20D1FCB971
:1007300050F8042B51F8043BCCFA52F4D51A17D1D7
:10074000B4B950F8042B51F8043BCCFA52F4D51A42
:100750000ED16CB950F8042B51F8043BCCFA52F48A
:10076000D51A05D1002CDAD030BC4FF0000070470C
:1007700029BAB1FA81F111F01801D1F120008440B9
:10078000F2D1CA40CB4012F0FF0213F0FF0330BC9D
:10079000D01A704701491820ABBEFEE726000200C0
:1007A00000487047E000002000487047D800002053
:1007B0001FB584B000200A9C06AB04AA02A90094CD
:1007C000AFF3008018B1DDE9020108B010BD0348A5
:1007D000204000F05DF800200146F6E70000207C94
:1007E00010B500F03DF8BDE8104000F034B800004E
:1007F00000487047D800002070477546FFF7F8FFA3
:10080000AE4605006946534620F00700854618B0FD
:1008100020B5FFF719FDBDE820404FF000064FF06E
:1008200000074FF000084FF0000BAC46ACE8C009E1
:10083000ACE8C009ACE8C009ACE8C00921F0070188
:100840008D46704710B50446AFF300802046BDE8E2
:100850001040FFF7E4BC002801D0FFF79BBF7047B2
:1008600010B5002102A000F01AF8012010BD000010
:10087000534947414252543A2041626E6F726D6152
:100880006C207465726D696E6174696F6E00000032
:1008900010B500F01DF8BDE81040FFF7DCBF70B5E3
:1008A00005460C460A2000E06D1C00F067F835B1E3
:1008B00028780028F8D102E0641C00F05FF814B139
:1008C00020780028F8D1BDE870400A2000F056B822
:1008D00010B5022803D0410103D50DA112E000207C
:1008E00010BD010101D50FA10CE0C10001D511A17E
:1008F00008E0810001D512A104E0400001D513A158
:1009000000E0002115A0FFF7CAFF012010BD000084
:10091000496E76616C6964204F7065726174696FAD
:100920006E000000446976696465204279205A654A
:10093000726F00004F766572666C6F770000000082
:10094000556E646572666C6F77000000496E65785D
:1009500061637420526573756C7400005349474697
:1009600050453A2041726974686D65746963206509
:100970007863657074696F6E3A20000008B5694647
:100980008DF800000320ABBE08BD000080B500203C
:10099000C4F202001021012201F09AFF80BD000084
:1009A00080B50020C4F202001021002201F090FF67
:1009B00080BD00007047000080B540F20040C4F2E6
:1009C00002000121012201F083FF80BD80B540F2C9
:1009D0000040C4F202000121002201F079FF80BD35
:1009E000B0F9003040F2000CC2F2000C00EE103AF8
:1009F0009CED001AB8EEC00A21EE000A81ED000A53
:100A0000B0F902309CED001A00EE103AB8EEC00AC0
:100A100021EE000A81ED010AB0F9043000EE103A2F
:100A2000B8EEC00A21EE000A81ED020AC37981798D
:100A3000007A1B0243EA0040084400EE100A9FEDD2
:100A4000041AB8EE400A20EE010A82ED000A70474F
:100A500000401C427047000080B50DF019FB80BDBE
:100A600080B50CF0D1FE80BDB0F9002000EE102A58
:100A700040F20402C2F2000292ED001AB8EEC00A7F
:100A800021EE000A81ED000AB0F9023092ED001A61
:100A900000EE103AB8EEC00A21EE000A81ED010A1C
:100AA000B0F9040000EE100AB8EEC00A21EE000A08
:100AB00081ED020A7047000010B5FFF77BFFFFF7DA
:100AC000C9FF0CF0ADFB08B1802402E00CF008FB7C
:100AD00004460CF099FD00281CBF44F0400010BDF6
:100AE0000CF014FD204310BD2DE9F04383B0814686
:100AF000002090460E46CDE90000FFF751FF9220FE
:100B000000F0AAF8922000F0A7F86846451E0624D7
:100B10002F4600BF552000F09FF8013C210607F842
:100B2000010FF7D1FFF732FFBDF90000BDF9021048
:100B300000EE100A40F20000C2F2000090ED001A30
:100B4000B8EEC00ABDF9042021EE000A86ED000AC5
:100B500000EE101A90ED001A02EE102AB8EEC00A4C
:100B6000B8EEC22A21EE000A21EE021A86ED010A31
:100B700086ED021AFFF72AFF802000F06DF80824A6
:100B80002E4600BF552000F067F8013C210606F80C
:100B9000010FF7D1FFF710FF9DF800000F2825D1B6
:100BA000BDF90200BDF9041000EE100A40F2040085
:100BB000C2F2000090ED001AB8EEC00ABDF906209E
:100BC00021EE000A89ED000A00EE101A90ED001ADD
:100BD00002EE102AB8EEC00AB8EEC22A21EE000AD0
:100BE00021EE021A89ED010A89ED021AFFF7D8FEFB
:100BF000A22000F031F8A22000F02EF8022400BF5D
:100C0000552000F029F8013C210605F8010FF7D125
:100C1000FFF7BCFE9DF800009DF80110C00040EAFF
:100C200051104FF600010022CFF6FF71B2EB902F6A
:100C300018BF084300EE100AB8EEC00AB4EE001A5E
:100C400020EE010AB3EE071A30EE010A88ED000A21
:100C500003B0BDE8F083000080B582B08DF80700D6
:100C600041F630404FF47A7CC2F200000DF10701EA
:100C70000DF106020123CDF800C002F031FF9DF80E
:100C8000060002B080BD000002784078D20042EA3F
:100C900050104FF600020023CFF6FF72B3EB902FF7
:100CA00018BF104300EE100AB8EEC00AB4EE001AE6
:100CB00020EE010AB3EE071A30EE010A81ED000AB8
:100CC00070470000FEE7000080B541F6EC00C2F27C
:100CD000000000F081FE80BD80B541F61410C2F224
:100CE000000000F079FE80BD70B50C46054601F0AD
:100CF000EDF8286846F20041C4F2000188420CD0A9
:100D000046F60001C4F20001884218BF70BD41F6EA
:100D1000A076C2F20006022104E041F69C76C2F2FF
:100D200000061021284600F0F1FC346070BD000080
:100D300080B582B040F2142CC2F2000C4FF0000ECD
:100D4000CCE90011CCF8103001AB6146CCE902EEE1
:100D500000F0F0FCB0FA80F0400902B080BD000065
:100D600080B58AB0016846F60002C4F200029142E2
:100D700010D046F20042C4F2000291421ED101217D
:100D800000224FF40073CDE90711069202920393FB
:100D900000920AE001214FF40072CDE90711002111
:100DA00003920E220691029100914FF40073CDE957
:100DB000041269460193099200F00EFD0AB080BD4D
:100DC00080B541F6BC20C2F2000001F00DF980BDF3
:100DD000B0B541F63040C2F20000C16C46F2A0400E
:100DE000C4F202000968A0F1480246F29F05914250
:100DF000C4F2020502D950F89C3C11E046F25803B7
:100E0000C4F2020303F16004A14202D9D3F8A8336B
:100E100006E0994202D953F8543C01E053F8583C9B
:100E2000A9424FF0200414DD46F23F45C4F202050A
:100E3000A94223DC46F2A005C4F20205A9422CD047
:100E400046F21045C4F20205A94237D046F22845C1
:100E50002EE046F23F05C4F20205A94220DD46F22B
:100E60004005C4F20205A94217D046F27005C4F24B
:100E70000205A94222D046F2880519E046F2404513
:100E8000C4F20205A94208D046F27045C4F2020538
:100E9000A94213D046F288450AE04FF400140DE051
:100EA00046F21005C4F20205A94207D046F2280511
:100EB000C4F20205A94278D14FF400642340002B0C
:100EC00000F0E880914210D946F27042C4F202026A
:100ED000914246D046F28842C4F20202914244D185
:100EE0004FF4006240F8942C7EE046F25802C4F2BF
:100EF000020202F16003994218D946F21042C4F28C
:100F00000202914258D046F22842C4F202029142B3
:100F100056D046F24042C4F2020291420CBF4FF456
:100F200000114FF0006140F8981C5DE0914225D916
:100F300046F27000C4F20200814246D046F28800B8
:100F4000C4F20200814244D046F2A000C4F2020082
:100F500081420CBF4FF400104FF0006042F84C0C7F
:100F600042E0202240F8942C3EE04FF000628142A3
:100F700008BF4FF4001240F8942C35E046F2100000
:100F8000C4F20200814229D046F22800C4F20200D5
:100F9000814225D046F24000C4F2020081420CBFDB
:100FA0004FF400104FF000601CE04FF000648142ED
:100FB00008BF4FF4001481E7202140F8981C13E08B
:100FC0004FF4006140F8981C0EE0202042F84C0CD1
:100FD0000AE04FF4006042F84C0C05E0202001E0EC
:100FE0004FF4006042F8500C41F65805C2F200057B
:100FF000287800248007C4F202040DD52878012146
:1010000000F0FD0028702878012240F004002870CC
:1010100004F5806001F05CFC41F29970C2F20000BE
:10102000017889070CD50178012201F0FD010170DA
:10103000017841F0040101702046102101F048FCC4
:1010400041F29870C2F20000017889070CD501784E
:10105000012201F0FD010170017841F004010170ED
:101060002046102101F034FC0CF078FD2878400770
:1010700058BFB0BD287800F0FB002870287840F0F9
:101080000800287043F61040C4F20100016841F0E6
:1010900001010160B0BD000080B541F61C30C2F214
:1010A000000000F0A1FF80BD80B541F6FC10C2F247
:1010B000000000F099FF80BD80B541F69C10C2F29F
:1010C000000000F091FF80BD80B541F67C30C2F297
:1010D000000000F089FF80BD80B541F65C20C2F2BF
:1010E000000000F081FF80BD7047000080B5012046
:1010F00001F00AFB80BD000080B5082001F004FB70
:1011000080BD000080B5102001F0FEFA80BD000017
:1011100080B5202001F0F8FA80BD00007047000083
:101120002DE9F04141F6A478044643F60C46C2F29C
:1011300000080020C4F20206C8F81C0001F0CEFB33
:101140003168C90345D43068C0071CBF0120306036
:10115000306810F0F20F43D03068C00607D5D8F8D9
:101160001C0040F01000C8F81C00102030603068EF
:10117000800607D5D8F81C0040F00800C8F81C000D
:10118000202030603068400607D5D8F81C0040F0B9
:101190000400C8F81C00402030603068000607D505
:1011A000D8F81C0040F00200C8F81C008020306015
:1011B000306880075CBF0120BDE8F081D8F81C00D2
:1011C00040F02000C8F81C00022030600120BDE87B
:1011D000F0810546671C07D05CB90320BDE8F081AB
:1011E0000020BDE8F08100BF3068C003ABD5002F00
:1011F000FAD001F073FB401BA042F5D90320BDE8F3
:10120000F081000041F2F840C2F20000006841F2B3
:10121000F4410068C2F20001406A0968C1EB014173
:101220000844704770B581B00022009290F83C20CD
:10123000012A01D1022176E00E6801221FFA86FC04
:1012400080F83C204FEA4C0212FA86F302680A2E1C
:1012500032BF10321E3B0C324FF0070E15680EFAEB
:1012600003F4A54315608D68146805FA03F323435E
:1012700013604968062906D8026801EB8101053927
:1012800002F134030AE00C2901EB8101026887BFF7
:10129000413902F12C03233902F130031F221C686B
:1012A0008A4024EA02021A601A680CFA01F111431A
:1012B00042F2043E1960C4F2010E0168AEF54172BB
:1012C000914208BF122E02D0914208D028E0DEF8E9
:1012D000003043F48003CEF80030914220D126F054
:1012E000010110291CD1DEF80010102E41F400017C
:1012F000CEF8001014D140F20C01C2F200010968CE
:101300004DF68362C4F21B32A1FB0212910C01EB79
:10131000810149000091009911B100990139F9E763
:10132000002180F83C10084601B070BD0068C06C18
:1013300070470000002804BF0120704710B5044624
:10134000006C30B9204600F09BF80020606484F8FF
:101350003C00206CC0063AD4206C41F20211884354
:10136000023042F204312064C4F20101086820F422
:10137000403008600A6894E809101A43D4F810E075
:101380000A604168012321F4807141604168C0F620
:10139000007341EA0E214160416821F040714160D3
:1013A000416841EA0C014160816821F4006181607B
:1013B000E168826811438160A16A8268994222F0E3
:1013C00070628260826804D122F040510AE00120FC
:1013D00052E011438160816821F040518160E16AEF
:1013E000826811438160816821F002018160816817
:1013F000227E94F8203041EA42018160416883B145
:1014000041F40061416041684EF2000221F4604104
:101410004160616ACFF6FF72436802EB41311943C4
:1014200001E021F400614160C16A40F2000C21F446
:101430007001C162E2696169CFF6F07CC36A0CEBAE
:1014400002521A43C262826822F40072826094F8E7
:101450003020836843EA42228260826822F48062FC
:101460008260826842EA8121816000206064216C90
:10147000012262F301012164002184F83C1010BDB7
:1014800080B586B0006842F20022C4F20102002159
:101490009042CDE90411CDE90211019116D042F23A
:1014A0000001C4F20101884238D10020009043F6C7
:1014B0004400C4F20200016841F4807101600068D8
:1014C00000F480700090009806B080BD43F64400A0
:1014D0000091C4F20200026842F480620260026875
:1014E00002F480620092009A009150F8142C42F0AD
:1014F000200240F8142C50F8140C00F0200000904A
:1015000000984FF4806001900320CDE9020141F280
:101510000040C4F2020001A901F004F906B080BD48
:10152000F0B581B0044600680D468268520544BF9C
:1015300080685FEAC0502BD401F0D0F921680A68B6
:10154000920715D406466F1C08E000BF20680068AB
:10155000800727D521680868800709D4002FF9D0B3
:10156000002DF3D001F0BAF9801BA842EED8F1E7C4
:101570006FF012000860206C40F4007020648868EE
:1015800010F0405F01D1207EB0B1002001B0F0BD6D
:10159000206C40F020002064002084F83C000120F2
:1015A00001B0F0BD206C40F004002064002084F8FD
:1015B0003C00032001B0F0BDC86A10F4700F02D0E7
:1015C00088684005E1D4206C20F480702064206C91
:1015D000C004DAD4206C40F001002064D5E700009C
:1015E00010B581B00021009190F83C10012902D182
:1015F000022001B010BD0468012180F83C10214692
:1016000051F8083FDB0717D10B684DF6836243F0B2
:1016100001030B6040F20C03C2F200031B68C4F22A
:101620001B32A3FB02239A0C02EB42020092009AA7
:1016300012B1009A013AF9E70A68036CD20709D19E
:1016400043F01001016400F1440101200A681043D5
:10165000086055E040F2017223EA020202F580724E
:1016600002646268520504D5026C012363F30D32F3
:101670000264026C4FF0000E0023D20444BF426C9F
:1016800022F0060342F2043C436480F83CE06FF031
:101690002200C4F2010C2060DCF80000C0060DD06E
:1016A000ACF5417084422BD14FF60450CFF6FF7059
:1016B0005CF8000010F0405F22D124E042F200000C
:1016C000C4F20100844217D042F20020C4F20100AB
:1016D00084420DD042F20010C4F2010084420FD1C6
:1016E000DCF80000C00607D0ACF58270844207D158
:1016F000DCF80000C00603D4086810F0405F02D098
:10170000002001B010BD4FF080409FE790F82020EE
:10171000013A012A04D8006800F11402002004E014
:1017200000F1240201204FF4802113681943116055
:101730007047000010B590F820E0D0F800C0AEF17E
:10174000010EBEF1010FDCF808E00DD81EF0E05FDD
:1017500010D0CEF3016EBEF1030F11D100F12401C0
:1017600001204FF4000233E000F1240101204FF486
:1017700080222DE000F1240101204FF4001227E027
:10178000012000FA0EF01860886818B14B6840EA32
:10179000C30001E008684005D1E9033403430CEBC2
:1017A0000E10C0F88031C0F88441097D012905D1AF
:1017B00000F5C2710B6843F480730B605168C0F888
:1017C0008C11126800F5C071C0F888210020012238
:1017D0000B681A430A6010BDB0B590F82020013A9A
:1017E000012A2FD846F20060C4F20000026842F0DD
:1017F00001020260026822F47C520260D1F814E017
:10180000CC694A6A0368012C43EA022202600EF0A6
:101810001F024FF0010303FA02F2C3696FEA020CE0
:1018200023EA0203C36113D02CBBC36803EA0C0391
:10183000C360CB688C8844EA034300EBCE04236486
:101840000B4611E0416A41F4802141620120B0BDA4
:10185000C3681343C3600B688C8844EA034300EBFE
:10186000CE04236401F10C038C681B8843EA044313
:1018700000EBCE04636443688D6943EA0204D1F847
:1018800010E0096A002D08BF03EA0C0444604369B4
:10189000BEF1000F43EA020408BF03EA0C04012969
:1018A000446102D1C1691143C161016821F00101A4
:1018B00001600020B0BD00007047000010B590F836
:1018C0002040013C012C0CD8D0F800C079B1DCF8E4
:1018D0001040A4070FD100F1240101204FF40012A1
:1018E00070E000F1240101204FF480226AE0DCF86E
:1018F0000C40A4076AD0046804EB011CDCF8B0417A
:101900000CF5D87E14F004049460DCF8B04119BFE3
:10191000E4085460640D1460DEF80040002904F00F
:101920000204D460DCF8B44104F00F041461DCF864
:10193000B441C4F307249461DCF8B4414FEA144481
:101940005461DCF8B8211A70026802EB0112D2F877
:10195000B8214FEA12225A70026802EB0112D2F843
:10196000B8214FEA12429A70026802EB0112D2F8D3
:10197000B8214FEA1262DA70026802EB0112D2F863
:10198000BC211A71026802EB0112D2F8BC214FEAA5
:1019900012225A71026802EB0112D2F8BC214FEAFE
:1019A00012429A71026802EB0112D2F8BC214FEA8E
:1019B0001262DA71006814BF00F1100100F10C012D
:1019C000002020220B681A430A6010BD00F1240198
:1019D00001204FF40012F5E72DE9F04F81B00446E5
:1019E00000684669D0F804908768D0F80CB0D0F849
:1019F00010A0D0F81880F10703D1002530071CD4BF
:101A000023E0F90710D00121BA07816009D47807D3
:101A100000F1AA80380700F1B080204600F084FA77
:101A200002E0204600F082FA0025F80500F18480EB
:101A3000F80300F1AA80300707D51BF0100004D08E
:101A4000206845F400751021C160700708D51BF0AF
:101A5000080005D020680821C160204600F0E4F9A4
:101A6000B00706D52068C068800702D0204600F085
:101A7000DDF9700607D51AF0100004D0206845F48F
:101A8000806510210161B00608D51AF0080005D064
:101A9000206808210161204600F0EEF9F00606D525
:101AA00020680069800702D0204600F0E7F9B00303
:101AB00008D519F0100005D020681021416020469B
:101AC00000F002FAF00308D519F0080005D02068EC
:101AD00008214160204600F033FA300440F18F8045
:101AE0005FEA497040F1888006F4807008EA1020AF
:101AF00028435FEA8871014648BF41F00201B20500
:101B000058BF01465FEA48700D4648BF45F00405DE
:101B1000700558BF0D4630056ED518F070006BD0BB
:101B200010380009052862D8DFE800F00353565941
:101B30005C5F45F008055AE020684FF48071BA05F3
:101B400081600AD4780512D4380519D4204600F0F3
:101B5000EFF9F8037FF56FAF17E0204600F0EAF9E0
:101B6000F8037FF568AF10E04FF400655DE705F519
:101B70000055F8037FF55FAF07E04FF4805554E759
:101B800005F58045F8037FF556AF20684FF48031A6
:101B9000BA0381600AD478030FD4380313D42046E3
:101BA00000F0CAF930073FF548AF4EE7204600F095
:101BB000C5F930073FF541AF47E705F50045300768
:101BC0003FF53BAF41E705F5803530073FF535AFD1
:101BD0003BE745F010050AE045F0200507E045F039
:101BE000400504E045F0800501E045F4807520687B
:101BF000816921F0700181612068042141602DB16B
:101C0000606A284360622046FFF756FE01B0BDE8D7
:101C1000F08F0000B0B5C8B1044690F8200010B9AC
:101C2000204600F071F82068016841F00101016070
:101C300000F054FE054600BF20684168C90707D17F
:101C400000F04CFE401B0B28F6D312E00120B0BD83
:101C5000016821F00201016000F040FE054600BF6E
:101C60002068416889070DD500F038FE401B0B281D
:101C7000F6D3606A052140F400306062012084F8E8
:101C80002010B0BD217E0268012922F0800208BF29
:101C900080320260617E0268012922F0400208BFA2
:101CA00040320260A17E0268012922F0200208BFB2
:101CB00020320260E17E0268012922F0100218BF82
:101CC00010320260217F0268012922F0080208BF59
:101CD00008320260617F0268012922F0040208BF15
:101CE00004320260D4E901C2D4E9033561691A43C0
:101CF0002A431143ACF101021143C16100200121CB
:101D0000606284F82010B0BD10B586B0006846F659
:101D10000002C4F2000200219042CDE90411CDE995
:101D20000211019134D046F20041C4F20001884210
:101D300077D140F60C71C2F200010A6843F6400008
:101D4000C4F20200531C0B6052B9002100910168DB
:101D500041F000710160016801F00071009100998B
:101D60000021009150F8101C152441F0080140F8A2
:101D7000101C50F8100C00F0080000900098032090
:101D8000019040F20040C4F2020000F5006035E02E
:101D900043F64000C4F202000091016841F0806106
:101DA0000160016801F080610091009940F60C71BA
:101DB000C2F200010A68531C0B6052B90021009165
:101DC000016841F000710160016801F0007100914B
:101DD00000990021009150F8101C402441F00201AC
:101DE00040F8101C50F8100C00F002000090009811
:101DF0006020019040F20040C4F2020002210291F2
:101E000000210391032104910921059101A900F00A
:101E100089FC20460521002201F0B2F9204601F09C
:101E20009FF906B010BD000070470000B0B5016812
:101E300046F20042C4F2000291420BD046F6000284
:101E4000C4F20002914218BFB0BD41F6A075C2F2C3
:101E5000000503E041F69C75C2F2000540F6B86447
:101E6000C2F2000404F10C0200212346FFF726FD14
:101E7000296820468847B0BD70470000B0B50168AA
:101E800046F20042C4F2000291420BD046F6000234
:101E9000C4F20002914218BFB0BD41F6A075C2F273
:101EA000000503E041F69C75C2F2000540F6E064CF
:101EB000C2F2000404F10C0201212346FFF7FEFCEC
:101EC000296820468847B0BD70470000B0B5044679
:101ED00090F8200001281DD1022084F820002068FD
:101EE000016821F00101016000F0F8FC054600BF27
:101EF00020684068C00713D000F0F0FC401B0B289E
:101F0000F6D3606A40F400306062052084F8200057
:101F10000120B0BD606A40F4002060620120B0BDC5
:101F200000206062B0BD00007047000070470000F4
:101F300070470000704700007047000070470000C5
:101F40007047000070B5866D044600F0C7FC94F839
:101F50003510022925D105462068216C026822F03F
:101F600016020260426922F08002426109B9A16C46
:101F700019B1016821F008010160016821F0010137
:101F8000016000BF20680068C0070ED000F0A6FC0A
:101F9000401B0628F6D320206065032084F8350016
:101FA0000CE080206065012008E0E06D3F2101FA2F
:101FB00000F0B060012084F835000020002184F892
:101FC000341070BD90F83510022909D1052180F830
:101FD00035100068016821F00101016000207047A0
:101FE0008021416501207047F0B581B00446002092
:101FF000009040F20C00C2F200000268D4E91660C2
:1020000048F2B51337680821C1F64E338140394292
:10201000A2FB03250CD0226813685B0708D5136860
:1020200023F004031360B160616D41F0010161654B
:1020300001218140394208D022685269120604D534
:10204000B160616D41F00201616504218140394256
:1020500008D022681268920704D5B160616D41F022
:102060000401616510218140394215D02068026861
:10207000120711D5B16002680168520306D4C90580
:1020800006D4016821F00801016001E0080340D492
:10209000216C09B120468847E16D202000FA01F249
:1020A0003A4242D020680368DB063ED5B26094F81D
:1020B00035300268052B1CD122F0160202604269FD
:1020C00022F080024261226C0AB9A26C1AB1026845
:1020D00022F0080202603F208840B060012084F8AE
:1020E0003500216D0020002984F834003DD101B075
:1020F000F0BD0168520310D4C90512D4016821F063
:1021000010010160012084F83500002084F83400BB
:1021100007E0A16C0029BDD1BEE7080301D4616CC2
:1021200000E0E16B09B120468847606D0028DED0F1
:10213000606DC00716D0052084F835002068A90A14
:10214000026822F001020260009A01328A42009283
:1021500002D80268D207F7D1012084F835000020A8
:1021600084F83400E16C0029C1D02046884701B0D2
:10217000F0BD00002DE9F041044600F0AFFBC4B112
:102180000546022084F835000020216884F83400D8
:10219000086820F00100086020680168C9070BD0BA
:1021A00000F09CFB401B0528F6D9032120220320C8
:1021B0007BE00120BDE8F081016848F23F02CFF2E8
:1021C0001002D4E9013501EA020ED4E9032143EA01
:1021D0000E032B43D4E9056C1A431143D4E9077865
:1021E000314341EA0C02616A3A43042942EA080396
:1021F00004D1D4E90B271A4342EA0703036042697A
:10220000042922F0070241EA02012DD1D4E90A5340
:1022100041EA050143B3BCF5005F08D0BCF1000FF3
:1022200012D1022D16D0012D07D09DB119E0032D3A
:1022300017D8DFE805F00B0F0B02A3F1C072B2FA5A
:1022400082F252094AB90FE0032D02D2012222B9CB
:102250000AE006D1C3F3006232B10121402201201D
:1022600023E00022002AF8D16FF00F024AF6AB23D8
:1022700052FA80F2CAF6AA23A2FB033742F62633AB
:1022800041613909C0F60103595C40F2FF339843BC
:102290005F2A4FF03F0288BF0430C4E9160102FAFA
:1022A00001F18160002201210020626584F835106F
:1022B000BDE8F08170B590F834C0BCF1010F45D095
:1022C0004FF0010C80F834C0D0F858E090F835C0D9
:1022D000BCF1010F37D14FF0020C80F835C04FF040
:1022E000000CC0F854C0D0F800C08468056CC06D04
:1022F000DCF80060402C26F48026CCF80060CCF896
:1023000004300B4604BF13460A463F2101FA00F091
:10231000CCF80830CCF80C20CEF80800DCF800002F
:1023200040F01600CCF800002DB1DCF8000040F0C1
:102330000800CCF80000DCF8000040F00100CCF808
:102340000000002070BD002180F83410022070BD14
:10235000B0B5044600F0C2FA054640F2C800C2F229
:1023600000000078611C18BF044400BF00F0B6FAFA
:10237000401BA042FAD3B0BD2DE9F04381B041F635
:10238000A478C2F2000898F81820012A03D102208C
:1023900001B0BDE8F0830546012088F818004CF232
:1023A00050308946FEF7BCFE002840F093804FF085
:1023B000FF31C9F80010296843F610470129C4F21B
:1023C000020718D128693968000221F44071396088
:1023D000396880B241F0040139603968084340F43B
:1023E000803038604CF25030FEF79AFE396821F0A8
:1023F0000401396036E0D5E9026131448E4231D2C0
:10240000F000841C28694FF44072C1B20329396876
:102410004FEA002021F440713960396838BF82B238
:1024200041EA02003860386820F0F8003860386807
:1024300020433860386840F4803038604CF25030C7
:10244000FEF76EFE396821F0FA01396040B9D5E92E
:102450000212013611448E4204F10804D2D301E085
:10246000C9F8006057F8101C890517D557F8101CDB
:1024700021F4007147F8101C57F8101C41F400615A
:1024800047F8101C57F8101C21F4006147F8101C85
:1024900057F8101C41F4007147F8101C57F8101C35
:1024A000490517D557F8101C21F4806147F8101C16
:1024B00057F8101C41F4805147F8101C57F8101CB5
:1024C00021F4805147F8101C57F8101C41F480612A
:1024D00047F8101C002188F8181001B0BDE8F083FF
:1024E00043F61041C4F20201086840F000420020A7
:1024F0000A6070472DE9F04381B041F6A474C2F23E
:1025000000049046227E012A03D1022001B0BDE8DA
:10251000F0830746012020764CF250301E460D46CF
:10252000FEF7FEFD002866D143F61049022FC4F2E3
:10253000020915D0012F28D0E7BBD9F8000020F4FC
:102540004070C9F80000D9F80000C9F80000D9F8B7
:10255000000040F00100C9F8000085F8008040E06C
:10256000D9F8000020F44070C9F80000D9F8000044
:1025700040F40070C9F80000D9F8000040F00100F4
:10258000C9F80000C5F800802BE0D9F8000020F45D
:102590004070C9F80000D9F8000040F48070C9F814
:1025A0000000D9F8000040F00100C9F80000A5F8CB
:1025B000008016E0D9F8000020F44070C9F800004F
:1025C000D9F8000040F44070C9F80000D9F80000C4
:1025D00040F00100C9F80000C5F80080BFF36F8F1C
:1025E0006E604CF25030FEF79BFDD9F8001021F0E0
:1025F0000101C9F800100021217601B0BDE8F08387
:1026000043F60440C4F20200C168B1F1FF3FC4BF09
:102610000020704740F22311C4F26751016048F670
:10262000AB11CCF6EF510160C068C00F70470000DD
:1026300010B501381F2830D8DFE800F0102F2F2FF9
:102640002F2F2F4A2F2F2F2F2F2F2F302F2F2F2F7E
:102650002F2F2F2F2F2F2F2F2F2F2F530DF0ECF841
:1026600001281AD040F67870C2F2000040F60874D3
:102670000068C2F2000421460CF01AFB2068002812
:1026800008BF10BD4EF60450CEF200004FF080514E
:102690000160BFF34F8FBFF36F8F10BD41F2997090
:1026A000C2F20000017841F00101017041F298701E
:1026B000C2F20000017841F00101017041F614708E
:1026C000C2F2000000780028E7D00BF047FA10BDF6
:1026D00041F69070C2F20000017841F001010170F2
:1026E00010BD41F65800C2F20000017841F001012E
:1026F000017041F61470C2F2000000780028CCD0BE
:102700000BF02CFA10BD000080B543F61441C4F262
:1027100001010A68024208BF80BD0860FFF788FF18
:1027200080BD00002DE9F04F82B000F13E4241F63D
:10273000004502F1FF77C4F2020508224FEAB726EE
:10274000A84208BF0722072E38BF4FEAB7224FF032
:10275000010A002400274FF00009009209E000BFA1
:1027600009F101090437B9F1100F04F1020400F076
:10277000A6800A680AFA09FC12EA0C08F0D0D1F81F
:1027800004B00BF0030AAAF10102012A12D88268F0
:102790000323CE6803FA04FE22EA0E02A640324367
:1027A00082604268CBF3001622EA0C0206FA09F6B0
:1027B00032434260BAF1030F1DD0C26803238D6813
:1027C00003FA04F6B24305FA04F63243BAF1020FF3
:1027D000C26010D16FF0030202EA59020244D2F83B
:1027E00020C007F01C050F230E69AB402CEA030341
:1027F000AE4033431362026803234E68A3409A43FA
:1028000006F00303A3401A4316F4403F4FF0010AB9
:102810000260A5D0002243F644030192C4F20203F1
:102820001A6843F6004E42F480421A601A68C4F2F5
:10283000010E02F480420192019A29F003024FF640
:10284000084C7244CFF6FF7C52F80C3007F00C06AF
:102850000F25B540AB43009D05FA06F6334342F819
:102860000C30DEF808204B6842EA080643F60C4CB0
:10287000DD0258BF22EA0806CEF80860C4F2010C57
:10288000DCF800209D0242EA080658BF22EA08064A
:10289000CCF80060DEF804209D0342EA080658BF29
:1028A00022EA0806CEF80460DEF80020DB0342EAE4
:1028B000080658BF22EA0806CEF8006050E702B0CA
:1028C000BDE8F08F0069084018BF01207047000084
:1028D000002A08BF090481617047000045F6EC40FA
:1028E000C2F2000000687047F0B581B0B0B3044692
:1028F00090F83D0028B9002084F83C00204600F004
:102900002FFB242084F83D002068016821F001019C
:102910000160016841F400410160016821F4004157
:10292000016000F099FD48F28041C0F21E0140F6BE
:102930000012656888424FF00001C0F23D0248F283
:10294000A16C4FF0000338BF01219042C0F2010C8E
:1029500038BF0123654538BF0B4613B1012001B0D4
:10296000F0BD4DF68361C4F21B31A0FB011221685A
:102970004FEA924E4B684FF4967623F03F0343EABA
:1029800092434B6044F6D3530F6A0EFB06F6C1F236
:102990006203A6FB033627F03F03B709654538BF3E
:1029A000970C7A1C1A430A62CA6948F2A0674CF66F
:1029B000FF73C0F20107BD4222EA030C0AD80138B6
:1029C0006A00B0FBF2F001306FF31F30042898BFAB
:1029D00004202BE0A368A0F1010E9BB119206843ED
:1029E000BEFBF0F00422013062F31F30000512D06C
:1029F0009BB119206843BEFBF0F00422013062F362
:102A00001F3011E005EB4500BEFBF0F001306FF325
:102A10001F300005ECD1012008E005EB4500BEFBAE
:102A2000F0F001306FF31F3040F4004040EA0C003A
:102A3000C8610868D4E9072320F0C0001043184398
:102A40000860886848F2FF3204F10C0790438CCF8D
:102A500018431043A6698860C86820F0FF00384317
:102A60003043C860086840F0010008600020202161
:102A7000206484F83D10206384F83E0001B0F0BD6E
:102A80002DE9F04F83B0984617460E460446FFF7EF
:102A900025FF94F83D10202920D1DDE90CBA054628
:102AA0002068806910F0020914D0FFF717FF401B5F
:102AB0001A28F5D300202021206384F83D1084F8E3
:102AC0003E00216CB9F1000F41F02001216484F82F
:102AD0003C0003D194F83C00012803D1022003B04C
:102AE000BDE8F08F0121206884F83C100168C90717
:102AF00003D1016841F0010101600168DDF83890FF
:102B000021F400610160222084F83D00402084F817
:102B10003E0000202064C4F824B0A4F82AA0608DF0
:102B2000314620850020CFF6FF70E06220463A460D
:102B30004346CDF80090019502F096FB18B10120B4
:102B400003B0BDE8F08F208D022806D0012810D0F8
:102B500000BB00200290206812E02068016821F488
:102B600080610160016841F400610160002102910F
:102B700013E02068016821F4806101600021029166
:102B800041690291816902910299016841F40071E1
:102B9000016007E00020029020684169029180698D
:102BA00002900298208D002800F0EB804FF0010B7E
:102BB00009F101074FF000084FF0200A042817D24E
:102BC00002283CD0012854D120684169490600F10F
:102BD000D3804169C90600F1DB80FFF77FFEB9F1C0
:102BE000000F00F0E180401B4845EDD9DCE000BF5C
:102BF0002068416949060DD44169C90600F1C880C1
:102C0000FFF76CFEB9F1000F00F0CE80401B484585
:102C1000EED9C9E02068616A00690870606A228D97
:102C20000130013A606222852168628D013A628535
:102C30004A69520740F19B80096901708EE0206863
:102C4000406910F0040075D18BEA900606E0206818
:102C5000406910F004008BEA90066BD1002FF6D08B
:102C6000FFF73CFEB9F1000F55D0401B4845EED9A7
:102C700051E02068406910F0040022D18BEA9006F0
:102C800006E02068406910F004008BEA900618D135
:102C9000002FF6D0FFF722FEB9F1000F02D0401B43
:102CA0004845EED9C4F8308084F83DA084F83E80D1
:102CB000206C40F020002064F00784F83C807FF412
:102CC0003EAF2068616A026822F480620260006997
:102CD0000870606A216801306062208D01382085AB
:102CE000608D01386085486910F0040022D18BEABC
:102CF000900606E02068406910F004008BEA900618
:102D000018D1002FF6D0FFF7E9FDB9F1000F02D07E
:102D1000401B4845EED9C4F8308084F83DA084F8C3
:102D20003E80206C40F020002064F00784F83C8056
:102D30007FF405AF2068616A026842F400720260A5
:102D400000690870606A2268411C6162218D013946
:102D50002185618D0139618511694170606A218D1C
:102D600001306062481E2085608D01386085208DAD
:102D700000287FF423AF04E02068616A00690870CE
:102D8000ECE7202084F83D00002084F83E0017E0A6
:102D90006FF01001416100202021206384F83D1074
:102DA00084F83E00206C09E000202021206384F894
:102DB0003D1084F83E00206C40F02000206401208B
:102DC000002184F83C1003B0BDE8F08F2DE9F04FEE
:102DD00083B0994616460F460446FFF77FFD94F8E8
:102DE0003D10202922D1DDF83880DDF830B00546CD
:102DF0002068806910F0020A14D0FFF76FFD401BB5
:102E00001A28F5D300202021206384F83D1084F88F
:102E10003E00216CBAF1000F41F02001216484F8DA
:102E20003C0003D194F83C00012803D1022003B0F8
:102E3000BDE8F08F0121206884F83C100168C907C3
:102E400003D1016841F0010101600168324621F4BB
:102E500000610160212084F83D00402084F83E009C
:102E6000002020640D98C4F824B06085608D394638
:102E700020850020CFF6FF70E06220464B46CDF85B
:102E80000080019502F018FB18B1012003B0BDE8E5
:102E9000F08F208DA8B308F1010600BF206850F81C
:102EA000141F09060FD40168490540D4002EF5D03F
:102EB000FFF714FDB8F1000F4FF020013BD0401B8D
:102EC0004045EBD937E0606A2168034613F8012BCF
:102ED0000A61228D6362531E2385678D013F6785DA
:102EE0004F697F070AD51B0408D0437802300B6175
:102EF0006062901E2085608D01386085208D0028DD
:102F0000CCD1204641462A4602F0C0FBF8B92068E1
:102F1000016841F400710160202084F83D00002028
:102F200084F83E0084F83C0003B0BDE8F08F6FF4F5
:102F300080610160042100202022206384F83D206C
:102F400084F83E00226C1143216484F83C00206C1C
:102F500004289AD12068016841F40071016094E767
:102F60002DE9F04786B045F600460068C4F2000639
:102F70000025B0420595CDE903550295019502D093
:102F800006B0BDE8F08743F630070095C4F20207AB
:102F9000386801AC40F00400386038684FF012081F
:102FA00000F0040000900098009538684FF0030985
:102FB00040F00100386038684FF0040A00F001006A
:102FC000009000984FF40070019006F5D63021462D
:102FD000CDE90285CDF81090CDF814A0FFF7A2FB43
:102FE0004FF48070CDE9010803A880E8200606F5BB
:102FF000D2302146FFF796FB0095386940F4000077
:103000003861386900F400000090009806B0BDE80F
:10301000F087000040F2C80045F6EC41C2F2000023
:10302000C2F2000100780A6810440860704700008E
:1030300080B543F60040C4F20200016841F400711B
:103040000160016841F480610160016841F48071B0
:103050000160032000F0C0F8002000F005F800F047
:103060005BF8002080BD000070B586B0002543F6F7
:1030700040010195C4F202010A68044642F01002C0
:103080000A60096801A801F01001019101996946DF
:1030900000F0C2F9049E002E18BF012600F0DCF9F2
:1030A0004DF68361B040C4F21B31A0FB01014FF02B
:1030B000FF3000EB914141F6006041F20002C2F2A4
:1030C0000000C4F2000240F2E733C0E90021C0E989
:1030D00002530561856100F073FE0546C0B941F6F3
:1030E0000060C2F2000000F063FF054680B93620A0
:1030F00000F036F80F2C0AD836202146002200F0C6
:103100003FF840F2CC00C2F20000046000E001256C
:10311000284606B070BD000080B582B0002043F69E
:1031200040010190C4F202014A6842F480424A60C0
:103130004A6802F480420192019A009008680022D5
:1031400040F08050086008680F2100F08050009027
:1031500000986FF0010000F013F802B080BD00008D
:10316000002848BF704700F01F01012202FA01F158
:103170004EF200124009CEF2000242F820107047D1
:1031800010B54EF60C5CCEF2000CDCF80030C3F348
:10319000022E8EF00704042C28BF0424BEF1030382
:1031A0004FF0FF3E0EFA04F438BF0023A1439940CC
:1031B0000EFA03F39A4300F00F03043B11436344F8
:1031C00009010C3300F16042B0F1FF3FC8BF02F5C6
:1031D0006443197010BD00004EF60C51CEF2000190
:1031E0000A684FF6FF031A4060F30A2242F080603B
:1031F00040F0FD700860704709F0F4FE47F2000CE3
:10320000C4F2000CDCF80030026823F0E00343F65F
:1032100000411A43C4F20101CCF800204A6822F4AC
:1032200080324A600A6822F480320A608A6822F496
:1032300080328A60CA6822F48032CA604068C20361
:103240000FD4820313D4C20703D08A6842F48032B9
:103250008A60800758BF7047C86840F48030C860F3
:1032600070470A6842F480320A608203EBD54A68EC
:1032700042F480324A60C207EBD0E6E71020C4F285
:103280000E2001210160704780B5012080F3138872
:10329000FFF7B2FF80BD000010B543F61444C4F23E
:1032A00001042068C00358BF10BDFFF7EDFF4FF4C5
:1032B0008030206010BD00002DE9F041002800F0B2
:1032C0008B8043F60808C4F202080446D8F8F803D5
:1032D0000D4600F00700884207D288F8F853D8F866
:1032E000F80300F00700A84276D12068810717D5BF
:1032F000410705D5D8F8001041F4E051C8F8001096
:10330000010705D5D8F8001041F46041C8F8001055
:10331000D8F80010A26821F0F0011143C8F800109D
:10332000C0073FD1D8F8F80300F00700A84207D93A
:1033300088F8F853D8F8F80300F00700A8424BD1FA
:103340002068410707D5D8F80010E26821F4E05161
:103350001143C8F80010000708D5D8F8000021690B
:1033600020F4604040EAC100C8F8000000F09CF87A
:10337000D8F8001042F29872C1F30311C0F60102AE
:10338000515C40F20C0220FA01F140F2CC00C2F292
:1033900000000068C2F200021160FFF765FE002025
:1033A000BDE8F0816068811E022907D258F8081C28
:1033B00089015CBF0120BDE8F08110E0012807D140
:1033C00058F8081C89035CBF0120BDE8F08106E0C5
:1033D00058F8081C890702D40120BDE8F081D8F80C
:1033E000001021F003010843C8F80000FFF776FA47
:1033F000064641F2883700BFD8F80000616800F047
:103400000C00B0EB810F8DD0FFF768FA801BB8423B
:10341000F2D90320BDE8F0810F22026043F60802D2
:10342000C4F20202136803F003034360136803F05D
:10343000F0038360136803F4E053C360D2F800C064
:103440004FF4E05303EADC030361D2F8F80300F021
:10345000070008607047000040F20C0043F60801C6
:10346000C2F20000C4F202010068096842F2A872C8
:10347000C1F38221C0F60102515CC84070470000D0
:1034800040F20C0043F60801C2F20000C4F202014F
:103490000068096842F2A872C1F34231C0F6010225
:1034A000515CC8407047000010B543F60404C4F2F4
:1034B0000204606800F00C0008280AD0042819BF34
:1034C00042F20040C0F2F40041F60030C0F2B70012
:1034D00010BD206821682368490241F60031C0F21E
:1034E000B70100F03F02C3F388105CBF42F2004115
:1034F000C0F2F401A1FB00010023FCF73DFF2168AD
:103500000222C1F3014102EB4101B0FBF1F010BD19
:103510002DE9F04182B0002800F0A2800446007836
:1035200043F60006C007C4F2020643D0B06800F0BC
:103530000C00042805D1306880033BD56068C8BB07
:103540008EE0B06800F00C00082802D170684002DC
:10355000F1D46568B5F5A02F0AD0B5F5803F0BD042
:10356000306820F480303060306820F4802006E03D
:10357000306840F480203060306840F48030306043
:10358000FFF7ACF9002D054611D000BF306880036D
:1035900010D4FFF7A3F9401B6428F7D922E100BF3C
:1035A000FFF79CF9401B64284FF0030055D83068A2
:1035B0008003F5D4207880071AD5B06810F00C0F7E
:1035C00009D0B06800F00C00082840F08A807068CC
:1035D000400200F186803068800702D5E06801284B
:1035E0003ED13068216920F0F80040EAC100306027
:1035F0002078000738D4207840074CD4A5695DB303
:10360000B06800F00C00082840F09E80012D27D003
:103610007068E16900F480028A4221D1216A00F0D9
:103620003F028A421CD147F6C071626A0140B1EB89
:10363000821F15D1A26A0023CFF6FF7303EBC232BB
:1036400000F440316FF30F02914209D1E16A00F0BA
:103650007060B0EB016F03D1002002B0BDE8F081D3
:10366000012002B0BDE8F0816069002840F200004E
:10367000C4F2472057D00121C0F8801EFFF72EF971
:10368000054600BF706F8007B5D4FFF727F9401BD0
:103690000228F7D9A6E0306C10F080580AD100203B
:1036A0000190306C40F080503064306C00F08050FD
:1036B0000190019847F20007C4F200073868C0057E
:1036C00024D4386840F480703860FFF707F9054665
:1036D0003868C0051AD4FFF701F9401B0228F7D952
:1036E00080E0E068002851D00020C4F2472001218A
:1036F0000160FFF7F3F80546306880073FF571AFCA
:10370000FFF7ECF8401B0228F6D96BE0A568052D01
:1037100050D0012D52D0306F20F001003067306F53
:1037200020F004004DE00021C0F8801EFFF7D6F81D
:10373000054600BF706F80077FF55DAFFFF7CEF8DD
:10374000401B0228F6D94DE00027C4F2472700208D
:103750003866FFF7C3F8022D05460BD130688001AB
:1037600058D5FFF7BBF8401B02284FF00300F5D9EE
:1037700073E700BF306880017FF56EAFFFF7AEF8EA
:10378000401B02284FF00300F4D966E70020C4F282
:10379000472000210160FFF7A1F805463068800747
:1037A0007FF526AFFFF79AF8401B02284FF0030081
:1037B000F4D952E7306F40F004003067306F40F0CA
:1037C00001003067FFF78AF8002D054641F288377F
:1037D00014D000BF306F800713D4FFF77FF8401B71
:1037E000B842F7D9032002B0BDE8F081FFF776F8C0
:1037F000401BB8424FF003003FF62FAF306F8007F9
:10380000F4D4B8F1000F7FF4F9AE306C20F08050A2
:103810003064F3E604F11C052FCD08430021CFF6F8
:10382000FF7140EA821001EBC3316FF30F0140EAF0
:1038300005600843706001203866FFF74FF80446C2
:10384000306880013FF508AFFFF748F8001B0228F9
:103850004FF00300F4D900E770B538B10446406A70
:1038600030B10020206104F1140007E0012070BD98
:103870006068B0F5827F03D004F11C000021016074
:103880000026A66294F8510020B9204684F85060C2
:1038900000F03CF8022084F8510094E80F0001F495
:1038A0008271056802F4044225F040050560114468
:1038B00003F400622369114403F0020263691144B6
:1038C00003F00102A369E569114403F40072114495
:1038D00005F03802256A114405F08002A56A1143FB
:1038E00005F4005211430160626A042101EA1341A8
:1038F00002F0100211444160C16921F40061C1610C
:103900000120666584F85100304670BD2DE9F04F06
:1039100087B00446006843F60001C4F200010026A7
:103920008842CDE90566CDE90366029600F09180F4
:1039300043F20001C4F20101884240F0CD8000272B
:1039400043F630000197C4F20200416940F200459D
:1039500041F4805141614169C4F2020501F4805192
:10396000019101990197016802AE41F002010160E5
:1039700001684FF0020901F00201019101990197DC
:1039800001684FF0010A41F00101016000684FF049
:10399000030B00F0010001900198182002904FF0F5
:1039A000050828463146CDF80C90CDF810A0CDF88A
:1039B00014B0CDF81880FEF7B5FE802002A981E88A
:1039C000010ECDF8188046F21048A5F5806031460A
:1039D000C4F20208FEF7A6FE41F69C1508F1480065
:1039E000C2F200054FF0C0664021C5E9000605F1AE
:1039F00008004FF4806980E882024FF40030C5E986
:103A000008072846C5E90577EF61FEF7B3FB0028F4
:103A100018BFFDF783FBA564AC6341F63C15C2F209
:103A200000054FF44030C5E908072846C5E900867F
:103A3000C5E90277C5E90497C5E90677FEF79AFB61
:103A4000002818BFFDF76AFBE564AC6307B0BDE86A
:103A5000F08F43F630000196C4F20200016940F293
:103A6000004441F4804101610169C4F2020401F49F
:103A70008041019101990196016802AD41F4807184
:103A8000016001684FF0020801F480710191019911
:103A9000019601684FF0030941F0020101600068DE
:103AA000052700F00200019001980420029004F51F
:103AB000E0502946CDE90386CDF814900697FEF72D
:103AC00031FE4FF42040CDE9020820462946CDE9D9
:103AD00004690697FEF726FE07B0BDE8F08F0000E8
:103AE0002DE9F04383B0044690F85000012803D13B
:103AF000022003B0BDE8F08301201E4615460F46A4
:103B000084F85000FEF7EAFE94F85110814601292E
:103B10000AD06068B0F5827F72D1A06800284FF0AB
:103B2000020008BF04296CD1002F4FF0010018BF1C
:103B3000002D66D0002E64D094F851000021042896
:103B40001CBF052084F851006165A563E687A68740
:103B50002763E6862068A6862164616401684906B9
:103B600003D4016841F0400101606168731EE2689E
:103B7000B1FA81F1B3FA83F3DDF8288049095B09D2
:103B8000B2F5006F41EA030144D139B1216B31F83C
:103B9000022BC2602163E08E0138E086012608F125
:103BA000010500BFE08E10B9E08F00286ED02068BC
:103BB000816889070CD5E18E51B1012E08D1216BA6
:103BC000002631F8022BC2602163E18E0139E186C3
:103BD0008168C9070AD0E18F41B1C068A16B012695
:103BE00021F8020BA163E08F0138E087FEF776FE33
:103BF000002DD7D0A0EB09004045D3D3032000E02F
:103C00000220012184F85110002184F8501003B0E3
:103C1000BDE8F08339B139780173206B013020633E
:103C2000E08E0138E086012608F10105E08E08B932
:103C3000E08F58B32068816889070DD5E18E59B1AE
:103C4000012E09D1216B002609780173206B013008
:103C50002063E08E0138E08620688168C9070BD0B8
:103C6000E18F49B1C068A16B01260870A06B0130DB
:103C7000A063E08F0138E087FEF730FE002DD5D03D
:103C8000A0EB09004045D1D30320BAE740F20C0075
:103C9000C2F20000006849F68171C1F25E61A0FBCA
:103CA0000101480D4FF47A71484302906068B0F505
:103CB000827F0ED12046802142464B4604F00AF80E
:103CC00080B1606D40F020006065202060650120BB
:103CD00097E7029830B10298013802902068806816
:103CE0000006F6D4A06800284FF000007FF489AFEA
:103CF00001902168CA68019289680191019980E761
:103D0000704700007047000010B590F83C20012A71
:103D10004FF0020252D0012380F83C3080F83D2061
:103D20000268D2F804E0D2F808C00C682EF07003E4
:103D3000234341F2FF74C4F20004A24253600DDC3D
:103D400040F2FF73C4F200039A4215DCB2F1804FD7
:103D500029D040F20043C4F2000322E040F2FF33D6
:103D6000C4F201039A4212DC41F60003C4F20003DC
:103D70009A4218D0002312E040F60003C4F2000378
:103D80009A4210D040F60043C4F2000309E044F226
:103D90000003C4F201039A4205D040F20043C4F28A
:103DA00001039A4204D149682CF0800319439160C1
:103DB0000121002280F83D1080F83C20104610BD03
:103DC000002804BF0120704710B5044690F83D005C
:103DD00028B9002084F83C00204600F01FF802209B
:103DE00084F83D002068211D04F0CAF8012084F801
:103DF000460084F83E0084F83F0084F8400084F8D0
:103E0000410084F8420084F8430084F8440084F8B8
:103E1000450084F83D00002010BD000080B582B050
:103E2000006840F6FF31C4F2000188421EDD40F612
:103E30000041C4F2000188422FD044F20041C4F294
:103E4000010188423AD00021C4F20101884244D1E4
:103E50000020019043F64000C4F20200416841F0A6
:103E600001014160406800F0010023E0B0F1804FA3
:103E700035D040F60001C4F2000188422DD1002067
:103E8000019043F64000C4F20200016841F00401D1
:103E90000160006800F004000CE00020019043F68F
:103EA0004000C4F20200016841F0080101600068AE
:103EB00000F008000190019802B080BD0020019040
:103EC00043F64000C4F20200416841F40031416011
:103ED000406800F400300190019802B080BD0020DD
:103EE000019043F64000C4F202000168002241F054
:103EF000010101600068052100F0010001900198B6
:103F00001C20FFF73DF91C20FFF72AF902B080BD05
:103F100090F83D1001291CBF01207047022180F854
:103F20003D10006841F2FF71C4F2000188420DDCCF
:103F300040F2FF71C4F20001884215DCB0F1804FFD
:103F400029D040F20041C4F2000122E040F2FF31EA
:103F5000C4F20101884212DC41F60001C4F2000102
:103F6000884218D0002112E040F60001C4F200019E
:103F7000884210D040F60041C4F2000109E044F24A
:103F80000001C4F20101884205D040F20041C4F2B0
:103F90000101884206D1816801F00701062904BFAA
:103FA00000207047016841F0010101600020704766
:103FB00090F83D1001291CBF01207047022180F8B4
:103FC0003D10006841F2FF72C168C4F200029042E5
:103FD00041F00101C1600DDC40F2FF71C4F200014B
:103FE000884215DCB0F1804F29D040F20041C4F284
:103FF000000122E040F2FF31C4F20101884212DCEC
:1040000041F60001C4F20001884218D0002112E0FC
:1040100040F60001C4F20001884210D040F6004191
:10402000C4F2000109E044F20001C4F20101884237
:1040300005D040F20041C4F20101884206D18168F6
:1040400001F00701062904BF00207047016841F014
:10405000010101600020704780B590F83C20012AE2
:104060004FF0020200F0C280012380F83C3080F85B
:104070003D20D0F800C04FF67772DCF8083023EA14
:104080000202CCF808200B684F2B28DC1F2B43DDE5
:10409000202B44D0302B42D0402B40F0A980D1F8C7
:1040A00004E0C968DCF82030DCF8202022F00102AE
:1040B000CCF82020DCF8182022F0F00242EA0111AE
:1040C00023F00A0242EA0E02CCF81810CCF82020A5
:1040D000DCF8081041F0470121F030017DE06F2B42
:1040E00025DDB3F5005F46D0B3F5805F77D0702B48
:1040F0007ED1D1E901E3C968DCF8082043EA0E0368
:1041000022F47F4243EA01211143CCF80810DCF885
:10411000081041F0770160E00BB1102B68D1DCF89A
:10412000081021F07001194341F0070155E0502BB0
:1041300034D0602B5CD1D1F804E0C968DCF82030C1
:1041400023F01003CCF82030DCF81830DCF8202005
:1041500023F4704322F0A00243EA013142EA0E1236
:10416000CCF81810CCF82020DCF8081041F06701DA
:1041700021F0100131E0D1E901E3C968DCF8082041
:1041800043EA0E0322F47F4243EA01211143CCF8B3
:104190000810DCF8081041F480411EE0D1F804E07A
:1041A000C968DCF82030DCF8202022F00102CCF8CD
:1041B0002020DCF8182022F0F00242EA011123F05E
:1041C0000A0242EA0E02CCF81810CCF82020DCF8E3
:1041D000081041F0570121F02001CCF8081000220E
:1041E000012180F83D10002180F83C10104680BD70
:1041F0000122F5E77047000010B504460068016928
:10420000890744BFC1685FEA817138D420680169B9
:10421000490744BFC1685FEA41713CD42068016925
:10422000090744BFC1685FEA017141D42068016990
:10423000C90644BFC1685FEAC16145D4206801690D
:10424000C9071CBFC1685FEAC1714AD12068016912
:10425000090644BFC1685FEA016149D42068016969
:10426000490644BFC1685FEA416148D420680169DA
:10427000890644BFC1685FEA816147D410BD6FF011
:1042800002010161012121778069800745D0204624
:10429000FFF7B0FF47E06FF00401016102212177D1
:1042A000806910F4407F41D02046FFF7A3FF43E030
:1042B0006FF00801016104212177C06980073ED0B9
:1042C0002046FFF797FF40E06FF0100101610821E1
:1042D0002177C06910F4407F3AD02046FFF78AFF6B
:1042E0003CE06FF001010161204600F003FBADE707
:1042F0006FF0800101612046FFF702FDAEE76FF02D
:1043000040010161204600F007FBAFE76FF020019C
:1043100001612046FFF7F6FC10BD204600F0C4F80E
:10432000204600F0FFF9002020776FE7204600F0DC
:10433000BBF8204600F0F6F9002020776EE7204613
:1043400000F0B2F8204600F0EDF9002020776DE78C
:10435000204600F0A9F8204600F0E4F9002020777C
:104360006CE7000080B586B000684FF6FF71C4F2BC
:10437000000188424FF000010591CDE90311CDE91C
:10438000011129DC40F60001C4F2000188424BD043
:1043900040F60041C4F20001884240F083800020D2
:1043A000009043F63000C4F202000168022341F09D
:1043B0008001016000684FF0010C00F08000009067
:1043C00000984FF4E050019040F60040C4F2020023
:1043D00000F5805002225DE044F20041C4F2010188
:1043E00088423CD00021C4F2010188425AD14FF0EA
:1043F000000C43F63000CDF800C0C4F202000268A1
:10440000002342F0100202600068012200F0100058
:10441000009000984FF40070019040F60040C4F204
:10442000020000F5806035E04FF0000C43F63000EC
:10443000CDF800C0C4F202000268002342F0080276
:1044400002600068022200F00800009000984FF41B
:104450008040019040F60040C4F202001AE00020C3
:10446000009043F63000C4F202000168032241F0DC
:10447000200101600068022300F0200000900098F5
:104480004020019040F60040C4F2020000F50060B8
:104490004FF0010C0221CDE9021C01A9CDE9043243
:1044A000FEF740F906B080BD704700002DE9F041ED
:1044B00090F83C30012B04BF0220BDE8F0814FEAA8
:1044C000B2020123032A80F83C3000F2F480DFE8D6
:1044D00002F0023E7DBC036840F200471A6A43F4D2
:1044E000806522F001021A621C6A1A46D3F804E0C1
:1044F00052F818CF8E6824F00204C4F20107BD42BE
:1045000044EA060405D1CE6824F00C0426F0040623
:1045100034430E68BD4207D1D1E905572EF4407EE1
:1045200045EA0E0545EA070E2CF073073743C3F83A
:1045300004E09F614F6809695F631C629F6947F0EF
:1045400008079F619F6927F004079F61AFE0036838
:1045500040F200481A6A43F4806522F010021A62A1
:104560001C6A1A46D3F804E052F818CF8F6824F07A
:104570002004C4F20108454544EA071407D1CF6876
:104580006FF0400624F0C00406EA071634430F68B3
:10459000454507D1D1E905562EF4406E4EEA850512
:1045A00045EA860E2CF4E64646EA0727C3F804E0FF
:1045B0009F614F6809699F631C629F6947F40067A8
:1045C0009F619F6927F480679F616FE0036840F2F5
:1045D00000481A6A43F4806522F480721A621C6AE9
:1045E0001A46D3F804E052F81CCF8F6824F4007404
:1045F000C4F20108454544EA072408D1CF6840F2D7
:10460000FF463F0224F4406427EA060634430F685D
:10461000454507D1D1E905562EF4405E4EEA051511
:1046200045EA061E2CF073063743C3F804E0DF6149
:104630004F680969DF631C62DF6947F00807DF61C3
:10464000DF6927F00407DF6131E0036840F20045CD
:104650001A6A43F4806722F480521A621A46D3F829
:1046600020C05C6852F81CEFD1F800808E68C4F25C
:104670000105AF4204D14D6924F4804444EA851415
:104680002CF4005747EA06372EF4E64646EA082699
:104690005C60DE614E6809691E641F62DF6947F471
:1046A0000067DF61DF6927F48067DF610902136853
:1046B000194300231160002180F83C101846BDE822
:1046C000F0810000002804BF0120704710B50446A7
:1046D00090F83D0028B9002084F83C00204600F006
:1046E0001FF8022084F83D002068211D03F048FCDB
:1046F000012084F8460084F83E0084F83F0084F8E6
:10470000400084F8410084F8420084F8430084F8B3
:10471000440084F8450084F83D00002010BD0000EE
:10472000704700007047000041B1082909D00429F2
:1047300014BF00F1410200F13F0204E000F13E022B
:1047400001E000F140021278012A1CBF01207047ED
:10475000022241B1082909D0042914BF80F8412060
:1047600080F83F2004E080F83E2001E080F84020FF
:10477000006801F01F010122036A02FA01F123EA35
:1047800001020262026A0A4341F2FF71C4F20001AF
:10479000884202620FDC40F2FF71C4F200018842DD
:1047A00017DCB0F1804F49D040F20041C4F2000163
:1047B000884243D049E040F2FF32C4F20102904205
:1047C00014DC41F60003C4F20003984236D0002303
:1047D00014E040F60001C4F2000188422ED040F6F9
:1047E0000041C4F20001884228D02EE044F20003C8
:1047F000C4F20103984221D040F20043C4F2010305
:10480000984222D1436C884243F400434364C2DDA2
:10481000904207DC41F60001C4F2000188420DD04D
:10482000002107E044F20001C4F20101884205D0F2
:1048300040F20041C4F20101884206D1816801F0D2
:104840000701062904BF00207047016841F00101FB
:10485000016000207047000010B5026801F01F0ED3
:104860004FF0010C146A0CFA0EF324EA03031362EE
:1048700040F20043D2F820C042F48064C4F2010345
:104880009C42C2F820C00DD1136A41F21114234298
:1048900008D1136A40F24444234203D1536C23F4F9
:1048A00000435364136A41F21114234204D1136A82
:1048B00040F24444234212D0082916D0042909D0DA
:1048C00000294FF0010114BF80F8411080F83E101C
:1048D000002010BD012180F83F10002010BD13689A
:1048E00023F0010313600829E8D1012180F840106A
:1048F000002010BD10B504460068B0F1804F08BF1D
:1049000003F08CFE206841F20001C4F200018842ED
:1049100008BFFEF77FFB10BD704700007047000026
:1049200010B504460068406994F83D10212920D153
:1049300010F080001DD000BF206850E8050F2168EE
:1049400020F0800041E80502002AF5D1606B0028C4
:1049500018BFFDF7F7FA00BF206850E8030F216881
:1049600020F0C00041E80302002AF5D1202084F89D
:104970003D002068406994F83E10222939D110F09A
:10498000400036D0206850E8050F216820F0400034
:1049900041E80502002AF5D1A06B002818BFFDF7F9
:1049A000D1FA00BF206850E8030F216820F490700E
:1049B00041E80302002AF5D1206850E8050F21687C
:1049C00020F0010041E80502002AF5D1206B012802
:1049D0000AD100BF206850E8030F216820F01000C2
:1049E00041E80302002AF5D1202084F83E0000208F
:1049F0002063002010BD000070470000B0B582B0F9
:104A0000044600680168C368426901F02F05202D43
:104A100003F0200505D125B1204603F021FC02B0AA
:104A2000B0BD5FEA017C1EBF02F0010E03F490727C
:104A300012EB0E0277D1226B012A05D111F0100280
:104A400018BF13F0100235D10A0622D513F08002E8
:104A50001FD094F83D1021292AD1A168B1F5805FBB
:104A600003D12169002900F03881216A4A1C2262A1
:104A700009784160E18C01390A04E18418D1C168E8
:104A800021F08001C160C16841F04001C16002B005
:104A9000B0BD49060CD513F0400109D0C16821F022
:104AA0004001C160202084F83D00204600F0D6FB84
:104AB00002B0B0BD002101910168019141680191EE
:104AC00001994069400636D4A08DE18DE28D002A1F
:104AD0001CBF401A5FEA0041EAD000BF216851E8DC
:104AE000031F226821F4907142E80313002BF5D1D3
:104AF000216851E8051F226821F0010142E80513F1
:104B0000002BF5D1202184F83E100021216300BF45
:104B1000216851E8031F226821F0100142E80313C5
:104B2000002BF5D14AE0C80718BF13F480704BD1B1
:104B300048074FD455E0A06B016849688AB2002A43
:104B4000B6D0A38D9A42B3D2E185C069B0F5807F1B
:104B500031D000BF206850E8030F216820F4807036
:104B600041E80302002AF5D1206850E8050F2168CA
:104B700020F0010041E80502002AF5D1206850E844
:104B8000050F216820F0400041E80502002AF5D118
:104B9000202084F83E000020206300BF206850E8F9
:104BA000030F216820F0100041E80302002AF5D12C
:104BB000A06BFDF7C7F9A08DE18D401A81B22046A8
:104BC000FFF7ACFE02B0B0BD206C40F001002064E5
:104BD000480706D5BEF1000F03D0206C40F002005C
:104BE0002064880706D5BEF1000F03D0206C40F08A
:104BF00004002064BCF1000F06D555EA0E0003D076
:104C0000206C40F008002064206C00283FF450AF76
:104C100011F0200018BF002D02D0204603F020FB29
:104C200020684069216C00F0400001F00801401844
:104C300047D000BF206850E8030F216820F490702F
:104C400041E80302002AF5D1206850E8050F2168E9
:104C500020F0010041E80502002AF5D1206B01286F
:104C60000AD100BF206850E8030F216820F010002F
:104C700041E80302002AF5D1202084F83E000020FC
:104C8000206320684069400622D500BF206850E8B4
:104C9000050F216820F0400041E80502002AF5D107
:104CA000A06BA8B148F2C101C0F600010165FDF793
:104CB00089F900283FF4FCAEA06B016D884702B073
:104CC000B0BD2046FFF798FE0020206402B0B0BDC2
:104CD0002046FFF791FE02B0B0BD216A31F8022BE9
:104CE0006FF35F2242602162C4E60000002804BF27
:104CF0000120704710B5044690F83D0028B9002007
:104D000084F83C00204600F021F8242084F83D007F
:104D10002068C16821F40051C160204603F002FB05
:104D20002068016921F490410161416921F02A0163
:104D30004161C16841F40051C1600020202120641C
:104D400084F83D1084F83E1010BD00002DE9F04FAE
:104D500087B00446006844F60001C4F20001002652
:104D60008842CDE90566CDE90366029600F09180A0
:104D700041F20041C4F20101884200F0D78041F2C3
:104D80000001C4F20101884240F04681002743F649
:104D900030000197C4F202004169002541F0100182
:104DA00041614169C4F2020501F0100101910199CC
:104DB0000197016802AE41F002010160016846F20C
:104DC000280801F0020101910199019701684FF053
:104DD000020941F00101016000684FF0030A00F090
:104DE000010001900198802002904FF0070B05F51B
:104DF00080603146C4F20208CDE90397CDF814A0D3
:104E0000CDF818B0FDF78EFC4FF40070CDE9020923
:104E100004A880E8800C28463146FDF783FC41F663
:104E2000FC1508F58360C2F200054FF000664FF4F0
:104E3000806985E8C1002846C5E90379C5E9057799
:104E4000C5E907776F62FDF795F9002818BFFCF7F1
:104E500065F9A563AC6341F65C2508F59260C2F282
:104E600000054021C5E9000605F1080080E882023E
:104E70002846C5E90577C5E907776F62FDF77AF936
:104E8000002818BFFCF74AF9656305F138002525AD
:104E9000B9E043F630000196C4F20200016941F422
:104EA00080210161016901F480210191019901963C
:104EB000016841F004010160006802A900F00400EB
:104EC000019001984FF4406002900220CDE9030662
:104ED00003200590072006900020C4F2020000F590
:104EE0000060FDF71FFC41F6BC2546F22800C2F227
:104EF0000005C4F202004FF000614FF480624FF4ED
:104F0000807385E843002846C5E90362C5E9056664
:104F1000C5E907366E62FDF72DF9002818BFFCF7CA
:104F2000FDF8A56305F1380027256CE0002643F65F
:104F300030000196C4F20200416946F2280841F0AF
:104F4000200141614169C4F2020801F02001019190
:104F500001990196016841F040010160006802A9D1
:104F600000F04000019001984FF48440029002202C
:104F7000CDE9030603200590082006900020C4F226
:104F8000020000F5C050FDF7CDFB41F61C3508F5D9
:104F90008060C2F200054FF0206A4FF480694FF440
:104FA0008071C5E9000A4FF480372846C5E90266DA
:104FB000C5E90496C5E90661C5E90876FDF7DAF8A2
:104FC000002818BFFCF7AAF8A563AC6341F67C354E
:104FD00008F58F60C2F200054021C5E9000A05F11D
:104FE000080080E842022846C5E90566C5E907676A
:104FF0006E62FDF7BFF8002818BFFCF78FF86563F5
:1050000005F1380047250460284605210022FEF7F7
:10501000B7F82846FEF7A4F807B0BDE8F08F000007
:1050200010B590F83E30202B0BD100294FF0010431
:1050300018BF002A01D1204610BD90F83C30012B4A
:1050400001D1022010BD0123002480F83C3004630C
:1050500003F0D8F9204610BD7047000070470000EB
:105060002DE9F047044690F83D0020280ED10F4668
:1050700000294FF0010000F0A8801646002A08BF62
:10508000BDE8F08794F83C00012802D10220BDE879
:10509000F087012084F83C004FF0000A21201D46D3
:1050A000C4F840A084F83D00FDF718FCA684E6840F
:1050B000A1688046B1F5805F07D1206900281CBF38
:1050C00038465746B946074601E04FF0000984F8D4
:1050D0003CA0E08C00283ED06E1C09E087B117F898
:1050E000010B21684860E08C0138E084E08C90B3CB
:1050F000206800680006F1D4AEB175B916E000BFB3
:1051000039F8020B21686FF35F2048600027EAE757
:1051100001680906E2D4002EFAD0FDF7DFFBA0EB10
:105120000800A84202D82068F2E700BF206850E8D3
:10513000030F216820F4D07041E80302002AF5D162
:10514000206850E8050F216820F0010041E80502C1
:10515000002AF5D107E020680068400631D4DDB1AF
:105160006E1C0BD011E0202084F83D0084F83E0036
:10517000002084F83C000320BDE8F087206800BFD1
:10518000016849061DD4002EFAD0FDF7A7FBA0EB5D
:105190000800A842F2D900BF206850E8030F216838
:1051A00020F4D07041E80302002AF5D1206850E8CD
:1051B000050F216820F0010041E80502002AF5D121
:1051C000D1E7202084F83D000020BDE8F0870000F2
:1051D00070B5044690F83D0020280AD14FF0010038
:1051E000D9B3002A134608BF70BD94F83C000128CB
:1051F00001D1022070BD012084F83C00002621204E
:105200002162A384E384266484F83D002268606BF5
:1052100048F2152C48F2552E48F2D105C0F6000C84
:10522000C0F6000EC0F600050432C0E90FCEC0E99A
:105230001356FDF73FF820686FF04001016084F8D5
:105240003C6000BF206850E8050F216840F08000F6
:1052500041E80502002AF5D1002070BD704700002A
:1052600070470000FEE700002DE9F04F83B00446D0
:10527000006899460368904643F4806202600268C1
:10528000DDF834A042F48072026040690C9E10F098
:1052900001008B4624D180F00105771C07E000BF98
:1052A0002068406910F0010080F0010518D1002F3E
:1052B000F6D0FDF713FB1EB1A0EB0A00B042EFD908
:1052C00000202021206384F83D1084F83E00216CEA
:1052D00041F020012164E90784F83C0040F0A780F8
:1052E00020680BF0FE070761416989072BD44169EB
:1052F000490513D4751C00BF4DB1FDF7EFFA002E20
:1053000000F0CE80A0EB0A00B04200F2C980206815
:105310004169890717D441694905EDD5016841F410
:10532000007101606FF480614161002020212063E1
:1053300084F83D1084F83E00216C41F004012164A2
:1053400084F83C0096E000200290206850F8141F7A
:1053500002914168029102990168090617D4751CEF
:1053600005E000BF206850F8141F09060FD401683B
:10537000490567D4002DF5D0FDF7B0FA002E4FF0A7
:10538000200163D0A0EB0A00B042EBD95EE0B9F196
:10539000010F1ED020684FEA1821016150F8141F38
:1053A000090616D4751C04E0206850F8141F09067D
:1053B0000FD40168490545D4002DF5D0FDF78EFACC
:1053C000002E4FF0200141D0A0EB0A00B042EBD9F3
:1053D0003CE020685FFA88F1016150F8141F09066B
:1053E00016D4751C05E000BF206850F8141F09068C
:1053F0000ED40168490525D4002DF5D0FDF76EFACD
:105400004FF0200116B3A0EB0A00B042ECD91DE02A
:10541000206800220168334641F480710160204613
:105420004FF00111CDF800A000F066F930B320680C
:105430000068C00544BF4FF400702064032003B02F
:10544000BDE8F08F6FF4806101600421002020220C
:10545000206384F83D2084F83E00226C11432164CF
:1054600084F83C00206C042804D12068016841F4D1
:1054700000710160012003B0BDE8F08F206847F0A3
:10548000010101610221C0F201012046324653466A
:1054900000F06CF9002818BF012003B0BDE8F08FC0
:1054A00000202021206384F83D1084F83E00216C08
:1054B00041F0200143E700002DE9F04F81B00446A0
:1054C000006890460268DDF82CB042F480720260F9
:1054D00040690A9E994610F001008A462ED180F05C
:1054E0000107751C07E000BF2068406910F001004B
:1054F00080F0010722D1002DF6D0FDF7EFF91EB1A3
:10550000A0EB0B00B042EFD900202021206384F8EB
:105510003D1084F83E00216C41F020012164F90720
:1055200084F83C000AD020680068C00544BF4FF4EE
:1055300000702064032001B0BDE8F08F20680AF0FD
:10554000FE010161416989072BD44169490513D4E2
:10555000771C00BF4FB1FDF7C1F9002E00F08A8023
:10556000A0EB0B00B04200F28580206841698907FA
:1055700017D441694905EDD5016841F40071016016
:105580006FF48061416100202021206384F83D1088
:1055900084F83E00216C41F00401216484F83C0051
:1055A00064E000200090206850F8141F00914168CA
:1055B000009100990168090616D4771C05E000BF28
:1055C000206850F8141F09060ED40168490535D427
:1055D000002FF5D0FDF782F94FF0200196B3A0EB34
:1055E0000B00B042ECD92DE0B9F1010F1ED02068BC
:1055F0004FEA1821016150F8141F090616D4771CD0
:1056000005E000BF206850F8141F09060ED4016899
:10561000490513D4002FF5D0FDF760F94FF02001B4
:1056200086B1A0EB0B00B042ECD90BE020685FFA2A
:1056300088F10161002001B0BDE8F08F6FF4806156
:105640000160042100202022206384F83D2084F89A
:105650003E00226C1143216484F83C00206C042835
:1056600004D12068016841F400710160012001B09B
:10567000BDE8F08F00202021206384F83D1084F8DD
:105680003E00216C41F0200187E70000F0B581B0B9
:1056900004460068154650F8143F5A0715D40E46C4
:1056A0004F1C04E0206850F8141F49070DD401680E
:1056B00049050DD4002FF5D0FDF710F94FF020016A
:1056C00056B1401BB042EDD906E0002001B0F0BD5C
:1056D0006FF480610160042100202022206384F89F
:1056E0003D2084F83E00226C1143216484F83C0084
:1056F000012001B0F0BD00002DE9F047DDF8208069
:105700001D469146824601F47F078EB25C1C00BFA5
:10571000DAF80000B7F5803F14BF18301430006885
:105720003040801BB0FA80F0400948451BD1002C66
:10573000EED0FDF7D3F81DB1A0EB0800A842E7D9E1
:1057400000202021CAF830008AF83D108AF83E0077
:10575000DAF8401041F02001CAF840108AF83C0005
:105760000120BDE8F0870020BDE8F0872DE9F04179
:1057700004460068984643698FB203EA0701B942BC
:1057800002D10020BDE8F0814169490514D41646D4
:10579000551C00BF45B1FDF7A1F84FF020019EB1A7
:1057A000A0EB0800B0420FD8206841693940B942E7
:1057B000E7D041694905EDD5016841F40071016008
:1057C0006FF480614161042100202022206384F86D
:1057D0003D2084F83E00226C1143216484F83C0093
:1057E0000120BDE8F081000070B540F2080141F2EF
:1057F000D874C2F20001C2F2000430B90A78012A5A
:1058000003D1227942F08002227194F904200870B9
:10581000B2F1FF3F2ADCE26842B341F62000C2F257
:10582000000001219047002808BF70BD207945F68F
:105830004715C5F2525500F07F0625602671A16814
:1058400041F2F474C2F20004B2002046FAF72BFED3
:1058500044F826500025C0F60A052846012107F025
:10586000F1FF28462146072208F032F870BD0000FB
:10587000B0B5B2F800C041F64C03BCF1000FC2F263
:10588000000307D141F6380EC2F2000E9EE8304008
:1058900083E8304040F63C75C2F2000595ED000A01
:1058A0009FED162A93ED004A20EE020A95ED011AAB
:1058B00095ED023A30EE040A0CF1010593ED015A20
:1058C00093ED026A83ED000A158021EE021A23EEA1
:1058D000022A1A6831EE051A32EE062A83ED011A01
:1058E00083ED022A0A605A684A609A688A604FF01B
:1058F0007E51C0E900118160B0BD00BF52499DB921
:1059000041F6380091ED000A91ED011A91ED022A5D
:10591000C2F2000080ED000A80ED011A80ED022A3B
:1059200041F64C00C2F2000080ED000A80ED011A41
:1059300080ED022A7047000086B00020C4F2020009
:105940000121FCF7BFFF072008F0A2FBFBF7B4F82A
:1059500028B16420F8E700BF642008F099FB08F044
:10596000E1FA0028F8D141F2B072C2F2000202F16D
:105970001400111D10320590CDE90321FBF7B4F896
:1059800008F050F841F61870C2F2000000214AF207
:10599000000348F200070025C4F2C8414CF6CD428E
:1059A000C4F28C53C4F2895700F1040C0570C3F69D
:1059B0004C628CE82600C0E9043720302821FAF731
:1059C000FCFD40F65474C2F200044FF07E50C4E96E
:1059D000000540F62470C2F2000090ED000A90ED40
:1059E000011A90ED022A41F27070C2F2000080EDBF
:1059F000000A41F28070C2F2000080ED001A41F20C
:105A00007470C2F2000080ED001A41F28470C2F29C
:105A1000000080ED002A41F2787041F27C71C2F200
:105A20000000C2F2000180ED002A0020C4E9025506
:105A300081ED000A08F070FB09F0CCFD40F67871AA
:105A4000C2F20001086041F63040C2F200001021AD
:105A5000C161FDF701FF002818BFFBF75FFB40F2B3
:105A6000700041F64401C2F20000C2F200010822B7
:105A700002F0B6F841F61470C2F200000121017084
:105A800041F29470C2F200000230029041F2647060
:105A90009FEDB19A9FEDB1AA9FEDB1BA40F63C7966
:105AA00040F6307A9FEDAFDA9FEDAFFADFEDAF8AC7
:105AB000C2F2000041F6907840F6647740F6687BC9
:105AC000C2F20009BFEE00CAC2F2000AB1EE08EA53
:105AD0000230C2F20008C2F20007C2F2000B0190CD
