:020000040800F2
:10000000F0770020090300087D8F00080D820008AA
:10001000798F0008C51F0008DDA700080000000058
:1000200000000000000000000000000051930008E4
:1000300041230008000000000190000875930008AB
:1000400023030008ED8F00082303000823030008A2
:1000500023030008230300082303000823030008E8
:1000600023030008230300082303000819210008C4
:100070002921000823030008392100082303000870
:100080004921000859210008230300082303000820
:10009000C91F0008230300082303000823030008E6
:1000A0002303000823030008230300082303000898
:1000B0008595000823030008959500082303000890
:1000C0002303000823030008230300082303000878
:1000D00023030008FDA300082303000823030008EE
:1000E0002303000823030008230300082303000858
:1000F0002303000823030008230300082303000848
:100100002303000823030008230300082303000837
:100110002303000823030008A59500082303000813
:10012000692100087921000823030008230300083F
:100130002303000823030008230300082303000807
:10014000D91F000823030008230300082303000825
:1001500089210008992100082303000819A4000838
:1001600023030008230300082303000823030008D7
:1001700023030008230300082303000800000000F5
:100180002303000823030008359C0008519C000845
:1001900023030008230300082303000823030008A7
:1001A00000000000000000002303000800F002F837
:1001B00000F09BF80AA090E8000C82448344AAF166
:1001C0000107DA4501D100F090F8AFF2090EBAE864
:1001D0000F0013F0010F18BFFB1A43F0010318477B
:1001E000F4A2010014A30100103A24BF78C878C11A
:1001F000FAD8520724BF30C830C144BF04680C602D
:10020000704700000023002400250026103A28BF74
:1002100078C1FBD8520728BF30C148BF0B60704778
:100220006E2900F0D382702900F01784662919F036
:10023000B385652919F0B085672919F0AD85612965
:1002400019F0AC8503681B0A28BF41F080016929B9
:1002500000F08082642900F07D82752900F07A82A6
:100260006F2900F0A583782900F0E383E92900F0E5
:100270003F83E42900F03C83F52900F03983EF291E
:1002800000F0A283F82900F0E2830368DB0928BFAD
:1002900041F08001632901F08581732901F08A8191
:1002A000E32901F09581F32901F09A81002070473C
:1002B0001FB519F0B2FC9DE8030000F059FD01F0F4
:1002C00011FA04000020002118F050FB401C60606F
:1002D0000020002118F034FBE06000F065F91FBD3C
:1002E00010B5002001F0A4F910BD01F0CEF91146BF
:1002F000FFF7DEFF15F0AAFE01F025FB03B4FFF7C0
:10030000EFFF03BC00F00AFD094880470948004799
:10031000FEE7FEE7FEE7FEE7FEE7FEE7FEE7FEE7B5
:10032000FEE7FEE704480549054A064B7047000012
:1003300071940008AD010008F0650020F0770020FE
:10034000F0670020F067002053EA020C00F069809B
:100350002DE9F04B4FF00006002B1FBFB3FA83F5D9
:1003600003FA05F424FA05F65E4012BF1643B2FA0A
:1003700082F502FA05F4C5F120051EBF22FA05FC3C
:1003800044EA0C04203556EA044C4FEA144418BFE2
:10039000641C4FF000084FF00009904271EB030C11
:1003A00039D3002919BFB1FA81F701FA07F6B0FA7B
:1003B00080F700FA07F6C7F120071EBF20FA07FCF6
:1003C00046EA0C062037B6FBF4FCA7EB0507103F06
:1003D00007F01F0BCBF120062CFA06F60CFA0BFBEC
:1003E00044BFB3460026202FA4BF5E464FF0000B4B
:1003F0005BEA060C08BF4FF0010B19EB0B0948EB49
:100400000608ABFB027C06FB02CC0BFB03CCC01B3B
:1004100071EB0C01C1E70B46024641464846BDE878
:10042000F08B13B5084318BF4FF0FF300146AFF310
:100430000080BDE81C4070477CB51D4616460C0088
:10044000009007D04142A14202D32044401E01E067
:100450004FF0FF30064B7B442A46694601903046F8
:1004600000F0CDF9002C02D0009A002111707CBD63
:10047000CB030000002800DA404270470B460146DB
:10048000184600F0C4BB032A40F2308010F0030C81
:1004900000F0158011F8013BBCF1020F624498BFD7
:1004A00011F801CB00F8013B38BF11F8013BA2F174
:1004B000040298BF00F801CB38BF00F8013B11F0EF
:1004C000030300F0BB83083AC0F0088051F8043BF6
:1004D000083A51F804CBA0E80810F5E7121D5CBFFC
:1004E00051F8043B40F8043BAFF30080D20724BF2F
:1004F00011F8013B11F801CB48BF11F8012B24BFC3
:1005000000F8013B00F801CB48BF00F8012B704711
:100510004FF000020429C0F0128010F0030C00F02C
:100520001B80CCF1040CBCF1020F18BF00F8012BAA
:10053000A8BF20F8022BA1EB0C0100F00DB85FEA78
:10054000C17C24BF00F8012B00F8012B48BF00F844
:10055000012B70474FF0000200B5134694469646B3
:10056000203922BFA0E80C50A0E80C50B1F12001C6
:10057000BFF4F7AF090728BFA0E80C5048BF0CC074
:100580005DF804EB890028BF40F8042B08BF7047D2
:1005900048BF20F8022B11F0804F18BF00F8012B44
:1005A000704770477047704770B5064C7C44064DE5
:1005B0007D4404E02046016808448047241DAC4285
:1005C000F8D170BD70A0010074A0010070B506469E
:1005D00000F0AAFB056806F10B0020F00704B44206
:1005E0009CBF002070BD2B466A68BAB11068A0425B
:1005F00010D304F1080188423CBF5068586007D30B
:100600005168101941601168091B0160586014603D
:10061000101D70BD13465268002AE7D121462846B6
:1006200000F092FB0028DED170BD70B50446051FB6
:1006300000F07AFB0068002C14BF446870BD002CE9
:1006400018BFAC423CBF20466468F8D301680A1862
:10065000AA4218BF456003D12A68054611440160CB
:1006600028684119A1421CBF6C6070BD6168696057
:1006700021680844286070BD10B500F05DFB00687B
:1006800010BD10B5044600F057FB046010BD70B5F6
:10069000044685690068C10601D5302600E02026A1
:1006A000C00707D070BDD4E9012130469047206AC9
:1006B000401C20626D1EF6D570BD70B5044685697C
:1006C0000078C00707D170BDD4E9012120209047F0
:1006D000206A401C20626D1EF6D570BD09684A056F
:1006E00001D540B27047C905FCD500B27047096812
:1006F0004A0501D5C0B27047C905FCD580B2704724
:1007000070B50C460546012A05D02878800600D52C
:10071000EA69002302E0012305E05B1C934202D258
:10072000E05C0028F9D1A869E618C01AA861286A17
:10073000184428622846FFF7AAFF04E0D5E9012102
:1007400014F8010B9047B442F8D32846FFF7B5FFE1
:1007500070BD00002DE9F04106460024106875299F
:10076000314616A510D0FFF7B9FF002802DA404243
:1007700013A507E031688A0701D512A502E04907F1
:1007800004D511A5012401E0FFF7B1FF00210A22E1
:1007900006F1240709E0B0FBF2FCB0FBF2F302FB28
:1007A0001C00303078541846491C0028F3D12346E9
:1007B0002A463046BDE8F04100F06EBB0000000064
:1007C0002D0000002B0000002000000011680268CE
:1007D000006A530501D508700AE0D30501D50880E9
:1007E00006E0130603D5C217C1E9000200E0086065
:1007F0000120704701694A1C02610878704700B502
:100800008FB0CDE901310021059105497944CDE949
:1008100003101146684600F02BF90FB000BD000030
:10082000E5FFFFFFD1E900239A4202D2531C0B607F
:10083000107070472DE9FF5F15468A460446DFF8C1
:10084000AC80F8440027D8E900103E46CDE90010FE
:1008500010E03AF816106A4602A800F0C5FE411CE6
:1008600007D02178890603D5E269391891420DD85D
:100870000744761C2078800602D5E069B84205DD81
:10088000AE42E6DB3AF816000028E2D1A069C01BB0
:10089000A0612046FFF7FBFED8E90010CDE900106B
:1008A000002017E03AF818106A4602A800F09CFEF3
:1008B000B0F1FF3F81460BD000250DF1080B05E09C
:1008C000D4E901211BF8050090476D1C4D45F7D375
:1008D00008F10100B0428046E4DB206A384420621F
:1008E0002046FFF7EAFEBDE8FF9F0000BA96010030
:1008F0002DE9F0418046D21D22F007020025D2E901
:100900000002F52915A614D0011E72F1000106DAC5
:100910000023D0EB030063EB020211A608E0D8F835
:1009200000108B0701D50FA602E0490701D50EA6DE
:1009300001251146002408F1240704E000F04EFAD6
:1009400030323A55641C50EA0102F7D12B46324648
:1009500021464046BDE8F04100F09EBA000000008C
:100960002D0000002B0000002000000030B400210A
:1009700000F1240408E002F00705D208303542EA0D
:100980004372DB086554491C52EA0305F3D104683D
:10099000002310A2250708D504F020040C4304D03E
:1009A000C46901230CA2641EC46130BC00F074BA97
:1009B00010B5044621461068FFF799FE024620460E
:1009C000BDE810400023D1E7D21D22F00701D1E994
:1009D0000023CBE70000000030000000F0B40D461B
:1009E0000188090502D5214C7C4402E01F4C7C445F
:1009F0000E34002100F1240608E002F00F0712096E
:100A0000E75D42EA03721B097754491C52EA030767
:100A1000F3D102780023120704D5702D06D009B156
:100A2000022311342246F0BC00F036BA0123103400
:100A3000F8E770B504460D4621461068FFF757FEEB
:100A4000024629462046BDE870400023C6E7D21D75
:100A500022F00703D3E90023C0E70368126843F0DC
:100A6000200303600823C3610023B7E71C9501003E
:100A70002DE9F05F894604464FF0000ADFF874B1B3
:100A8000FB44C0F820A02046E1688847002874D0C5
:100A9000252806D0D4E901219047206A401C206215
:100AA000F1E700265F462046E16888472028054692
:100AB00007DB312D05D2781910F8200C08B1064358
:100AC000F1E7B00701D526F00406C4F81CA0002702
:100AD000C4F818A02A2D09D0284617F00BFF38B308
:100AE00004EB8708303DC8F8185019E059F8041B8A
:100AF000204604EB87029161E1688847012F054693
:100B000018D1E069002820DA26F020061DE0D8F888
:100B1000180000EB800005EB40003038C8F81800E2
:100B20002046E1688847054617F0E4FE0028EED12C
:100B3000012F0AD02E2D08D12046E16888477F1C5E
:100B40000546022F46F02006C4DBA069002803DA20
:100B5000404246F00106A061F00701D026F01006E1
:100B60006C2D0BD0682D09D04C2D39D06A2D35D085
:100B7000742D35D07A2D33D016E038E0E1682F4659
:100B800020468847B842054609D16C2F26D04FF43D
:100B90008060E168064320468847054604E06C2FE4
:100BA0001AD04FF4807006430DB3A5F14100192807
:100BB00002D8203546F400664A462946204626607B
:100BC0004E46FFF72DFB80B101280BD0F61D26F015
:100BD000070000F1080956E74020E4E78020D8E745
:100BE0000020D6E706F104094DE7284652E7206ABF
:100BF000BDE8F09FAC94010010B5002000F039FD75
:100C0000FFF76EFBBDE81040012000F087B82DE92A
:100C1000F041074615460E461020FFF7D7FC0400AA
:100C20000AD06760C4E9026500F082F801682160BB
:100C300004600020BDE8F0810120FBE710B5203AF8
:100C4000C0F00B80B1E81850A0E81850B1E8185077
:100C5000A0E81850203ABFF4F5AF5FEA027C24BF49
:100C6000B1E81850A0E8185044BF18C918C0BDE832
:100C700010405FEA827C24BF51F8043B40F8043BFB
:100C800008BF7047D20728BF31F8023B48BF11F8B0
:100C9000012B28BF20F8023B48BF00F8012B70470A
:100CA00030B44FF0013C50F8042B51F8043BCCFA1F
:100CB00052F4D51A20D1FCB950F8042B51F8043B5A
:100CC000CCFA52F4D51A17D1B4B950F8042B51F814
:100CD000043BCCFA52F4D51A0ED16CB950F8042B5F
:100CE00051F8043BCCFA52F4D51A05D1002CDAD0D5
:100CF00030BC4FF00000704729BAB1FA81F111F011
:100D00001801D1F120008440F2D1CA40CB4012F04A
:100D1000FF0213F0FF0330BCD01A704701491820BE
:100D2000ABBEFEE72600020000487047200100200D
:100D3000004870475001002000487047180100200B
:100D4000704770477047704738B504460A46002020
:100D50006946AFF30080002808BF38BD02460099FD
:100D6000204600F0C3FC012038BD012000F019BE70
:100D7000F8B5AFF30080054600200C46102000BFF8
:100D80000646A819A0420DD9324669460020AFF3A5
:100D90000080070008BF00F004FE0098A04218BFC2
:100DA0000546C419FFF7C0FF05600746F01D20F097
:100DB00007004619284600F00AF8B44208BFF8BDFB
:100DC000A21B31463868BDE8F84000F08FBC002116
:100DD0000160C0E9011070471020704730B5B0F1D4
:100DE0000A0271F100034FEA900E4EEA817EB0EBE9
:100DF0000E0061EB91014FEA101E4EEA017E10EBEE
:100E00000E0041EB11114FEA102E4EEA016E10EB6D
:100E10000E0041EB11214FEA104E4EEA014E10EB4D
:100E20000E0041EB1141401841F100014FEAD000A2
:100E300040EA41704FEAD1014FEA810444EA9074DC
:100E400010EB800544EB01046D1944EB0404521BC4
:100E5000A3414FF0000348BF0A3200D530BD401C0B
:100E600041F1000130BD00001FB584B000200A9C94
:100E700006AB04AA02A90094AFF3008018B1DDE923
:100E8000020108B010BD0348204000F083FD00209F
:100E90000146F6E70000207C2DE9F0470D46994613
:100EA0009246044600F124080168880604D5E069EA
:100EB00021F01001216000E00120A84201DD471B64
:100EC00000E00027A1697A1902EB0900081AA06165
:100ED0002078C00602D42046FFF7D9FB002608E0A0
:100EE000D4E901211AF806009047206A401C761CBC
:100EF00020624E45F4DB2078C0060AD52046FFF775
:100F0000C6FB06E0D4E9012130209047206A401C4E
:100F10002062381EA7F10107F4DC07E0D4E90121C3
:100F200018F805009047206A401C2062281EA5F191
:100F30000105F3DC2046FFF7C0FB2078000602D550
:100F40000220BDE8F0870120FBE72DE9F04F1C46A9
:100F500083460E468BB0D2E90030149DC10F00913C
:100F600020F00041080D01D0012200E00022801A8B
:100F70000027DA1B61EB005191460A438846A0F234
:100F8000324A0AD00021084618F0F6FE10F4400F4D
:100F900014D00099A1B1400213E0012D02D000202D
:100FA000302105E0E043CDE9060705E03154401C5F
:100FB000A042FBDBCDE90674089529E0002005E09E
:100FC0000002002801DA022000E00120012D08952E
:100FD0000FD00021CDE904103046CDE902A4CDE9BF
:100FE000009809AA06A900F0DBFB0790099810B148
:100FF00005E00121EEE71021084618F0BDFE012DA5
:1010000006D1DDE90610641C2144884200DA089705
:10101000079806AC375494E80E00CBE90012CBF8E1
:1010200008300BB0BDE8F08F2DE9F04F884604463C
:10103000D21D22F00701ADF5477DD1E90001CDE9D0
:10104000BE0117F00DF90246BF98C00F01D02D2048
:1010500007E02068810701D52B2002E0202101EA6A
:10106000C000032AC09001D0072A05DB0346414691
:10107000204600F055FB08E12078800601D5E069A4
:1010800000E0062040F2F123B8F1650F814606D05A
:10109000B8F1660F16D0B8F1670F6BD12FE00020C2
:1010A000B9F53C7F009001DC09F10103BEAA01A95A
:1010B000C1A8FFF74AFFDDE9C170002609F101056B
:1010C000834644E001204B4600904FF00047BEAA03
:1010D00001A9C1A8FFF739FFDDE9C2B0C1995D469A
:1010E000002610B909F101000D18B9EB050003D471
:1010F000C0F1FF3609F10105A5EB090028E0B9F1BF
:10110000010F01DA4FF0010900209945009048468F
:1011100000DC0346BEAA01A9C1A8FFF716FFDDE95E
:10112000C1704D4600268346207800070AD4AB459F
:1011300000DA5D4601A8012D04DD411911F8011CFA
:10114000302907D04F4502DA17F1040F04DA0120E5
:1011500082460FE06D1EEEE7002F02DCED1B3E44E1
:1011600003E0781CA84200DD7D1CB81B00F1010AD9
:101170004FF000472078000703D4AA4501DB4FF069
:10118000FF3A0021B7F1004F0DF217388DF8171311
:1011900024D002202B23002F01DA7F422D230A21A5
:1011A000021EA0F1010000DC5FB197FBF1FC97FB90
:1011B000F1F201FB1C7C17460CF1300C08F801CD54
:1011C000EEE7A8F1010003702188090501D545214A
:1011D00000E06521A0F1010800F8011CC098C4A935
:1011E000A1EB0807FF1D00B10120411901EBEA70D6
:1011F000A1693844081A401EA0612078C00602D4B4
:101200002046FFF744FAC09828B1D4E9012190475D
:10121000206A401C20622078C00622D52046FFF7B5
:1012200036FA1EE0002E04DBB34502DD01A8805D26
:1012300000E03020D4E901219047206A401C206260
:10124000761CAAF101005FEA000A0AD100F04AFA0E
:10125000C0680168405CD4E901219047206A401CC5
:101260002062281EA5F10105DCDC07E0D4E901219C
:1012700018F8010B9047206A401C2062381EA7F125
:101280000107F3DC2046FFF718FA03200DF5477D30
:10129000C8E600002DE9F04F04460D46D21D22F0AD
:1012A000070089B0D0E900974846394616F0D8FFC4
:1012B0000246F80F01D02D2307E02068810701D5F1
:1012C0002B2302E0202101EAC0038DF820300BB16E
:1012D000012000E00020032A824601D0072A04DB17
:1012E0002946204600F01CFA3FE12078800601D410
:1012F0000D2500E0E569C7F30A560D2D49DA0021F6
:101300004FEA175B084618F037FD002F00F4400045
:1013100007DA00EB80004FF4400100EBD07001EAE7
:1013200060008115012901DD4FF0FF3100224FEAF5
:10133000850CBCF1180F06D31346ACF118004FF022
:101340008052C24003E04FF4801323FA0CF30CF1F7
:101350000C0CBCF1200F04D3ACF1200C09FA0CF0FA
:1013600001E007FA0CF000294FF0004801DD18B940
:101370000FE00ED140450CD319EB02095F4121B9B2
:10138000404502D19F4329EA0209BBEB175F00D019
:10139000761C2088000502D57B48784402E07A4814
:1013A0007844193808AA302302F80A30037C0AF17D
:1013B0000101002E0AF1020A53546A4602DC4FF082
:1013C000300101E04FF031014FF001088DF80010BD
:1013D00002D0A6F2FF3603E059EA470100D06B4E77
:1013E000002D02DC2178090704D54FF002082E21D8
:1013F0008DF80110C44600210BE0C7F303433F0101
:10140000C35C491C6D1E02F80830052908F101086B
:1014100001DA002DF1DC00210CE000EB1973491C0E
:101420001B786D1E082902F808304FEA091908F1E7
:10143000010801DA002DF0DC21688B0602D516E0E8
:10144000A8F10108E04505DD02EB080313F8013CB3
:10145000302BF5D0B8F1000F09DD02EB080313F8CB
:10146000013C2E2B03D1090701D4A8F10108002D5E
:1014700005DD3E2102F808106D1E08F10108407CD0
:10148000002E02F8080008F1010804DA2D20764247
:1014900002F8080002E02B2002F808000A214FF4AD
:1014A0007A70864208F101080BDB96FBF0F33033CB
:1014B00002F8083096FBF0F308F1010800FB136610
:1014C00001E0642E0CDB642096FBF0F3303302F86D
:1014D000083096FBF0F308F1010800FB136601E009
:1014E0000A2E06DB96FBF1F0303002F8080008F116
:1014F000010896FBF1F001FB1060303002F80800A3
:10150000A16908F1010808EB050202EB0A00081ABC
:10151000A0612078C00602D42046FFF7B8F8216AFF
:1015200008AE01EB0A00206204E0D4E9012116F8BC
:10153000010B9047BAF1010AF7D22078C00602D514
:101540002046FFF7A4F86E4609E016F8010B3E2886
:101550000FD0D4E901219047206A401C2062B8F1E5
:101560000108F2D22046FFF7A8F809B00320BDE831
:10157000F08F206A2844206203E0D4E90121302062
:1015800090476D1EEBD3F8E7B68B010002FCFFFF1E
:1015900010B5436913B1AFF3008001E0FFF7B0F875
:1015A000012010BD127800F124010A7000224A7057
:1015B0000122EDE711684FF0FF32E9E710B543690A
:1015C00013B1AFF3008001E0FFF734F9012010BD43
:1015D000128800F1240182840022C2840122EDE7F6
:1015E00011684FF0FF32E9E72DE9F04116460C464D
:1015F000054600F06FF8036893F80101012807D051
:10160000FF2C12D8185D80B101202C70BDE8F0814C
:10161000D3F807013246214603F20713C7182846BC
:10162000BC46BDE8F041002360474FF0FF30EDE7D6
:101630002DE9F0410646FFF77BFB8046454613E067
:1016400016B1E068B0420ED120682860D4E90101EB
:10165000D8F8007088472046FEF7E7FFD8F800006A
:10166000B842EBD100E025462C68002CE8D1BDE85B
:10167000F08110B500F076F9BDE8104000F06CB9CB
:10168000004870471801002070477546FFF7F8FFC3
:10169000AE4605006946534620F00700854618B05F
:1016A00020B5FEF73FFEBDE820404FF000064FF0AA
:1016B00000074FF000084FF0000BAC46ACE8C00943
:1016C000ACE8C009ACE8C009ACE8C00921F00701EA
:1016D0008D46704710B500F005F8001D10BD00BF25
:1016E0008D720100004870473801002003464068B1
:1016F0008C46002818BF88423CBF03464068F8D398
:1017000018681844884207D00CF1030020F0070045
:10171000001D411A521A0146081D0A60FEF785BFD6
:101720002DE9F0411F46044603260168072A01F40B
:10173000006004DB08B116A505E016A503E008B1BA
:1017400015A500E015A521F010002060A069C01EBD
:10175000A0610FB1401EA0612046FEF798FF4FB177
:10176000D4E9012138469047206A401C2062C01C01
:10177000206206E0206AFAE7D4E9012115F8010B9E
:101780009047761EF8D22046FEF797FFBDE8F0811D
:101790004E414E006E616E00494E4600696E660015
:1017A0002DE9FF4F0446ADF5437DD1AB93E825000D
:1017B000D099DDF854830091CDE90102C0AAC1A9F6
:1017C00003A800F00DFA0346C198D499064641B12A
:1017D0001D446D1C012D04DAC5F1010101250844E9
:1017E0000B44A6464FF0FF324FF0390B002124E0A6
:1017F000401EB04201D300270CE0DDF800C387088B
:101800003CF817704FEA807C4FEA1C7C27FA0CF7F3
:1018100007F00F076D1E092F0EDA002A02DB3032A7
:1018200004F8012B5A46002903DD491E04F8012B58
:10183000F9E700213A4600E0491C08B1002DD7DC49
:101840004FF0010CB8F1020F08D0B8F1010F07D02A
:10185000A0B1401EB04205D300270CE0002522E0D5
:10186000022520E0C09F850837F8155087073F0FF5
:10187000FD4005F00F07052F02DB04E04FF00007E5
:101880004FF0000507E003DC002901DCD50701D09B
:10189000012500E002250FB14FF0000C022D02D00F
:1018A000BCF1000F22D04FF00009DDF800A313E0D7
:1018B000401EB04201D300270BE04FEA90083AF8EF
:1018C00018704FEA80784FEA187827FA08F707F07F
:1018D0000F070FB1012004E00028E9D1B9F10000A1
:1018E00001D04FF0000C022D00D10546012D02F170
:1018F00001000AD010B1303204F8012B58460029FB
:1019000016DD491E04F8010BF9E718B1313204F86D
:10191000012B06E0312004F8010BD4985B1C00B9C0
:10192000491E3020002903DD491E04F8010BF9E7A8
:10193000C4980360C598C0F800C00DF5477DA4EBBE
:101940000E00BDE8F08F10B50446AFF300802046CE
:10195000BDE81040FEF7D2BC002801D0FFF7DEB989
:101960007047000010B5002102A000F0B3F901207B
:1019700010BD0000534947414252543A2041626E23
:101980006F726D616C207465726D696E6174696FE0
:101990006E00000010B500F0B7F9BDE81040FFF789
:1019A000DBBF10B500F006FABDE81040FFF7D4BF6A
:1019B000810B43F26D425143490B01EB107101EB76
:1019C000507070472DE9FF5F804600252F46DDF8F7
:1019D00038A02CE001990020044631F817B021E02E
:1019E000544503D2039931F8141000E000210BFB99
:1019F0000100B0B13E19002102E028F815106D1C5D
:101A0000B542FAD938F81610014489460846FFF75E
:101A1000CFFF6FF41C7100FB01F209EB021128F8F3
:101A20001610641C5445DBD30028D9D17F1C0298C2
:101A30008742CFD3284604B0BDE8F09F2DE9FF4F81
:101A400087B003AC01230025159EADF8182084E86B
:101A50000B000A9B0121DBB1B3FA83F0C0F11F0731
:101A600083EA53000DF10C0B80EA900080EA10101D
:101A700080EA102080EA104000F00100784021EA5E
:101A800000045BF82400028001A840F8241072E0F2
:101A90000180169808B10021016001200BB0BDE85B
:101AA000F08F0DF1040858F8242000925BF8241000
:101AB000C4F101045BF824000B46FFF783FF48F8EC
:101AC00024000A996D000120B84008420ED0059804
:101AD00006AB009058F824205BF82410C4F10104F0
:101AE0005BF82400FFF76EFF48F82400149890B3C9
:101AF00058F82400B0423ED9811B1498002827DDF5
:101B00004FF0000948464A465BF82430DFF8C0E150
:101B100016E033F812C01CEB000010D041F6372C51
:101B2000824600FB0CF040F2712C0EEBC000400F1F
:101B300000FB0CF8BAEB081F01D04FF00109521C52
:101B40008A42E6D333F811C04844604423F81100B8
:101B50005B46002009E00EE053F8242000EB010C66
:101B600032F81CC022F810C0401CB042F4D301A8C7
:101B70000D4440F824607F1E93D5169800B105608F
:101B800001A850F8240089E72DE9F04389468446EE
:101B900000210A460B461DE04B4502D23CF813409B
:101BA00021444FF00A0800252C46B1FBF8F69707B0
:101BB00008FB16163F0FB1FBF8F106FA07F72F43A3
:101BC000521CBDB206B11046641C042CEDD32CF897
:101BD00013505B1C4B45DFD30029DDD1BDE8F083FA
:101BE0002DE9FF4F824689B00526DDF860B035E06B
:101BF000042E0DDA22464FF40050ADF80400012007
:101C0000009001AB03A906A8FFF7DCFE074600E041
:101C1000002706EB860000EBC602DDE9160100F0A6
:101C2000F8F800240DF118080DF10C09C0F30C05AB
:101C300010E0BC4202D238F8140005442846FFF7F1
:101C4000B7FE6FF41C71414305EB0111054629F8FD
:101C50001410641CBC42ECD3002DEAD1301EA6F156
:101C60000106C5DC0025BBF1000128460AF5BD765A
:101C700009DD0B4651460222009001900290304649
:101C8000FFF7DCFE0FE00BDA51460522CBF1000333
:101C90000090019002903046FFF7D0FE5D4602E0D2
:101CA0000120AAF87A013346224603A90090504643
:101CB000FFF788FE0B9A01465046C2F800A0FFF7D6
:101CC00063FF0A996D1E086028440DB0E7E6000026
:101CD00000F0FFFF70B505460C460A2000E06D1CC1
:101CE00000F090F835B128780028F8D102E0641CA3
:101CF00000F088F814B120780028F8D1BDE87040D1
:101D00000A2000F07FB8000010B5022803D041017E
:101D100003D50DA112E0002010BD010101D50FA1D6
:101D20000CE0C10001D511A108E0810001D512A18C
:101D300004E0400001D513A100E0002115A0FFF749
:101D4000C9FF012010BD0000496E76616C696420F6
:101D50004F7065726174696F6E0000004469766946
:101D60006465204279205A65726F00004F76657273
:101D7000666C6F7700000000556E646572666C6F6C
:101D800077000000496E6578616374205265737551
:101D90006C7400005349474650453A2041726974BB
:101DA000686D6574696320657863657074696F6ECA
:101DB0003A20000010B5012805D0002103A0FFF74C
:101DC00089FF012010BD09A1F8E7000053494752DF
:101DD000544D454D3A204F7574206F6620686561FB
:101DE00070206D656D6F7279000000003A204865C3
:101DF0006170206D656D6F727920636F727275709E
:101E00007465640008B569468DF800000320ABBE18
:101E100008BDB2F120030AD5C2F1200320FA02F076
:101E200001FA03F340EA030021FA02F1704721FAB4
:101E300003F04FF00001704782B0019042F2003091
:101E4000C4F2010000900099486820F440304860D6
:101E500001984268009948681043486001980168F9
:101E6000486820F4807048600198016802694868F9
:101E700040EA0220486001980168486820F04070FC
:101E8000486001980168826848681043486001987A
:101E90000168886820F40060886001980168C26861
:101EA0008868104388600198806A0121C0F600713B
:101EB000884219D0FFE701980168886820F07060B7
:101EC000886001980168826A886810438860019878
:101ED0000168886820F04050886001980168C26AF3
:101EE0008868104388600CE001980168886820F0D9
:101EF0007060886001980168886820F040508860B0
:101F0000FFE701980168886820F002008860019866
:101F1000027E0168886840EA42008860019890F873
:101F20002000C8B1FFE701980168486840F40060EC
:101F3000486001980168486820F460404860019852
:101F40000168426A4EF20000CFF6FF7000EB4232A9
:101F500048681043486006E001980168486820F42A
:101F600000604860FFE701980168C86A20F47000CB
:101F7000C86201980168C2690020CFF6F07000EBDA
:101F80000252C86A1043C86201980168886820F448
:101F900000708860019890F830200168886840EAF5
:101FA0004220886001980168886820F48060886019
:101FB000019801684269886840EA8220886002B01E
:101FC00070470000FFE7FEE780B541F6F430C2F24B
:101FD000000001F085F980BD80B541F61C40C2F2D9
:101FE000000001F07DF980BD80B582B001900091C4
:101FF000019801F0C3FD0198022100F0C1FE019893
:10200000006846F20041C4F20001884207D1FFE7B0
:10201000009842F27C51C2F20001086010E0019881
:10202000006846F60001C4F20001884207D1FFE7CC
:10203000009842F28051C2F200010860FFE7FFE71A
:1020400002B080BD80B586B00490ADF80E1002924B
:10205000ADF80630BDF80E0040F25421C2F2000186
:102060000860BDF80E00486000208860C860BDF8B8
:10207000060008610498029A6B4600F0ABFE20B19E
:10208000FFE700208DF8170004E0FFE701208DF83E
:102090001700FFE79DF8170006B080BD80B58CB033
:1020A0000B90012009900890002007900390049065
:1020B00001900290059006900B98006846F200414E
:1020C000C4F20001884205D1FFE70B9801A900F096
:1020D00039FF11E00B98006846F60001C4F20001D8
:1020E000884208D1FFE70E200A9006900B9801A9BC
:1020F00000F028FFFFE7FFE70CB080BD80B582B09D
:10210000019000910199009A0020C0F60D0006F0A0
:102110008DF802B080BD000080B541F6C450C2F217
:10212000000001F025FE80BD80B541F60450C2F2EA
:10213000000001F01DFE80BD80B541F6A440C2F252
:10214000000001F015FE80BD80B541F68460C2F24A
:10215000000001F00DFE80BD80B541F66450C2F272
:10216000000001F005FE80BD80B541F64440C2F29A
:10217000000001F0FDFD80BD80B541F6E460C2F2D3
:10218000000001F0F5FD80BD80B541F62460C2F28B
:10219000000001F0EDFD80BD80B541F64470C2F253
:1021A000000001F0E5FD80BD82B00190019800784B
:1021B00010384AF6AB21CAF6AA21A0FB011000098B
:1021C000009000994AF2B010C0F60100405C0199FD
:1021D000C8650098042807D3FFE70199086804221E
:1021E00062F30900886506E00199086840F2FF3251
:1021F00090438865FFE70198806D02B0704700004A
:1022000086B0059000208DF813000598806A039031
:102210000598806910BBFFE70398029003281BD83C
:102220000299DFE801F0020D0218059890F82F00DE
:10223000C00720B1FFE701208DF81300FFE70CE095
:102240000598C06AB0F1C07F04D1FFE701208DF886
:102250001300FFE701E000E0FFE745E00598806933
:10226000B0F5005F25D1FFE70398019003281ED841
:102270000199DFE801F00206021101208DF8130038
:1022800016E0059890F82F00C00720B1FFE7012065
:102290008DF81300FFE70BE00598C06AB0F1C07F2E
:1022A00004D1FFE701208DF81300FFE700E0FFE70E
:1022B00019E003980090032804D3FFE7009803284F
:1022C00004D00EE001208DF813000BE0059890F883
:1022D0002F00C00720B1FFE701208DF81300FFE7B2
:1022E00000E0FFE7FFE7FFE79DF8130006B0704747
:1022F00084B00390029101920093039801680868EA
:1023000020F48020086000980399096848600398C9
:102310008068402809D1FFE701980399096888601F
:10232000029803990968C86008E00298039909684F
:102330008860019803990968C860FFE704B0704796
:102340007047000081B0EFF3108072B60090FFE795
:10235000FEE7000083B002908DF807100020009087
:102360009DF8070018B9FFE70020009017E09DF8DE
:102370000700012804D1FFE74FF4807000900DE0C2
:102380009DF80700022804D1FFE74FF40070009089
:1023900003E04FF440700090FFE7FFE7FFE702988B
:1023A0000C2804D3FFE7029804300290FFE743F6BD
:1023B0001041C4F20201086820F440700860009ADD
:1023C000086810430860086820F0F8000860029A66
:1023D000086840EAC20040F002000860086840F463
:1023E0008030086003B0704743F60040C4F202003A
:1023F0000068800500281FD5FFE743F60041C4F2BE
:102400000201086820F400700860FFE743F600410D
:10241000C4F20201086840F400600860086820F413
:1024200000600860FFE743F60041C4F2020108685B
:1024300040F400700860FFE743F60040C4F2020079
:102440000068400500281FD5FFE743F60041C4F2AD
:102450000201086820F480600860FFE743F600414D
:10246000C4F20201086840F480500860086820F453
:1024700080500860FFE743F60041C4F2020108689B
:1024800040F480600860FFE77047000082B08DF87C
:102490000700009143F61041C4F20201086820F4DD
:1024A00040700860009803280AD1FFE743F6104106
:1024B000C4F20201086848F204021043086016E002
:1024C0000098012809D1FFE743F61041C4F2020148
:1024D000086840F00400086008E043F61041C4F2C8
:1024E0000201086840F400400860FFE7FFE79DF83C
:1024F000072043F61041C4F20201086840EA0220B6
:1025000040F48030086002B07047000082B0019053
:102510008DF8031043F61041C4F20201086820F45C
:102520004070086008680860086840F001000860B2
:102530009DF803000199087002B0704784B00390C1
:102540000193009243F61041C4F20201086820F49E
:1025500040700860086840F440700860086840F007
:1025600001000860009803990860BFF36F8F01981D
:102570000399486004B0704782B00190ADF8021032
:1025800043F61041C4F20201086820F4407008606C
:10259000086840F480700860086840F00100086036
:1025A000BDF802000199088002B0704782B0019026
:1025B000009143F61041C4F20201086820F4407013
:1025C0000860086840F400700860086840F0010086
:1025D000086000980199086002B0704743F60C400B
:1025E000C4F202000068C00600280FD5FFE742F2DF
:1025F0008451C2F20001C86940F01000C86143F67E
:102600000C41C4F2020110200860FFE743F60C40C1
:10261000C4F202000068800600280FD5FFE742F2EE
:102620008451C2F20001C86940F00800C86143F655
:102630000C41C4F2020120200860FFE743F60C4081
:10264000C4F202000068400600280FD5FFE742F2FE
:102650008451C2F20001C86940F00400C86143F629
:102660000C41C4F2020140200860FFE743F60C4031
:10267000C4F202000068000600280FD5FFE742F20E
:102680008451C2F20001C86940F00200C86143F6FB
:102690000C41C4F2020180200860FFE743F60C40C1
:1026A000C4F202000068C005002810D5FFE742F21E
:1026B0008451C2F20001C86940F00100C86143F6CC
:1026C0000C41C4F202014FF480700860FFE743F64A
:1026D0000C40C4F202000068800700280FD5FFE715
:1026E00042F28451C2F20001C86940F02000C86182
:1026F00043F60C41C4F2020102200860FFE7704774
:1027000080B584B002900020019042F28451C2F260
:102710000001C86102F04AF90190FFE743F60C405E
:10272000C4F202000068C003002815D5FFE7029834
:10273000013080B1FFE7029840B1FFE702F036F9BF
:102740000199401A0299884204D9FFE703208DF8C5
:102750000F0023E0FFE7E1E743F60C40C4F202007C
:102760000068C00738B1FFE743F60C41C4F202012C
:1027700001200860FFE743F60C40C4F20200006845
:1027800010F4F97F06D0FFE7FFF728FF01208DF84E
:102790000F0003E000208DF80F00FFE79DF80F0009
:1027A00004B080BD82B0019000200090019843F6F3
:1027B000FF71C0F60001884208D8FFE70198B0F128
:1027C000006F03D3FFE700200090C3E0019847F6B5
:1027D000FF71C0F6000188420BD8FFE7019844F270
:1027E0000001C0F60001884203D3FFE701200090FA
:1027F000AFE001984BF6FF71C0F6000188420BD89C
:10280000FFE7019848F20001C0F60001884203D3B7
:10281000FFE7022000909BE001984FF6FF71C0F6A1
:10282000000188420BD8FFE701984CF20001C0F686
:102830000001884203D3FFE70320009087E001985E
:102840004FF6FF71C0F6010188420AD8FFE70198F0
:102850000021C0F60101884203D3FFE70420009065
:1028600074E001984FF6FF71C0F6030188420AD860
:10287000FFE701980021C0F60201884203D3FFE779
:102880000520009061E001984FF6FF71C0F6050148
:1028900088420AD8FFE701980021C0F60401884267
:1028A00003D3FFE7062000904EE001984FF6FF713A
:1028B000C0F6070188420AD8FFE701980021C0F658
:1028C0000601884203D3FFE7072000903BE0019810
:1028D0004FF6FF71C0F6090188420AD8FFE7019858
:1028E0000021C0F60801884203D3FFE708200090CA
:1028F00028E001984FF6FF71C0F60B0188420AD814
:10290000FFE701980021C0F60A01884203D3FFE7E0
:102910000920009015E001984FF6FF71C0F60D01F7
:1029200088420AD8FFE701980021C0F60C018842CE
:1029300003D3FFE70A20009002E00B200090FFE79E
:10294000FFE7FFE7FFE7FFE7FFE7FFE7FFE7FFE757
:10295000FFE7FFE7009802B07047000041F6301033
:10296000C2F2000000680068406A41F62C11C2F211
:1029700000010968C1EB01410844704785B003902C
:10298000029100200190FFE7039890F83C00012895
:1029900004D1FFE702208DF8130007E1039901201D
:1029A00081F83C00FFE7FFE7029800680A281CD383
:1029B000FFE70298008800EB4000A0F11E0107200D
:1029C00000FA01F203980168C8689043C860029950
:1029D0008868098801EB41011E3900FA01F2039869
:1029E0000168C8681043C86018E00298008800EBCE
:1029F0004001072000FA01F203980168086990433A
:102A0000086102998868098801EB410100FA01F226
:102A100003980168086910430861FFE7029840685D
:102A200006281BD8FFE70298406800EB8000411F92
:102A30001F2000FA01F203980168486B9043486335
:102A400002990888496801EB8101053900FA01F211
:102A500003980168486B104348633DE00298406862
:102A60000C281CD8FFE70298406800EB8000A0F11A
:102A700023011F2000FA01F203980168086B9043BC
:102A8000086302990888496801EB8101233900FA3B
:102A900001F203980168086B104308631BE0029879
:102AA000406800EB8000A0F141011F2000FA01F214
:102AB00003980168C86A9043C86202990888496807
:102AC00001EB8101413900FA01F203980168C86AFB
:102AD0001043C862FFE7FFE742F20030C4F2010092
:102AE00000900398006842F20001C4F2010188429C
:102AF00010D1FFE70298006812280BD1FFE7009978
:102B0000486820F4000048600099486840F480005C
:102B10004860FFE70398006842F20001C4F2010137
:102B2000884239D1FFE7029800681221C1F2000102
:102B3000884205D0FFE70298006811282CD1FFE7F2
:102B40000099486820F4800048600099486840F483
:102B500000004860029800681221C1F2000188421A
:102B600019D1FFE740F2D400C2F2000000684DF630
:102B70008361C4F21B31A0FB0110800C00EB8000CC
:102B800040000190FFE7019820B1FFE7019801386C
:102B90000190F8E7FFE7FFE7FFE70399002081F8DE
:102BA0003C00FFE700208DF81300FFE79DF81300BD
:102BB00005B0704780B584B0029000208DF8070002
:102BC000029820B9FFE701208DF80F0042E002983B
:102BD000806A0121C0F60071884201D0FFE7FFE75B
:102BE0000298006C50B9FFE7029800F037F802999C
:102BF00000204864029981F83C00FFE70298006CCD
:102C0000C006002817D4FFE70298006C40F00200CD
:102C100020F48850029908640298FFF70DF9029990
:102C2000002048640298006C40F0010020F002008F
:102C30000299086403E001208DF80700FFE7FFE731
:102C40000299002081F83C00FFE79DF807008DF80D
:102C50000F00FFE79DF80F0004B080BD80B58EB077
:102C60000D9000200C900B900A90099008900D9800
:102C7000006842F20001C4F2010188427DD1FFE701
:102C8000FFE70020079043F64400C4F20200016809
:102C900041F480710160006800F48070079007982B
:102CA000FFE7FFE70020069043F63000C4F2020081
:102CB000016841F004010160006800F00400069022
:102CC0000698FFE7FFE70020059043F63000C4F2C6
:102CD0000200016841F001010160006800F001009C
:102CE00005900598FFE70C200890032001900990BB
:102CF000002003900A9040F60000C4F2020008A9E8
:102D0000029101F02BFC019A029903984023089349
:102D100009920A900020C4F2020001F01FFC0399FE
:102D200041F64440C2F20000049046F21042C4F260
:102D30000202026041608160C1604FF48062026102
:102D40004FF4006242614FF4005282614FF480728E
:102D5000C2610162416201F09BF918B1FFE7FFF720
:102D6000F1FAFFE7FFE70D9841F64441C2F2000196
:102D700081630D988863FFE7FFE70EB080BD000018
:102D800084B002900191029890F820008DF8030021
:102D90009DF80300012805D0FFE79DF803000228F5
:102DA0000AD1FFE7019A0298016848691043486117
:102DB00000208DF80F0008E00299486A40F4802056
:102DC000486201208DF80F00FFE79DF80F0004B066
:102DD0007047000088B0069005910492039306980E
:102DE00090F820008DF80700069800688068009031
:102DF0000598806808B9FFE700E0FFE79DF8070045
:102E0000012806D0FFE79DF80700022840F08D80DA
:102E1000FFE79DF80300400700280CD4FFE79DF86A
:102E200003000007002806D4FFE79DF80300C00652
:102E3000002871D5FFE70098C0F301600290029866
:102E4000032809D3FFE70699486A40F40000486266
:102E500001208DF81F0071E002990120884003993C
:102E600008600598806868B9FFE705980168C06840
:102E700040EA415006990968029A01EB0211C1F833
:102E800080010EE005994A688868C96840EAC20076
:102E9000084306990968029A01EB0211C1F8800102
:102EA000FFE70598006906990968029A01EB02118B
:102EB000C1F884010598007D01280CD1FFE7069830
:102EC0000068029900EB0111D1F8840140F4807090
:102ED000C1F88401FFE70498406806990968029ADE
:102EE00001EB0211C1F88C01049800680699096889
:102EF000029A01EB0211C1F8880106980068029954
:102F000000EB0111D1F8800140F00100C1F880010F
:102F100000208DF81F0011E00699486A40F4001067
:102F2000486201208DF81F0008E00699486A40F4C5
:102F30008020486201208DF81F00FFE79DF81F00E8
:102F400008B0704786B0049003910498006801901F
:102F5000049890F820008DF803009DF803000128E4
:102F600006D0FFE79DF80300022840F0B080FFE79D
:102F700046F20040C4F2000001900199D1F800022D
:102F800040F00100C1F800020199D1F8000220F4DC
:102F90007C50C1F800020398426A0199D1F80002FE
:102FA00040EA0220C1F800020398406900F01F01C6
:102FB000012088400290029A0199D1F81C029043A6
:102FC000C1F81C020398C069F0B9FFE7029A0199A1
:102FD000D1F80C029043C1F80C02039A9088D16892
:102FE000526940EA0140019901EBC201C1F8400277
:102FF000039A10889168526940EA0140019901EBF7
:10300000C201C1F84402FFE70398C06901281ED13C
:10301000FFE7029A0199D1F80C021043C1F80C02A3
:10302000039A90881168526940EA0140019901EBC6
:10303000C201C1F84002039A90899168526940EA3E
:103040000140019901EBC201C1F84402FFE7039876
:10305000806940B9FFE7029A0199D1F804029043D0
:10306000C1F8040207E0029A0199D1F80402104362
:10307000C1F80402FFE70398006940B9FFE7029A2C
:103080000199D1F814029043C1F8140207E0029AA2
:103090000199D1F814021043C1F81402FFE7039814
:1030A000006A012808D1FFE7029A0199D1F81C02B1
:1030B0001043C1F81C02FFE70199D1F8000220F08B
:1030C0000100C1F8000200208DF8170008E0049903
:1030D000486A40F48020486201208DF81700FFE71D
:1030E0009DF8170006B0704781B0009001B070479E
:1030F00086B00490039102920193049890F8200006
:103100008DF803009DF80300012806D0FFE79DF825
:103110000300022840F0D780FFE7039880B9FFE75B
:1031200004980068C068800748B9FFE70499486AB6
:1031300040F40010486201208DF81700CCE00FE049
:10314000049800680069800748B9FFE70499486A55
:1031500040F40010486201208DF81700BCE0FFE742
:1031600004980068039900EB0110D0F8B00100F05A
:103170000400029988600298806858B9FFE70498B3
:103180000068039900EB0110D0F8B001400D0299DE
:1031900008600AE004980068039900EB0110D0F879
:1031A000B001C00802994860FFE7049800680399DD
:1031B00000EB0110D0F8B00100F002000299C860E5
:1031C00004980068039900EB0110D0F8B40100F0F6
:1031D0000F000299086104980068039900EB011040
:1031E000D0F8B40180B2000A02998861049800689E
:1031F000039900EB0110D0F8B401000C029948616A
:1032000004980068039900EB0110D0F8B801019907
:10321000087004980068039900EB0110D0F8B80119
:10322000000A0199487004980068039900EB0110A6
:10323000D0F8B801000C01998870049800680399CF
:1032400000EB0110D0F8B801000E0199C870049885
:103250000068039900EB0110D0F8BC0101990871D6
:1032600004980068039900EB0110D0F8BC01000A33
:103270000199487104980068039900EB0110D0F897
:10328000BC01000C0199887104980068039900EB57
:103290000110D0F8BC01000E0199C871039838B92B
:1032A000FFE704980168C86840F02000C86006E0A5
:1032B00004980168086940F020000861FFE70020D9
:1032C0008DF8170008E00499486A40F480204862AD
:1032D00001208DF81700FFE79DF8170006B0704732
:1032E00080B58AB00990002008900998006840696C
:1032F00007900998006840680690099800688068FF
:10330000059009980068C0680490099800680069F1
:10331000039009980068806902909DF81C00C0071E
:10332000002800F09480FFE79DF81400C00758B310
:10333000FFE709980168012088609DF81400800764
:10334000002804D5FFE7099800F062FC1BE09DF817
:1033500014004007002805D5FFE7089840F40060F6
:1033600008900FE09DF814000007002805D5FFE73E
:10337000089840F48050089003E0099800F044FC5D
:10338000FFE7FFE7FFE7FFE79DF81500C00760B321
:10339000FFE7099801684FF4807088609DF8150078
:1033A0008007002804D5FFE7099800F039FC1BE0EE
:1033B0009DF815004007002805D5FFE7089840F460
:1033C000005008900FE09DF815000007002805D573
:1033D000FFE7089840F48040089003E0099800F067
:1033E0001BFCFFE7FFE7FFE7FFE79DF81600C007BC
:1033F00060B3FFE7099801684FF4803088609DF85A
:1034000016008007002804D5FFE7099800F010FC9B
:103410001BE09DF816004007002805D5FFE7089837
:1034200040F4004008900FE09DF8160000070028C7
:1034300005D5FFE7089840F48030089003E009982C
:1034400000F0F2FBFFE7FFE7FFE7FFE7FFE79DF88C
:103450001C000007002810D5FFE79DF81000C006EB
:10346000002809D5FFE7089840F4007008900998F3
:1034700001681020C860FFE7FFE79DF81C004007C7
:1034800000280FD5FFE79DF810000007002808D599
:10349000FFE7099801680820C860099800F0CEFA93
:1034A000FFE7FFE79DF81C00800700280BD5FFE72A
:1034B00009980068C068800720B1FFE7099800F00C
:1034C000C1FAFFE7FFE79DF81C004006002810D571
:1034D000FFE79DF80C00C006002809D5FFE7089813
:1034E00040F4806008900998016810200861FFE7A7
:1034F000FFE79DF81C00800600280FD5FFE79DF828
:103500000C000007002808D5FFE70998016808208B
:103510000861099800F0E0FAFFE7FFE79DF81C005A
:10352000C00600280BD5FFE70998006800698007EE
:1035300020B1FFE7099800F0D3FAFFE7FFE79DF815
:103540001E00800700280FD5FFE79DF81800C00671
:10355000002808D5FFE709980168102048600998FD
:1035600000F008FBFFE7FFE79DF81E00C00778B1F9
:10357000FFE79DF818000007002808D5FFE7099825
:10358000016808204860099800F056FBFFE7FFE754
:103590009DF81D000006002840F18D80FFE79DF892
:1035A00018004007002840F18180FFE79DF81D00CA
:1035B000C00750B1FFE79DF80800C00728B1FFE73A
:1035C000089840F001000890FFE79DF81D00800773
:1035D00000280BD5FFE79DF808008007002805D5D7
:1035E000FFE7089840F002000890FFE79DF81D00F3
:1035F000400700280BD5FFE79DF80800400700288A
:1036000005D5FFE7089840F004000890FFE79DF813
:103610001D000007002848D5FFE79DF8080010F0BE
:10362000700F42D0FFE7029800F070000146019150
:10363000102814D0FFE70198202815D0FFE7019843
:10364000302816D0FFE70198402817D0FFE70198EF
:10365000502818D0FFE70198602819D01DE008987D
:1036600040F00800089019E0089840F01000089019
:1036700014E0089840F0200008900FE0089840F00F
:10368000400008900AE0089840F08000089005E0AB
:10369000089840F48070089000E0FFE709980168FE
:1036A000886920F070008861FFE7FFE709980168EA
:1036B00004204860FFE7089848B1FFE7089A099995
:1036C000486A104348620998FFF70EFDFFE70AB009
:1036D00080BD000080B584B00290029820B9FFE759
:1036E00001208DF80F00E0E0029890F8200020B94A
:1036F000FFE7029800F0DEF8FFE70298016808682B
:1037000040F00100086001F051F90190FFE70298D4
:1037100000684068C007A8B9FFE701F047F90199C0
:10372000401A0B280DD3FFE70299486A40F4003095
:1037300048620299052081F8200001208DF80F00D1
:10374000B3E0E4E702980168086820F0020008602E
:1037500001F02CF90190FFE70298006840688007AB
:10376000002815D5FFE701F021F90199401A0B282F
:103770000DD3FFE70299486A40F40030486202998D
:10378000052081F8200001208DF80F008DE0E3E78F
:103790000298007E012807D1FFE7029801680868B7
:1037A00040F08000086006E002980168086820F098
:1037B00080000860FFE70298407E012807D1FFE7FC
:1037C00002980168086840F04000086006E002982E
:1037D0000168086820F040000860FFE70298807EDA
:1037E000012807D1FFE702980168086840F020002F
:1037F000086006E002980168086820F02000086070
:10380000FFE70298C07E012807D1FFE70298016810
:10381000086820F01000086006E002980168086857
:1038200040F010000860FFE70298007F012807D1F0
:10383000FFE702980168086840F00800086006E0A9
:1038400002980168086820F008000860FFE7029805
:10385000407F012807D1FFE702980168086840F01F
:103860000400086006E002980168086820F004007F
:103870000860FFE7029B19685A689868D3F80CC083
:1038800040EA0C00D3F810C040EA0C005B69184312
:10389000013A1043C861029900204862029A01214E
:1038A00082F820108DF80F00FFE79DF80F0004B09C
:1038B00080BD000080B590B00F9000200E900D905C
:1038C0000C900B900A900F98006846F20041C4F2E9
:1038D0000001884249D1FFE741F28820C2F200008E
:1038E0000168013101600068012812D1FFE7FFE79C
:1038F0000020099043F64000C4F20200016841F044
:1039000000710160006800F0007009900998FFE7FD
:10391000FFE7FFE70020089043F63000C4F2020002
:10392000016841F008010160006800F0080008909B
:103930000898FFE703200A9002210B9100210391D0
:103940000C910D9009200E9040F60040C4F2020048
:103950000AA900F003FE039A14200490062101F046
:1039600005F9049801F0F8F865E00F98006846F64C
:103970000001C4F2000188425CD1FFE7FFE70020AC
:10398000079043F64000C4F20200016841F08061F4
:103990000160006800F0806007900798FFE741F23F
:1039A0008820C2F20000016801310160006801282E
:1039B00012D1FFE7FFE70020069043F64000C4F273
:1039C0000200016841F000710160006800F00070C1
:1039D00006900698FFE7FFE7FFE70020059043F613
:1039E0003000C4F20200016841F002010160006889
:1039F00000F0020005900598FFE74FF440500A9050
:103A000002200B90002001900C9003200D900920C3
:103A10000E9040F20040C4F202000AA900F09EFDA0
:103A2000019A40200290062101F0A0F8029801F0CE
:103A300093F8FFE7FFE710B080BD000081B0009071
:103A400001B0704780B582B001900198006846F2DD
:103A50000041C4F20001884219D1FFE7019841F208
:103A60003823C2F2000303F10C020021FFF740FBF0
:103A7000012801D1FFE7FFE742F27C50C2F20000CB
:103A8000016841F23820C2F20000884722E0019824
:103A9000006846F60001C4F20001884219D1FFE730
:103AA000019841F23823C2F2000303F10C02002115
:103AB000FFF71EFB012801D1FFE7FFE742F280502C
:103AC000C2F20000016841F23820C2F200008847CB
:103AD000FFE7FFE702B080BD81B0009001B0704702
:103AE00080B582B001900198006846F20041C4F2AE
:103AF0000001884219D1FFE7019841F26023C2F228
:103B0000000303F10C020121FFF7F2FA012801D1B1
:103B1000FFE7FFE742F27C50C2F20000016841F289
:103B20006020C2F20000884722E00198006846F653
:103B30000001C4F20001884219D1FFE7019841F267
:103B40006023C2F2000303F10C020121FFF7D0FA57
:103B5000012801D1FFE7FFE742F28050C2F20000E6
:103B6000016841F26020C2F200008847FFE7FFE7EA
:103B700002B080BD81B0009001B0704780B584B0C4
:103B80000290029890F8200001282FD1FFE70299B7
:103B9000022081F8200002980168086820F00100E6
:103BA000086000F003FF0190FFE70298006840689A
:103BB000C007A8B1FFE700F0F9FE0199401A0B28F1
:103BC0000DD3FFE70299486A40F400304862029939
:103BD000052081F8200001208DF80F000FE0E4E7B8
:103BE0000299002048628DF80F0008E00299486AA7
:103BF00040F40020486201208DF80F00FFE79DF897
:103C00000F0004B080BD000081B0009001B070478B
:103C100081B0009001B0704781B0009001B0704752
:103C200081B0009001B0704781B0009001B0704742
:103C300081B0009001B0704781B0009001B0704732
:103C400080B584B002900298806D019000F0AEFEC5
:103C50000090029890F8350002280DD0FFE70299F5
:103C600080204865FFE70299002081F83400FFE7D3
:103C700001208DF80F0055E002980168086820F0D7
:103C80001600086002980168486920F080004861C9
:103C90000298006C20B9FFE70298806C38B1FFE70A
:103CA00002980168086820F008000860FFE70298A1
:103CB0000168086820F001000860FFE702980068CA
:103CC0000068C007C8B1FFE700F070FE0099401A15
:103CD000062811D3FFE702992020486502990320A6
:103CE00081F83500FFE70299002081F83400FFE7F2
:103CF00003208DF80F0015E0E0E70298C16D3F202A
:103D00008840019988600299012081F83500FFE719
:103D10000299002081F83400FFE7FFE700208DF8CA
:103D20000F00FFE79DF80F0004B080BD82B0009047
:103D3000009890F83500022807D0FFE7009980200E
:103D4000486501208DF807000EE00099052081F8F4
:103D5000350000980168086820F001000860FFE75E
:103D600000208DF80700FFE79DF8070002B07047BC
:103D700080B586B005900020039040F2D400C2F2D6
:103D80000000006848F2B511C1F64E31A0FB0110E9
:103D9000800A02900598806D019001980068049057
:103DA00004980599C96DC840000700281AD5FFE797
:103DB0000598006800684007002812D5FFE70598BD
:103DC0000168086820F0040008600598C16D0820AB
:103DD0008840019988600599486D40F00100486568
:103DE000FFE7FFE704980599C96DC840C007A0B177
:103DF000FFE7059800684069000600280CD5FFE73A
:103E00000598C16D01208840019988600599486D29
:103E100040F002004865FFE7FFE704980599C96D87
:103E2000C8404007002814D5FFE7059800680068DF
:103E3000800700280CD5FFE70598C16D0420884055
:103E4000019988600599486D40F004004865FFE7D6
:103E5000FFE704980599C96DC840C006002847D5FA
:103E6000FFE7059800680068000700283FD5FFE7D6
:103E70000598C16D102088400199886005980068F8
:103E80000068400300281AD5FFE70598006800681D
:103E90000003002809D4FFE70598006C20B1FFE774
:103EA0000598016C8847FFE708E00598806C20B111
:103EB000FFE70598816C8847FFE7FFE716E0059864
:103EC00000680068C005002807D4FFE7059801686E
:103ED000086820F008000860FFE70598006C20B132
:103EE000FFE70598016C8847FFE7FFE7FFE7FFE77B
:103EF00004980599C96DC8408006002840F18D805E
:103F0000FFE7059800680068C006002840F184803B
:103F1000FFE70598C16D20208840019988600598C9
:103F200090F83500052834D1FFE705980168086846
:103F300020F01600086005980168486920F08000AC
:103F400048610598006C20B9FFE70598806C38B18E
:103F5000FFE705980168086820F008000860FFE79F
:103F60000598C16D3F20884001998860059901201E
:103F700081F83500FFE70599002081F83400FFE75C
:103F80000598006D20B1FFE70598016D8847FFE7B0
:103F90007BE0059800680068400300281AD5FFE719
:103FA0000598006800680003002809D4FFE7059819
:103FB000406C20B1FFE70598416C8847FFE708E0B7
:103FC0000598C06B20B1FFE70598C16B8847FFE7F4
:103FD000FFE720E0059800680068C005002811D4BC
:103FE000FFE705980168086820F01000086005994F
:103FF000012081F83500FFE70599002081F83400A1
:10400000FFE7FFE70598C06B20B1FFE70598C16B9C
:104010008847FFE7FFE7FFE7FFE70598406DA0B39C
:10402000FFE70598406DC00730B3FFE7059905200D
:1040300081F8350005980168086820F001000860E3
:10404000FFE70398013003900299884201D9FFE706
:1040500007E0FFE7059800680068C0070028F0D176
:10406000FFE70599012081F83500FFE70599002059
:1040700081F83400FFE7FFE70598C06C20B1FFE747
:104080000598C16C8847FFE7FFE706B080BD0000D8
:1040900080B586B004900020039000F087FC029069
:1040A000049820B9FFE701208DF81700A3E00498D9
:1040B000406A08B1FFE7FFE70499022081F8350064
:1040C000FFE70499002081F83400FFE704980168B5
:1040D000086820F001000860FFE7049800680068A5
:1040E000C00790B1FFE700F061FC0299401A062872
:1040F0000AD3FFE70499202048650499032081F83A
:1041000035008DF8170076E0E7E70498006800684E
:104110000390039848F23F01CFF21001084003904A
:10412000049900914868D1F808C0CB680A6940EA50
:104130000C00184310434A6910438A691043CA6946
:104140001043096A01430398084303900498406AA6
:10415000042808D1FFE70499C86A096B0143039852
:1041600008430390FFE703980499096808600498DE
:10417000006840690390039820F0070003900498BA
:10418000416A0398084303900498406A04281AD1AE
:10419000FFE70498816A0398084303900498C06A73
:1041A00080B1FFE70498FEF72BF850B1FFE70499C0
:1041B000402048650499012081F835008DF81700EA
:1041C00019E0FFE7FFE7039804990968486104983C
:1041D000FDF7EAFF01900498C16D3F2088400199E6
:1041E0008860049900204865049A012182F83510FE
:1041F0008DF81700FFE79DF8170006B080BD00009E
:1042000080B588B0069005910492039300208DF844
:104210000B000698806D0190FFE7069890F8340037
:10422000012804D1FFE702208DF81F0045E0069920
:10423000012081F83400FFE7FFE7069890F8350089
:1042400001282BD1FFE70699022081F83500069955
:104250000020486506980599049A039BFEF748F8E4
:104260000698C16D3F2088400199886006980168D2
:10427000086840F0160008600698006C38B1FFE747
:1042800006980168086840F008000860FFE7069893
:104290000168086840F00100086009E0FFE706993E
:1042A000002081F83400FFE702208DF80B00FFE7C3
:1042B0009DF80B008DF81F00FFE79DF81F0008B068
:1042C00080BD000080B584B0039000F06FFB0290C9
:1042D000039801900198013048B1FFE740F20A10BD
:1042E000C2F200000178019808440190FFE7FFE75F
:1042F00000F05CFB0299401A0199884201D2FFE765
:10430000F6E704B080BD000080B586B0049003914C
:1043100001208DF80B0000200190FFE742F284504D
:10432000C2F20000007E012804D1FFE702208DF8D0
:1043300017006DE042F28451C2F2000101200876BC
:10434000FFE7FFE74CF25030FEF7DAF98DF80B008B
:104350009DF80B0000284ED1FFE703994FF0FF3086
:10436000086004980068012815D1FFE70499087CCB
:104370004968FEF78BF84CF25030FEF7C1F98DF822
:104380000B0043F61041C4F20201086848F204022F
:10439000904308602CE0049880680190FFE7019842
:1043A00004998A68C9681144884220D2FFE70198BD
:1043B0000499097CFDF7CEFF4CF25030FEF7A0F9CE
:1043C0008DF80B0043F61041C4F20201086820F09A
:1043D000FA0008609DF80B0020B1FFE701980399EF
:1043E000086004E0FFE7019801300190D7E7FFE79C
:1043F000FDF7FAFFFFE7FFE742F28451C2F2000146
:1044000000200876FFE79DF80B008DF81700FFE706
:104410009DF8170006B080BD43F61041C4F20201BA
:10442000086840F0004008600020704780B588B000
:10443000069005910393029201208DF80700FFE793
:1044400042F28450C2F20000007E012804D1FFE74E
:1044500002208DF81F0051E042F28451C2F20001A7
:1044600001200876FFE7FFE74CF25030FEF748F9ED
:104470008DF807009DF8070098BBFFE7069830B954
:10448000FFE705989DF80810FEF740F81AE0069837
:10449000012806D1FFE70598BDF80810FEF76CF873
:1044A0000FE00698022805D1FFE705980299FEF76C
:1044B0007DF805E00598029A039BFEF73FF8FFE7B9
:1044C000FFE7FFE74CF25030FEF71AF98DF80700CE
:1044D00043F61041C4F20201086820F001000860B0
:1044E000FFE7FFE742F28451C2F2000100200876A4
:1044F000FFE79DF807008DF81F00FFE79DF81F00FC
:1045000008B080BD81B000208DF8030043F6104054
:10451000C4F202000068C00FD8B1FFE743F60441BF
:10452000C4F2020140F22310C4F26750086048F65A
:10453000AB10CCF6EF50086043F61040C4F2020016
:104540000068C00F20B1FFE701208DF80300FFE7EE
:10455000FFE79DF8030001B07047000090B00F9096
:104560000E9100200C900B900A900D90FFE70D9893
:104570000F2800F2E881FFE70D99012088400C9098
:104580000E9800680C9908400B900B980C99884283
:1045900040F0D481FFE70E98406800F00300012846
:1045A00007D0FFE70E98406800F0030002282FD1E3
:1045B000FFE70F9880680A900D984100032000FAE9
:1045C00001F10A9888430A900E98C0680D99490035
:1045D00000FA01F10A9808430A900A980F99886036
:1045E0000F9840680A900D99012000FA01F10A988D
:1045F00088430A900E984068C0F300100D9900FAA5
:1046000001F10A9808430A900A980F994860FFE759
:104610000E98406800F00300032818D0FFE70F98B9
:10462000C0680A900D984100032000FA01F10A9831
:1046300088430A900E9880680D99490000FA01F1AC
:104640000A9808430A900A980F99C860FFE70E98E5
:10465000406800F00300022826D1FFE70F980D996B
:104660006FF0030202EA51010844006A0A900D98B3
:1046700000F0070081000F2000FA01F10A9888433A
:104680000A900E9800690D9901F00701890000FA5F
:1046900001F10A9808430A900A980F990D9B02EAC3
:1046A000530211440862FFE70F9800680A900D98C2
:1046B0004100032000FA01F10A9888430A900E98FD
:1046C000406800F003000D99490000FA01F10A98D2
:1046D00008430A900A980F9908600E98807980071D
:1046E000002800F02A81FFE7FFE70020099043F649
:1046F0004400C4F20200016841F480410160006896
:1047000000F4804009900998FFE70D9820F003001D
:1047100043F60801C4F2010140580A900D9800F0D8
:10472000030081000F2000FA01F10A9888430A90E3
:104730000F980021C4F20201884203D1FFE7002054
:1047400008907AE00F9840F20041C4F202018842DA
:1047500003D1FFE7012007906CE00F9840F60001BD
:10476000C4F20201884203D1FFE7022006905EE016
:104770000F9840F60041C4F20201884203D1FFE7DE
:104780000320059050E00F9841F20001C4F20201AD
:10479000884203D1FFE70420049042E00F9841F2E1
:1047A0000041C4F20201884203D1FFE705200390D3
:1047B00034E00F9841F60001C4F20201884203D1AF
:1047C000FFE70620029026E00F9841F60041C4F270
:1047D0000201884203D1FFE70720019018E00F98FB
:1047E00042F20001C4F20201884203D1FFE708202F
:1047F00000900AE00F9942F20042C4F202020A203D
:10480000914208BF09200090FFE700980190FFE760
:1048100001980290FFE702980390FFE70398049045
:10482000FFE704980590FFE705980690FFE70698D4
:104830000790FFE707980890FFE70898C0B20D9926
:1048400001F00301890000FA01F10A9808430A9077
:104850000A980D9921F0030143F60802C4F20102FF
:10486000885043F60840C4F2010000680A900B9992
:104870000A9888430A900E988079C006002805D5CA
:10488000FFE70B990A9808430A90FFE70A9843F656
:104890000841C4F20101086043F60C40C4F2010073
:1048A00000680A900B990A9888430A900E988079BC
:1048B0008006002805D5FFE70B990A9808430A905F
:1048C000FFE70A9843F60C41C4F20101086043F681
:1048D0000440C4F2010000680A900B990A988843CA
:1048E0000A900E9880798007002805D5FFE70B997C
:1048F0000A9808430A90FFE70A9843F60441C4F275
:104900000101086043F60040C4F2010000680A900B
:104910000B990A9888430A900E988079C00728B1AD
:10492000FFE70B990A9808430A90FFE70A9843F6B5
:104930000041C4F201010860FFE7FFE7FFE70D98BF
:1049400001300D9013E610B07047000082B0019066
:10495000ADF8021001980069BDF80210084204D0B9
:10496000FFE701208DF8010003E000208DF8010031
:10497000FFE79DF8010002B07047000082B001908F
:10498000ADF802108DF801209DF8010028B1FFE775
:10499000BDF802000199886105E0BDF8020000043D
:1049A00001998861FFE702B07047000046F2DC2001
:1049B000C2F200000068704740F20A10C2F2000024
:1049C000027846F2DC21C2F2000108681044086057
:1049D0007047000080B582B043F60041C4F2020186
:1049E000086840F400700860086840F4806008605F
:1049F000086840F480700860032000F0D1F80020BF
:104A0000019000F005F800F07BF8019802B080BD3D
:104A100080B58CB00B90002004900390FFE700203D
:104A2000009043F64000C4F20200016841F010011A
:104A30000160006800F0100000900098FFE706A8F1
:104A400002A900F019FC09980490049820B9FFE726
:104A500000F042FC059004E000F03EFC40000590B0
:104A6000FFE705984DF68361C4F21B31A0FB0101FD
:104A70004FF0FF3000EB9140039042F2EC10C2F295
:104A8000000041F20001C4F20001016040F2E73190
:104A9000C16003994160002101618160816101F081
:104AA000E7FD8DF807009DF8070028BBFFE742F2FD
:104AB000EC10C2F2000001F063FF8DF807009DF8D2
:104AC0000700C0B9FFE7362000F046F80B980F2822
:104AD0000CD8FFE70B993620002200F047F80B981E
:104AE00040F20C11C2F20001086003E001208DF8D1
:104AF0000700FFE7FFE7FFE79DF807000CB080BD68
:104B000080B582B0FFE70020019043F64400C4F274
:104B10000200016841F480410160006800F48040B7
:104B200001900198FFE7FFE70020009043F6400066
:104B3000C4F20200016841F080510160006800F099
:104B4000805000900098FFE76FF001000F210022D5
:104B500000F00CF802B080BD80B582B08DF807007F
:104B60009DF9070010F07CFF02B080BD80B586B0D3
:104B70008DF81700049103920020029010F088FF36
:104B800002909DF91700019002980499039A04F08D
:104B9000F7F90146019810F083FF06B080BD0000D0
:104BA00080B582B00190019810F09CFF02B080BDEA
:104BB00010F0B6FF80B582B001200190019880F31B
:104BC0001388FFF7F5FF02B080BD000080B543F603
:104BD0001440C4F201000068C00300280AD5FFE7B2
:104BE000FFF7E8FF43F61441C4F201014FF48030AF
:104BF0000860FFE780BD000080B586B0049000200B
:104C00000390029004980078C00770B9FFE70498F9
:104C1000006800F00200022807D0FFE7049800783F
:104C20004006002840F18F80FFE76821C4F2472149
:104C300000200860FFF7BAFE0390FFE743F600008C
:104C4000C4F20200006800F000610020B0EBD16FF8
:104C50000CD0FFE7FFF7AAFE0399401A032804D3FC
:104C6000FFE703208DF81700D0E1E7E7049800780C
:104C7000C00760B1FFE7049948688968800140EA8D
:104C8000017043F68401C4F202010860FFE7049852
:104C90000078800700281FD5FFE743F68401C4F29F
:104CA00002010868C0F302700290049A5068D2684A
:104CB000800140EA0260029A40EA0270086043F60E
:104CC0008C01C4F20201086820F01F00049AD26926
:104CD000013A10430860FFE7049800784006002876
:104CE0000FD5FFE7049A50689168D268800140EAC6
:104CF000026040EA017043F68401C4F202010860D8
:104D0000FFE76821C4F2472101200860FFF74EFE4B
:104D10000390FFE743F60000C4F20200006800F0D1
:104D200000610020B0EBD16F0CD1FFE7FFF73EFE32
:104D30000399401A032804D3FFE703208DF81700D6
:104D400064E1E7E7FFE70498006800F00400042846
:104D500007D0FFE7049800780007002840F1908012
:104D6000FFE77021C4F2472100200860FFF71EFE14
:104D70000390FFE743F60000C4F20200006800F071
:104D800000510020B0EB517F0CD0FFE7FFF70EFE83
:104D90000399401A032804D3FFE703208DF8170076
:104DA00034E1E7E7049800784007002822D5FFE7C0
:104DB00043F68801C4F202010868C0F30270029051
:104DC000049A10695269800140EA0260029A40EA3E
:104DD0000270086043F68C01C4F20201086820F4F6
:104DE000F850049A136A6FF0FF0202EB032210439B
:104DF0000860FFE704980078000700281ED5FFE749
:104E000043F68801C4F202010868C0F3036002900F
:104E1000049A106992698001029B40EA036040EAAB
:104E20000270086043F68C01C4F20201086820F4A5
:104E30004030049A526A10430860FFE77021C4F2C0
:104E4000472101200860FFF7B1FD0390FFE743F61B
:104E50000000C4F20200006800F000510020B0EB36
:104E6000517F0CD1FFE7FFF7A1FD0399401A0328FA
:104E700004D3FFE703208DF81700C7E0E7E7FFE75B
:104E8000049800788006002840F1AD80FFE7FFE736
:104E90000020019043F64000C4F20200016841F096
:104EA00080510160006800F0805001900198FFE798
:104EB00047F20001C4F20001086840F48070086005
:104EC000FFF774FD0390FFE747F20000C4F2000013
:104ED0000068C00500280CD4FFE7FFF767FD0399C1
:104EE000401A032804D3FFE703208DF817008DE054
:104EF000EAE743F67000C4F20200006800F4407074
:104F00000290029800283ED0FFE702980499896A2F
:104F100001F44071884236D0FFE743F67000C4F2D6
:104F20000200016821F44071029140F64062C4F22F
:104F3000472201211160002111600299016000687F
:104F4000C007F8B1FFE7FFF731FD0390FFE743F635
:104F50007000C4F20200006800F002010020B0EB13
:104F6000510F0ED1FFE7FFF721FD0399401A41F2DF
:104F70008931884204D3FFE703208DF8170045E00C
:104F8000E5E7FFE7FFE7FFE70498806A00F4407079
:104F9000B0F5407F11D1FFE743F60801C4F20201EA
:104FA000086820F4F810049A926A4FF6FF43C0F69E
:104FB000FF731A401043086008E043F60801C4F28A
:104FC0000201086820F4F8100860FFE70498826A7C
:104FD0006FF31F3243F67001C4F2020108681043F8
:104FE0000860FFE7FFE704980078C006002809D5AD
:104FF000FFE7049890F82C0041F2E011C4F2472139
:105000000860FFE700208DF81700FFE79DF8170004
:1050100006B080BD80B584B002900191029820B99D
:10502000FFE701208DF80F0021E1019843F60041D0
:10503000C4F20201096801F00F01884212D9FFE7AA
:10504000019943F60040C4F202000170006800F0CC
:105050000F000199884204D0FFE701208DF80F006E
:1050600005E1FFE702980078800700282AD5FFE7CE
:10507000029800784007002809D5FFE743F60801A9
:10508000C4F20201086840F4E0500860FFE70298AB
:1050900000780007002809D5FFE743F60801C4F2AD
:1050A0000201086840F460400860FFE743F6080129
:1050B000C4F20201086820F0F000029A92681043DE
:1050C0000860FFE702980078C00700286ED0FFE76D
:1050D00002984068012811D1FFE743F60000C4F2AE
:1050E0000200006800F400310020B0EB514F04D101
:1050F000FFE701208DF80F00B9E02CE0029840682E
:10510000022805D0FFE702984068032811D1FFE785
:1051100043F60000C4F20200006800F000710020B5
:10512000B0EB516F04D1FFE701208DF80F009EE036
:1051300010E043F60000C4F20200006800F0020133
:105140000020B0EB510F04D1FFE701208DF80F00D4
:105150008DE0FFE7FFE743F60801C4F202010868AB
:1051600020F00300029A526810430860FFF71EFC0B
:105170000090FFE743F60800C4F20200006800F068
:105180000C0002994968B0EB810F0ED0FFE7FFF7E2
:105190000DFC0099401A41F28931884204D3FFE79F
:1051A00003208DF80F0062E0E4E7FFE7019843F683
:1051B0000041C4F20201096801F00F01884212D2D5
:1051C000FFE7019943F60040C4F202000170006855
:1051D00000F00F000199884204D0FFE701208DF80C
:1051E0000F0044E0FFE702980078400700280CD544
:1051F000FFE743F60801C4F20201086820F4E0501A
:10520000029AD26810430860FFE70298007800070E
:1052100000280DD5FFE743F60801C4F20201086833
:1052200020F46040029A126940EAC2000860FFE779
:1052300000F076F843F60801C4F202010968C9B229
:105240000A094AF29811C0F60101895CC84040F28F
:10525000D401C2F20001086040F20C10C2F200005A
:105260000068FFF7D5FB00208DF80F00FFE79DF8E1
:105270000F0004B080BD000082B001900091019940
:105280000F20086043F60800C4F20200016801F034
:105290000301019A5160016801F0F001019A9160E7
:1052A000016801F4E051019AD160006800F46040A7
:1052B000C0080199086143F60040C4F2020000688A
:1052C00000F00F000099086002B0704740F2D4006F
:1052D000C2F200000068704780B5FFF7F7FF43F6A1
:1052E0000801C4F202010968C1F382224AF2A8113E
:1052F000C0F60101895CC84080BD000080B5FFF7A1
:10530000E5FF43F60801C4F20201096889B24A0BBD
:105310004AF2A811C0F60101895CC84080BD0000B6
:1053200080B586B00020059004900390029043F66B
:105330000800C4F20200006800F00C000146019170
:1053400040B1FFE7019804280AD0FFE70198082838
:105350000CD04FE042F20040C0F2F40002904FE067
:1053600041F60030C0F2B700029049E043F6040075
:10537000C4F20200016801F03F010591006840029B
:10538000002813D5FFE743F60400C4F202000068CA
:10539000C0F3881041F60031C0F2B701A0FB010153
:1053A000059A0023FAF7D0FF049012E043F60400B8
:1053B000C4F202000068C0F3881042F20041C0F25B
:1053C000F401A0FB0101059A0023FAF7BDFF049048
:1053D000FFE743F60400C4F20200006800F4403125
:1053E000022000EBD130039004980399B0FBF1F058
:1053F000029005E042F20040C0F2F4000290FFE7A4
:10540000029806B080BD000080B586B00490049874
:1054100020B9FFE701208DF8170050E304980078C9
:10542000C007002800F0A580FFE743F60800C4F29B
:105430000200006800F00C00042813D0FFE743F6D8
:105440000800C4F20200006800F00C0008281ED119
:10545000FFE743F60400C4F202000068400200289F
:1054600015D5FFE743F60000C4F20200006800F41F
:1054700000310020B0EB514F08D0FFE7049840689E
:1054800020B9FFE701208DF8170018E370E0FFE76F
:1054900004984068B0F5803F09D1FFE743F600016A
:1054A000C4F20201086840F48030086020E00498EB
:1054B0004068B0F5A02F0DD1FFE743F60001C4F21C
:1054C0000201086840F480200860086840F48030D9
:1054D00008600CE043F60001C4F20201086820F401
:1054E00080300860086820F480200860FFE7FFE74C
:1054F000FFE704984068E8B1FFE7FFF757FA039029
:10550000FFE743F60000C4F20200006800F4003137
:105510000020B0EB514F0CD1FFE7FFF747FA03999A
:10552000401A652804D3FFE703208DF81700C6E270
:10553000E7E71CE0FFF73AFA0390FFE743F60000C5
:10554000C4F20200006800F400310020B0EB514FBB
:105550000CD0FFE7FFF72AFA0399401A652804D315
:10556000FFE703208DF81700A9E2E7E7FFE7FFE771
:10557000FFE7049800788007002840F19680FFE755
:1055800043F60800C4F20200006810F00C0F13D0BC
:10559000FFE743F60800C4F20200006800F00C00C8
:1055A00008282CD1FFE743F60400C4F2020000688B
:1055B0004002002823D4FFE743F60000C4F20200B3
:1055C000006800F002010020B0EB510F09D0FFE7A6
:1055D0000498C068012804D0FFE701208DF8170067
:1055E0006DE243F60001C4F20201086820F0F80001
:1055F000049A126940EAC2000860FFE754E0049888
:10560000C06870B3FFE70021C4F2472101200860A1
:10561000FFF7CCF90390FFE743F60000C4F2020065
:10562000006800F002010020B0EB510F0CD1FFE741
:10563000FFF7BCF90399401A032804D3FFE70320BE
:105640008DF817003BE2E7E743F60001C4F20201E0
:10565000086820F0F800049A126940EAC200086065
:1056600021E00021C4F2472100200860FFF79EF9E5
:105670000390FFE743F60000C4F20200006800F068
:1056800002010020B0EB510F0CD0FFE7FFF78EF9BD
:105690000399401A032804D3FFE703208DF817006D
:1056A0000DE2E7E7FFE7FFE7FFE704980078000770
:1056B00000284BD5FFE70498406918B3FFE740F690
:1056C0008061C4F2472101200860FFF76FF9039061
:1056D000FFE743F67400C4F20200006800F0020124
:1056E0000020B0EB510F0CD1FFE7FFF75FF90399F2
:1056F000401A032804D3FFE703208DF81700DEE1EA
:10570000E7E722E040F68061C4F24721002008600C
:10571000FFF74CF90390FFE743F67400C4F2020070
:10572000006800F002010020B0EB510F0CD0FFE741
:10573000FFF73CF90399401A032804D3FFE703203D
:105740008DF81700BBE1E7E7FFE7FFE70498007873
:105750004007002840F1CE80FFE700208DF80700C9
:1057600043F64000C4F202000068C000002815D4CF
:10577000FFE7FFE70020009043F64000C4F202007C
:10578000016841F080510160006800F08050009095
:105790000098FFE701208DF80700FFE747F20000BF
:1057A000C4F200000068C005002822D4FFE747F2D9
:1057B0000001C4F20001086840F480700860FFF73F
:1057C000F5F80390FFE747F20000C4F2000000681C
:1057D000C00500280CD4FFE7FFF7E8F80399401A4A
:1057E000032804D3FFE703208DF8170067E1EAE7F9
:1057F000FFE7FFE704988068012809D1FFE743F637
:105800007001C4F20201086840F0010008601FE066
:105810000498806805280DD1FFE743F67001C4F2B3
:105820000201086840F004000860086840F00100C8
:1058300008600CE043F67001C4F20201086820F031
:1058400001000860086820F004000860FFE7FFE737
:10585000FFE704988068F8B1FFE7FFF7A7F8039027
:10586000FFE743F67000C4F20200006800F0020196
:105870000020B0EB510F0ED1FFE7FFF797F8039927
:10588000401A41F28931884204D3FFE703208DF8A2
:10589000170014E1E5E71EE0FFF788F80390FFE743
:1058A00043F67000C4F20200006800F0020100201C
:1058B000B0EB510F0ED0FFE7FFF778F80399401ACD
:1058C00041F28931884204D3FFE703208DF81700A5
:1058D000F5E0E5E7FFE79DF80700012809D1FFE7BC
:1058E00043F64001C4F20201086820F080500860CD
:1058F000FFE7FFE704988069002800F0DC80FFE7FD
:1059000043F60800C4F20200006800F00C0008280A
:1059100000F08580FFE70498806902285CD1FFE7EA
:105920006021C4F2472100200860FFF73FF8039090
:10593000FFE743F60000C4F20200006800F00071C7
:105940000020B0EB516F0CD0FFE7FFF72FF8039961
:10595000401A032804D3FFE703208DF81700AEE0B8
:10596000E7E70499C869D1F820C04B6A8A6A40EA1F
:105970000C0040EA8310D2034FF6FF739A43A2F55E
:1059800080321043C96A40EA016043F60401C4F260
:10599000020108606021C4F2472101200860FFF77E
:1059A00005F80390FFE743F60000C4F20200006828
:1059B00000F000710020B0EB516F0CD1FFE7FEF753
:1059C000F5FF0399401A032804D3FFE703208DF85D
:1059D000170074E0E7E721E06021C4F247210020CE
:1059E0000860FEF7E3FF0390FFE743F60000C4F210
:1059F0000200006800F000710020B0EB516F0CD085
:105A0000FFE7FEF7D3FF0399401A032804D3FFE70B
:105A100003208DF8170052E0E7E7FFE74AE004981B
:105A20008069012804D1FFE701208DF8170046E0C6
:105A300043F60400C4F202000068029004988069F2
:105A4000012831D0FFE7029800F480000499C96969
:105A5000884229D1FFE7029800F03F000499096AC3
:105A6000884221D1FFE7029847F6C07108400499A7
:105A7000496AB0EB811F17D1FFE7029800F440306C
:105A80000499896AC9034FF6FF729143A1F58031E9
:105A9000884209D1FFE7029800F070600499C96A52
:105AA000B0EB016F04D0FFE701208DF8170006E08E
:105AB000FFE7FFE7FFE700208DF81700FFE79DF8FD
:105AC000170006B080BD000080B582B0009000983D
:105AD00020B9FFE701208DF807001CE0009840790D
